:1000000007C7000036C7000034C7000032C7000031
:1000100030C700002EC700002CC700002AC7000010
:1000200028C7000026C7000024C7000022C7000020
:1000300020C700001EC700001CC700001AC7000030
:1000400018C7000016C7000014C7000012C7000040
:1000500010C700000EC700000CC700000C942E183B
:1000600008C7000006C7000004C7000002C7000060
:1000700000C70000FEC60000FCC60000FAC6000073
:10008000F8C60000F6C60000F4C60000F2C6000084
:10009000F0C60000EEC60000ECC60000EAC6000094
:1000A000E8C60000E6C60000E4C60000E2C60000A4
:1000B000E0C60000DEC60000DCC60000DAC60000B4
:1000C000D8C60000D6C60000D4C60000D2C60000C4
:1000D000D0C60000CEC60000CCC60000CAC60000D4
:1000E000C8C600003519531AFB1AA01B871C871CB1
:1000F000121E3E1F12230A200F2162214524EF24E5
:1001000061266126FB1A37273727FB1A93255D28BE
:10011000021DF728A929352B8C2A61107910961019
:10012000EE10EE10EE10A810141161101411C4108E
:100130001411CE10CE10E210E2109610EE10EE1058
:100140009610CE101411EE10001114111411141188
:10015000000020002300260029002C002F00320080
:10016000000100000301060109011010205F0000DA
:10017000000000000000000000000000000000007F
:10018000000000000000000000000000000000006F
:10019000000007000F800F800F800F800F80070086
:1001A0000700000000000700070007000000000033
:1001B0000E380E380E380E380630000000000000F1
:1001C000000000000000000000000000000000002F
:1001D0000C300C300C307FFE7FFE0C300C300C30BD
:1001E0000C307FFE7FFE0C300C300C300000000025
:1001F000024002400FF81FF81A401A401FF00FF893
:10020000025802581FF81FF0024002400000000090
:10021000000000000E100E300E7000E001C00380E0
:1002200007000E700C700870000000000000000055
:1002300000000F001980198019800F000F080F9817
:1002400019F818F018E019F00F98000000000000ED
:1002500000000700070007000E000000000000007B
:10026000000000000000000000000000000000008E
:10027000000000F001C0038007000E000E000E0019
:100280000E000700038001C000F000000000000025
:1002900000000F00038001C000E0007000700070DB
:1002A000007000E001C003800F00000000000000AB
:1002B000000001801188099007E007E03FFC3FFC47
:1002C00007E007E0099011880180000000000000AD
:1002D0000000000000000180018001800FF00FF09D
:1002E000018001800180000000000000000000008B
:1002F00000000000000000000000000000000000FE
:10030000000000000700070007000E0000000000CA
:100310000000000000000000000000001FF81FF8AF
:1003200000000000000000000000000000000000CD
:1003300000000000000000000000000000000000BD
:100340000000000007000700070000000000000098
:10035000000000020006000E001C0038007000E0E3
:1003600001C0038007000E001C0000000000000018
:1003700000000FF01C381C781CF81CF81DB81DB8C4
:100380001F381F381E381C380FF000000000000016
:1003900000000180018003801F801F800380038094
:1003A00003800380038003801FF000000000000032
:1003B00000000FE01C701C380038007000E001C025
:1003C000038007000E381C381FF8000000000000F2
:1003D00000000FE01C701C380038007003C003C020
:1003E000007000381C381C700FE000000000000096
:1003F000000000E001E003E006E00CE018E01FF878
:100400001FF800E000E000E003F80000000000003A
:1004100000001FF81C001C001C001C001FE01FF047
:10042000007800381C381C700FE00000000000004D
:10043000000003E007000E001C001C001FF01FF866
:100440001C381C381C381C380FF00000000000005D
:1004500000001FFC1C1C1C1C1C1C001C0038007015
:1004600000E001C003800380038000000000000062
:1004700000000FF01C381C381C381F3807E007E05C
:100480001CF81C381C381C380FF00000000000005D
:1004900000000FF01C381C381C381C381FF80FF8EF
:1004A00000380038007000E007C0000000000000C5
:1004B00000000000000003800380038000000000B3
:1004C00003800380038000000000000000000000A3
:1004D0000000000000000380038003800000000093
:1004E000038003800380070000000000000000007C
:1004F000007000E001C0038007000E001C001C001B
:100500000E000700038001C000E000700000000042
:1005100000000000000000003FFC3FFC0000000065
:100520003FFC3FFC00000000000000000000000055
:100530001C000E000700038001C000E00070007086
:1005400000E001C0038007000E001C000000000056
:1005500003C00FF01E7818380038007000E001C0AA
:1005600001C00000000001C001C001C00000000087
:100570000FF81C1C1C1C1C1C1C1C1CFC1CFC1CFC4C
:100580001CFC1C001C001C001FF007F800000000F1
:10059000000003C007E00E701C381C381C381C38E3
:1005A0001FF81C381C381C381C38000000000000E4
:1005B00000001FF00E380E380E380E380FF00FF016
:1005C0000E380E380E380E381FF000000000000004
:1005D000000007F00E381C381C001C001C001C001A
:1005E0001C001C001C380E3807F000000000000042
:1005F00000001FE00E700E380E380E380E380E3820
:100600000E380E380E380E701FE00000000000009B
:1006100000001FF80E180E080E000E300FF00FF03D
:100620000E300E000E080E181FF80000000000002B
:1006300000001FF80E180E080E000E300FF00FF01D
:100640000E300E000E000E001F0000000000000023
:10065000000007F00E381C381C381C001C001C0061
:100660001CF81C381C380E3807F800000000000089
:1006700000001C701C701C701C701C701FF01FF0A0
:100680001C701C701C701C701C70000000000000AE
:1006900000000FE003800380038003800380038059
:1006A00003800380038003800FE00000000000004F
:1006B000000001FC0070007000700070007000709D
:1006C00038703870387038700FE00000000000009B
:1006D00000001E380E380E700EE00FC00F800F8025
:1006E0000FC00EE00E700E381E3800000000000033
:1006F00000001F000E000E000E000E000E000E0087
:100700000E000E080E180E381FF800000000000042
:1007100000001C1C1E3C1F7C1FFC1FFC1DDC1C9CC5
:100720001C1C1C1C1C1C1C1C1C1C000000000000B1
:1007300000001C1C1C1C1E1C1F1C1F9C1DDC1CFC08
:100740001C7C1C3C1C1C1C1C1C1C00000000000011
:10075000000003E007F00E381C1C1C1C1C1C1C1C99
:100760001C1C1C1C0E3807F003E0000000000000F9
:1007700000001FF00E380E380E380E380FF00FF054
:100780000E000E000E000E001F0000000000000012
:10079000000003E00F780E381C1C1C1C1C1C1C1CC9
:1007A0001C7C1CFC0FF80FF8003800FC0000000057
:1007B00000001FF00E380E380E380E380FF00FF014
:1007C0000E700E380E380E381E3800000000000083
:1007D00000000FF01C381C381C381C000FE007F01C
:1007E00000381C381C381C380FF0000000000000D6
:1007F00000001FFC19CC11C401C001C001C001C020
:1008000001C001C001C001C007F0000000000000ED
:1008100000001C701C701C701C701C701C701C7004
:100820001C701C701C701C700FE0000000000000A9
:1008300000001C701C701C701C701C701C701C70E4
:100840001C701C700EE007C0038000000000000058
:1008500000001C1C1C1C1C1C1C1C1C1C1C9C1C9C10
:100860001C9C0FF80FF807700770000000000000D4
:1008700000001C701C701C700EE007C00380038019
:1008800007C00EE01C701C701C700000000000000F
:1008900000001C701C701C701C701C700EE007C0E7
:1008A00003800380038003800FE00000000000004D
:1008B00000001FF81C381838107000E001C00380D9
:1008C00007000E081C181C381FF80000000000006C
:1008D000000007F0070007000700070007000700F7
:1008E000070007000700070007F0000000000000F5
:1008F0000000100018001C000E000700038001C05B
:1009000000E000700038001C00070000000000003C
:10091000000007F000700070007000700070007040
:10092000007000700070007007F000000000000010
:10093000018003C007E00E701C38000000000000BA
:1009400000000000000000000000000000000000A7
:100950000000000000000000000000000000000097
:10096000000000000000000000007FFF7FFF00008B
:1009700000001C001C000700070000000000000031
:100980000000000000000000000000000000000067
:10099000000000000000000000000FE00070007088
:1009A0000FF01C701C701C700FD8000000000000BD
:1009B00000001E000E000E000E000FF00E380E3864
:1009C0000E380E380E380E381BF000000000000004
:1009D000000000000000000000000FE01C701C7010
:1009E0001C001C001C701C700FE0000000000000C8
:1009F000000000F80070007000700FF01C701C7098
:100A00001C701C701C701C700FD8000000000000CF
:100A1000000000000000000000000FE01C701C70CF
:100A20001FF01C001C701C700FE000000000000094
:100A3000000003E007700770070007001FE01FE0D9
:100A400007000700070007001FC0000000000000AB
:100A5000000000000000000000000FD81C701C7097
:100A60001C701C700FF007F000701C700FE000008D
:100A700000001E000E000E000E000EF00F380F38A2
:100A80000E380E380E380E381E38000000000000F8
:100A9000000001C001C001C000000FC001C001C0C2
:100AA00001C001C001C001C00FF80000000000003B
:100AB0000000007000700070000003F00070007013
:100AC00000700070007000701C700CF007E00000F7
:100AD00000001E000E000E000E000E380E700EE01C
:100AE0000FC00EE00E700E381E380000000000002F
:100AF00000000FC001C001C001C001C001C001C0A1
:100B000001C001C001C001C00FF8000000000000DA
:100B1000000000000000000000001FF81C9C1C9C4E
:100B20001C9C1C9C1C9C1C9C1C9C0000000000002D
:100B3000000000000000000000001FE01C701C709E
:100B40001C701C701C701C701C70000000000000E9
:100B5000000000000000000000000FE01C701C708E
:100B60001C701C701C701C700FE000000000000066
:100B7000000000000000000000001BF00E380E38DE
:100B80000E380E380E380FF00E000E001F00000059
:100B9000000000000000000000001FB038E038E056
:100BA00038E038E038E01FE000E000E001F000004D
:100BB000000000000000000000001EF00FF80F38D9
:100BC0000E000E000E000E001F00000000000000CE
:100BD000000000000000000000000FE01C301C308E
:100BE0000F8003E0187018700FE000000000000094
:100BF000000000000100030007001FF007000700CD
:100C0000070007000770077003E000000000000005
:100C1000000000000000000000001C701C701C7030
:100C20001C701C701C701C700FD8000000000000AD
:100C3000000000000000000000001C701C701C7010
:100C40001C701C700EE007C0038000000000000054
:100C5000000000000000000000001C1C1C1C1C1CEC
:100C60001C9C1C9C0FF8077007700000000000001F
:100C7000000000000000000000001CE01CE00FC0AD
:100C8000078007800FC01CE01CE00000000000008F
:100C9000000000000000000000000E380E380E3882
:100CA0000E380E3807F003E000E001C01F8000009E
:100CB000000000000000000000001FE018E011C06C
:100CC000038007000E201C601FE0000000000000F1
:100CD000000001F803800380038007001C001C0053
:100CE000070003800380038001F80000000000007B
:100CF00001C001C001C001C001C001C001C001C0EC
:100D000001C001C001C001C001C001C0000000005D
:100D100000001F8001C001C001C000E000380038A1
:100D200000E001C001C001C01F8000000000000001
:100D300000001F1C3B9C39DC38F80000000000005C
:100D400000000000000000000000000000000000A3
:100D50002200250028002B002E0031003400020163
:100D60000000050108010B010000210024002700FC
:100D70002A002D00300033000101000004010701AA
:100D80000A01050505050705080808080202020210
:100D90000A0A080804040404010101010101010117
:100DA0000303030303030303040707070C0C0C0CE2
:100DB0000C0C0C0C020202020606060606060606CB
:100DC0000B0B0B0B0B0B0B0B010210202008081058
:100DD00020401020408002010201080402010102AB
:100DE0000408102040808040201008040201800484
:100DF00002018040201008040201080402010102DF
:100E00000408102040800102040810204080903126
:100E100011241FBECFEFD1E2DEBFCDBF00E00CBF7B
:100E200022E0A6E3B2E001C01D92A43DB207E1F7C3
:100E300012E0A0E0B2E0E2E4F5E600E00BBF02C0A1
:100E400007900D92A633B107D9F717E0C8E0D7E0B5
:100E500000E006C021970109802FFE010E94973211
:100E6000C730D10780E00807A9F70E9478180C94D2
:100E70009F32C6C8682F892F0C941B1420916802DA
:100E800080916D0290916E024091690250916A02C8
:100E9000211102C09C0102C09A01AC0160E070E027
:100EA00080E090E00C943610CF93DF93FC01C4E611
:100EB000D2E0AC89BD893C9198A1909593239C93F5
:100EC0009B01AF01CF010E943610888190E0982FDE
:100ED00088272981822BCEDFEC89FD89908188A12A
:100EE000892B8083DF91CF91C9CF2F923F924F9270
:100EF0005F926F927F928F929F92AF92BF92CF92AA
:100F0000DF92EF92FF920F931F93CF93DF93CDB7B2
:100F1000DEB72C970FB6F894DEBF0FBECDBF8C01A5
:100F20007C876B871A01FC0101900020E9F731975B
:100F30009F01281B390B3C832B8380916802811110
:100F400032C06F307742A1F46091690270916A02F9
:100F50006F5F7F4F20918B024B815C81249FC0018A
:100F6000259F900D1124DB01A81BB90BBC87AB8713
:100F7000EB85FC85EE30F74209F059C0809169029B
:100F800090916A02A0916B02B0916C020196A11D32
:100F9000B11D20918B024B815C81249F6001259FB4
:100FA000D00C112432C08B859C858F309742A1F4E0
:100FB00060916D0270916E026F5F7F4F20918B0286
:100FC000EB81FC812E9FC0012F9F900D11249B016E
:100FD000281B390B3C872B874B855C854E3057424D
:100FE00031F580916D0290916E02A0916F02B091E7
:100FF00070020196A11DB11D20918B02EB81FC8135
:101000002E9F60012F9FD00C11240D2C000CEE0898
:10101000FF08BC01CD016C197D098E099F0922E0F2
:1010200030E040E050E00E947B323C872B871887FD
:101030000F831E821D82ED81FE812B813C81E21790
:10104000F3070CF08EC180918B022D813E81829F2F
:101050002001839F500C11244B855C85440E551E46
:10106000AF81B8850D91B887AF83E0917802F09198
:1010700079029081809184028095892380832091D8
:101080008F0280918B0290918C0210E02111F7C0A9
:1010900020916802211176C09101290F311D215044
:1010A0003109A201480F511D41505109B101C2013E
:1010B000DDD780918B0286958695869590918C02DE
:1010C00020918D02021B1109899FC0011124089FE4
:1010D0007001099FF00C189FF00C1124B4E0EB0E86
:1010E000F11CA12CB12C80918B028695869586955A
:1010F00090918C02899FC0011124A816B90688F529
:10110000E0918902F0918A02EE0DFF1DE491F7E073
:10111000CF2ED12C0E2F10E0C8010C2C02C09595BB
:1011200087950A94E2F780FF08C08091640290E0FE
:10113000982F88272091650207C08091660290E071
:10114000982F882720916702822B94DEE1E0CE1A47
:10115000D10810F72FEFE21AF20A3FEFA31AB30AF1
:10116000C2CFE0917802F09179029081809184025F
:10117000892B808383DE4D815E814F5F5F4F5E836D
:101180004D8359CF86958695869520918D02021BB9
:101190001109899FC0011124089F6001099FD00C8B
:1011A000189FD00C112454E0C50ED11CA12CB12CD9
:1011B00020918B02622F66956695669580918C02D0
:1011C000689FC0011124A816B90658F670E0C50141
:1011D0000E944532620D731DA201420F511D415004
:1011E00051099B01C20142D7E0908B02E694E6943C
:1011F000E694F12C460181E0881A9108E114F1048B
:1012000099F1E0918902F0918A02C4018E0D9F1D2F
:10121000E80FF91FE491612C712C0E2F10E0C8012A
:10122000062C02C0959587950A94E2F780FF08C0C6
:101230008091640290E0982F88272091650207C072
:101240008091660290E0982F882720916702822B78
:1012500011DE9FEF691A790AA8E06A167104F9F69F
:10126000B1E0EB1AF108CACF80918B028695869582
:10127000869590E0C80ED91EA80EB91E99CF869506
:101280008695869520918D02021B1109899FC001C8
:101290001124089F5001099FB00C189FB00C112415
:1012A000E4E0AE0EB11C810180918C0290E09801C7
:1012B000221933092817390708F053CF4201E12CCE
:1012C000F12CD8011196BA87A98780918B02869557
:1012D0008695869590E0E816F9060CF03DC0E09101
:1012E0008902F0918A02C7018A0D9B1DE80FF91F40
:1012F000E491C40137E0C32ED12C2E2F30E03A8385
:1013000029833C013FEF631A730A29853A85A301BB
:10131000B801ACD689819A810C2C02C0959587952D
:101320000A94E2F780FF09C08091640290E0982F50
:10133000882720916502822B9DDD41E0C41AD108E7
:10134000C3015FEFC516D506E1F68FEFE81AF80A7C
:1013500098E0890E911CB9CFA80EB91E0F5F1F4FE0
:10136000A3CF2C960FB6F894DEBF0FBECDBFDF9192
:10137000CF911F910F91FF90EF90DF90CF90BF9092
:10138000AF909F908F907F906F905F904F903F9025
:101390002F9008958F929F92AF92BF92CF92DF923B
:1013A000EF92FF926A017B0182B9CB01BA0120E181
:1013B00030E040E050E00E947B3249015A0180E079
:1013C00090E0DC0188159905AA05BB050CF064C204
:1013D000E0917602F091770230812091830220958E
:1013E00023232083E0917602F091770230812091CF
:1013F0008302232B2083E0917602F09177023081E3
:1014000020918302209523232083E0917602F0919E
:101410007702308120918302232B2083E091760292
:10142000F09177023081209183022095232320833D
:10143000E0917602F0917702308120918302232B94
:101440002083E0917602F09177023081209183022F
:10145000209523232083E0917602F091770230815A
:1014600020918302232B2083E0917602F091770272
:10147000308120918302209523232083E0917602FE
:10148000F0917702308120918302232B2083E09119
:101490007602F091770230812091830220952323F8
:1014A0002083E0917602F0917702308120918302CF
:1014B000232B2083E0917602F091770230812091F6
:1014C0008302209523232083E0917602F091770216
:1014D000308120918302232B2083E0917602F091CA
:1014E0007702308120918302209523232083E0918D
:1014F0007602F0917702308120918302232B2083A2
:10150000E0917602F091770230812091830220955C
:1015100023232083E0917602F0917702308120919D
:101520008302232B2083E0917602F09177023081B1
:1015300020918302209523232083E0917602F0916D
:101540007702308120918302232B2083E091760261
:10155000F09177023081209183022095232320830C
:10156000E0917602F0917702308120918302232B63
:101570002083E0917602F0917702308120918302FE
:10158000209523232083E0917602F0917702308129
:1015900020918302232B2083E0917602F091770241
:1015A000308120918302209523232083E0917602CD
:1015B000F0917702308120918302232B2083E091E8
:1015C0007602F091770230812091830220952323C7
:1015D0002083E0917602F09177023081209183029E
:1015E000232B2083E0917602F091770230812091C5
:1015F0008302209523232083E0917602F0917702E5
:10160000308120918302232B2083E0917602F09198
:101610007702308120918302209523232083E0915B
:101620007602F0917702308120918302232B208370
:10163000E0917602F091770230812091830220952B
:1016400023232083E0917602F0917702308120916C
:101650008302232B2083E0917602F0917702308180
:1016600020918302209523232083E0917602F0913C
:101670007702308120918302232B2083E091760230
:10168000F0917702308120918302209523232083DB
:10169000E0917602F0917702308120918302232B32
:1016A0002083E0917602F0917702308120918302CD
:1016B000209523232083E0917602F09177023081F8
:1016C00020918302232B2083E0917602F091770210
:1016D000308120918302209523232083E09176029C
:1016E000F0917702308120918302232B2083E091B7
:1016F0007602F09177023081209183022095232396
:101700002083E0917602F09177023081209183026C
:10171000232B2083E0917602F09177023081209193
:101720008302209523232083E0917602F0917702B3
:10173000308120918302232B2083E0917602F09167
:101740007702308120918302209523232083E0912A
:101750007602F0917702308120918302232B20833F
:10176000E0917602F09177023081209183022095FA
:1017700023232083E0917602F0917702308120913B
:101780008302232B2083E0917602F091770230814F
:1017900020918302209523232083E0917602F0910B
:1017A0007702308120918302232B2083E0917602FF
:1017B000F0917702308120918302209523232083AA
:1017C000E0917602F0917702308120918302232B01
:1017D0002083E0917602F09177023081209183029C
:1017E000209523232083E0917602F09177023081C7
:1017F00020918302232B2083E0917602F0917702DF
:10180000308120918302209523232083E09176026A
:10181000F0917702308120918302232B2083E09185
:101820007602F09177023081209183022095232364
:101830002083E0917602F09177023081209183023B
:10184000232B2083E0917602F09177024081309142
:101850008302309534233083E0917602F091770251
:10186000208130918302322B3083E0917602F09117
:101870007702408130918302309534233083E091A8
:101880007602F0917702208130918302322B3083EF
:101890000196A11DB11D96CDD701C6018F70992764
:1018A000AA27BB27892B8A2B8B2BE1F1C701B60115
:1018B00020E130E040E050E00E947B32C12CD12C8E
:1018C00076016C157D058E059F0564F1E091760229
:1018D000F091770230812091830220952323208389
:1018E000E0917602F0917702308120918302232BE0
:1018F0002083E0917602F09177023081209183027B
:10190000209523232083E0917602F09177023081A5
:1019100020918302232B20832FEFC21AD20AE20ADE
:10192000F20ACFCFFF90EF90DF90CF90BF90AF90B3
:101930009F908F9008958F929F92AF92BF92CF9277
:10194000DF92EF92FF9269017A0182B968B9CA0108
:10195000B90120E130E040E050E00E947B324901D3
:101960005A0180E090E0DC0188159905AA05BB05C5
:101970000CF034C1E0917602F09177023081209131
:101980008302209523232083E0917602F091770251
:10199000308120918302232B2083E0917602F09105
:1019A0007702308120918302209523232083E091C8
:1019B0007602F0917702308120918302232B2083DD
:1019C000E0917602F0917702308120918302209598
:1019D00023232083E0917602F091770230812091D9
:1019E0008302232B2083E0917602F09177023081ED
:1019F00020918302209523232083E0917602F091A9
:101A00007702308120918302232B2083E09176029C
:101A1000F091770230812091830220952323208347
:101A2000E0917602F0917702308120918302232B9E
:101A30002083E0917602F091770230812091830239
:101A4000209523232083E0917602F0917702308164
:101A500020918302232B2083E0917602F09177027C
:101A6000308120918302209523232083E091760208
:101A7000F0917702308120918302232B2083E09123
:101A80007602F09177023081209183022095232302
:101A90002083E0917602F0917702308120918302D9
:101AA000232B2083E0917602F09177023081209100
:101AB0008302209523232083E0917602F091770220
:101AC000308120918302232B2083E0917602F091D4
:101AD0007702308120918302209523232083E09197
:101AE0007602F0917702308120918302232B2083AC
:101AF000E0917602F0917702308120918302209567
:101B000023232083E0917602F091770230812091A7
:101B10008302232B2083E0917602F09177023081BB
:101B200020918302209523232083E0917602F09177
:101B30007702308120918302232B2083E09176026B
:101B4000F091770230812091830220952323208316
:101B5000E0917602F0917702308120918302232B6D
:101B60002083E0917602F091770230812091830208
:101B7000209523232083E0917602F0917702308133
:101B800020918302232B2083E0917602F09177024B
:101B9000408130918302309534233083E091760286
:101BA000F0917702208130918302322B3083E091D3
:101BB0007602F09177024081309183023095342390
:101BC0003083E0917602F091770220813091830298
:101BD000322B30830196A11DB11DC6CED701C6019F
:101BE0008F709927AA27BB27892B8A2B8B2B49F12A
:101BF000C701B60120E130E040E050E00E947B32B6
:101C0000C12CD12C76016C157D058E059F05CCF07D
:101C1000E0917602F0917702308120918302209545
:101C200023232083E0917602F09177023081209186
:101C30008302232B20832FEFC21AD20AE20AF20A70
:101C4000E2CFFF90EF90DF90CF90BF90AF909F904A
:101C50008F9008950F931F93CF93DF93FC01EA01B8
:101C600057FF05C0640F751FD195C195D109A0918B
:101C70007802B09179022C919091840290959223F0
:101C80009C939B012C0F3D1FAF01CF01EFD18091A1
:101C900072028031A9F4E0917402F0917502908192
:101CA00080918202892B80839E01DD0F440B550BAE
:101CB0006091650270E08091640290E03CDE26C095
:101CC0008830C1F49091640280916502981312C02B
:101CD000E0917402F0917502908180918202892BCB
:101CE0008083AE01DD0F660B770B8091640290E07C
:101CF00051DB0CC000E010E060916502809164024D
:101D00009AD50F5F1F4FC017D107B4F7E091780243
:101D1000F0917902908180918402892B8083DF91F8
:101D2000CF911F910F91AAC80F931F93CF93DF9369
:101D3000EA0157FF05C0840F951FD195C195D109C0
:101D4000E0917802F09179024081309184023095DF
:101D500034233083AC014C0F5D1F9B0187D18091F0
:101D600072028031A9F4E0917402F09175029081C1
:101D700080918202892B80839E01DD0F440B550BDD
:101D80006091650270E08091640290E0D4DD26C02D
:101D90008830C1F49091640280916502981312C05A
:101DA000E0917402F0917502908180918202892BFA
:101DB0008083AE01DD0F660B770B8091640290E0AB
:101DC000E9DA0CC000E010E06091650280916402E5
:101DD00032D50F5F1F4FC017D107B4F7E0917802DB
:101DE000F0917902908180918402892B8083DF9128
:101DF000CF911F910F9142C82F923F924F925F92C5
:101E00006F927F928F929F92AF92BF92CF92DF920A
:101E1000EF92FF920F931F93CF93DF937C01EB011F
:101E20008A016901481759072CF4982F8F2D7A01E0
:101E3000092F182FCC16DD062CF49C2F8D2FE601D0
:101E4000C92ED82E28014E185F0885E04816510487
:101E50000CF451C016012C1A3D0A85E028163104F5
:101E60000CF449C04E018FEF881A980A37018FEFA2
:101E7000681A780AB401C30117D8580181E0A81A7A
:101E8000B108B401C50110D8460181E0881A910853
:101E9000B401C30109D8B401C50106D884E0481AC9
:101EA0005108570182E0A80EB11CA201BE01C50174
:101EB0003BDFA201B601C50137DF84E0281A3108F3
:101EC0002296A101BE01C701C5DEA101BE01C80164
:101ED000DF91CF911F910F91FF90EF90DF90CF9006
:101EE000BF90AF909F908F907F906F905F904F903A
:101EF0003F902F90AFCEDF91CF911F910F91FF9028
:101F0000EF90DF90CF90BF90AF909F908F907F9099
:101F10006F905F904F903F902F9008952F923F9237
:101F20004F925F926F927F928F929F92AF92BF92E9
:101F3000CF92DF92EF92FF920F931F93CF93DF9395
:101F4000CDB7DEB728970FB6F894DEBF0FBECDBF72
:101F50008C016B017901481759072CF4982F812FB8
:101F60008A01492F582FEC14FD042CF49C2D8D2D43
:101F70006701E92EF82E9A01201B310B38872F8339
:101F8000253031050CF459C0C7018C199D098530E5
:101F900091050CF452C09C01359527953A8329830D
:101FA000A12CB12C2F80388434E0231A3108280169
:101FB00082E0480E511C6F80788492E0691A7108A3
:101FC0004801EFEF8E1A9E0A96012F5F3F4F3C8328
:101FD0002B839701215031093E832D83A114B10435
:101FE00071F031E0A316B10491F4A3016B817C81FF
:101FF000C4019ADEA3016D817E81C40115C0A101D7
:10200000B601C20191DEA101B701C2010DC04F812D
:102010005885B5016C0D7D1DC80186DE4F81588540
:10202000B7016A197B09C8017FDE8FEFA81AB80AC9
:1020300029813A812A153B058CF628960FB6F8942B
:10204000DEBF0FBECDBFDF91CF911F910F91FF90EB
:10205000EF90DF90CF90BF90AF909F908F907F9048
:102060006F905F904F903F902F900895CF92DF92A6
:10207000EF92FF920F931F93CF93DF938C017B011D
:10208000EA01690180916802813069F480916D02F2
:1020900090916E029C01201B310B841B950BE60175
:1020A00069018B017C018091710290E08B31910577
:1020B00008F0D8C0FC018827E357FF4F8F4F0C94DE
:1020C0009732612F70E082E0D2D3B80183E0CFD3A2
:1020D0006D2F70E084E0CBD3BE0185E0C8D36F2DB7
:1020E00070E086E0C4D3B70187E0C1D36D2D70E006
:1020F00046C08AE276D3612F80E09DD3602F80E0D6
:102100009AD36D2F80E097D36C2F80E094D38BE22D
:1021100068D36F2D80E08FD36E2D80E08CD36D2D32
:1021200080E089D36C2D80E086D392C07C2F662717
:10213000600F711F84E49BD3B70185E498D3B60187
:1021400086E495D3B8018EE492D3B7018FE469C0D9
:1021500060E070E082E08BD3B80183E088D360E078
:1021600070E084E084D3BE0185E081D360E070E05C
:1021700086E07DD3B70187E07AD360E070E088E045
:1021800076D3B60189E04DC08AE22BD3802F3ED3AF
:102190008C2F3CD38BE225D38E2D57C08AE221D3DE
:1021A0008F2D34D38E2D32D38D2D30D38C2D2ED335
:1021B0008BE217D3812F2AD3802F28D38D2F26D3BC
:1021C0008C2F45C07C2F6627602B712B86E44FD364
:1021D000B60187E44CD3B70188E41DC0B80180E2A2
:1021E00046D3B70181E243D3B80180E540D3B701BC
:1021F00082E53DD3BE0181E53AD3B60183E511C046
:10220000BE0186E334D3B80187E331D3B60188E356
:102210002ED3B70189E32BD3B80180E228D3B701CD
:1022200081E225D382E215C08AE2DBD2812FEED291
:10223000802FECD28D2FEAD28C2FE8D28BE2D1D234
:102240008F2DE4D28E2DE2D28D2DE0D28C2DDED2D8
:102250008CE2DF91CF911F910F91FF90EF90DF9073
:10226000CF90BFC2DF91CF911F910F91FF90EF9060
:10227000DF90CF900895AF92BF92CF92DF92EF920E
:10228000FF920F931F93CF938C017B016A01590139
:1022900088EF8093640210926502C801ADDD60E0B2
:1022A0008091A702DED4E0919C02F0919D02C08152
:1022B0009091A202C92361E08091A702D2D4C111FA
:1022C00002C00BD5ECCF8FEF809364028093650240
:1022D0009501A601B701C801CF911F910F91FF9001
:1022E000EF90DF90CF90BF90AF9086CD20913602D7
:1022F0003091370224313105E4F4F901E85CFD4FF7
:1023000080832F5F3F4FF901E85CFD4F10823093CF
:1023100037022093360287E08093640280EE809338
:10232000650240EE50E060E070E088E392E00C94DB
:10233000750788EF809364021092650240EC50E0CC
:102340006EE077E288E292E00E94750764EF71E048
:1023500080E090E04BD640EC50E06EE077E28BE11D
:1023600092E00E94750764EF71E080E090E03ED655
:1023700040EC50E06EE077E288E292E00E94750760
:1023800064EF71E080E090E031D640EC50E06EE028
:1023900077E28BE192E00E94750787E08093640208
:1023A00080EE809365020895483009F448C118F41E
:1023B000413041F00895403109F457C1413109F4E9
:1023C00068C1089590917302943019F5E0917C02F0
:1023D000F0917D0290918602813019F48081982BD2
:1023E00003C08081909598239083E0917E02F091C4
:1023F0007F02908180918702809589238083E0917C
:102400007E02F0917F02908180918702892B8083E8
:102410000FC0E0917402F0917502909182028130B8
:1024200019F48081982B03C0808190959823908324
:10243000E0917C02F0917D0280918602908167FF9D
:1024400002C0892B02C0809589238083E0917E029F
:10245000F0917F029081809187028095892380830B
:10246000E0917E02F0917F02908180918702892B1A
:102470008083E0917C02F0917D02809186029081C0
:1024800066FF02C0892B02C0809589238083E0917A
:102490007E02F0917F02908180918702809589234E
:1024A0008083E0917E02F0917F029081809187028B
:1024B000892B8083E0917C02F0917D0280918602DD
:1024C000908165FF02C0892B02C08095892380839B
:1024D000E0917E02F0917F02908180918702809549
:1024E00089238083E0917E02F0917F029081809128
:1024F0008702892B8083E0917C02F0917D0280919C
:102500008602908164FF02C0892B02C080958923D6
:102510008083E0917E02F0917F029081809187021A
:10252000809589238083E0917E02F0917F029081E3
:1025300080918702892B8083E0917C02F0917D025B
:1025400080918602908163FF02C0892B02C0809532
:1025500089238083E0917E02F0917F0290818091B7
:102560008702809589238083E0917E02F0917F022B
:10257000908180918702892B8083E0917C02F09189
:102580007D0280918602908162FF02C0892B02C089
:10259000809589238083E0917E02F0917F02908173
:1025A00080918702809589238083E0917E02F0915B
:1025B0007F02908180918702892B8083E0917C0249
:1025C000F0917D0280918602908161FF02C0892B8B
:1025D00002C0809589238083E0917E02F0917F0282
:1025E000908180918702809589238083E0917E028B
:1025F000F0917F02908180918702892B8083E09106
:102600007C02F0917D0280918602908160FF02C081
:10261000892B02C0809589238083E0917E02F0910E
:102620007F02908180918702809589238083E09149
:102630007E02F0917F02908180918702CFC082B9A3
:10264000E0917602F09177029081809183028095EB
:1026500089238083E0917602F091770290818091C6
:102660008302892B808362B902C082B968B9E09184
:102670007602F09177029081809183028095892380
:102680008083E0917602F0917702908180918302BD
:10269000A5C0A59824B3982F9071990F922B94BB45
:1026A00090910201977E9093020190910201282F50
:1026B000082E000C330B207C332743E035952795FB
:1026C0004A95E1F7292B209302019EB1947C9EB993
:1026D0002EB1382F3C70330F330F982F9370390F72
:1026E0008072082E000C990B959587959595879586
:1026F000830F822B8EB9E0918002F091810290814C
:1027000080918802809589238083E0918002F091F6
:102710008102908180918802892B8083E0918002E0
:10272000F091810290818091880280958923808335
:10273000E0917802F09179029081809184028095F5
:1027400089238083A59894B3862F8071880F892B65
:1027500084BB80910201877E809302012091020157
:10276000862F062E000C990B807C992773E0959597
:1027700087957A95E1F7822B809302018EB1847C54
:102780008EB98EB1962F9C70990F990F262F2370BA
:10279000920F6072062E000C770B759567957595F4
:1027A0006795690F682B6EB9E0917602F091770218
:1027B000908180918302809589238083E0917602C5
:1027C000F0917702908180918302892B8083E09140
:1027D0007802F0917902908180918402892B808324
:1027E0000895682F80917202813069F0E09174023F
:1027F000F0917502208190918202909592239083AE
:102800004091720201C041E080E0CECD682F8091FE
:102810007202813069F0E0917402F091750280815A
:1028200090918202982B90834091720280E002C0C6
:1028300041E081E0B9CDCF9390917202913061F087
:10284000E0917402F0917502208190918202922BA6
:1028500090834091720209C0C62F682F41E081E049
:10286000A3DD409172026C2F81E0CF919DCDCF937B
:10287000DF931F921F92CDB7DEB769837A83B1DFF2
:1028800069817A81872F0F900F90DF91CF91D3CFFD
:102890002CE080E090E0880F991FE0919402F09185
:1028A0009502408130919E02342B3083E091940256
:1028B000F0919502408130919E023095342330830F
:1028C000E0919A02F0919B0240813091A102342361
:1028D00009F001962150F9F60895E0919402F091E3
:1028E0009502208190919E0290959223908328E0FA
:1028F000E0919802F09199029091A002308187FFB7
:1029000002C0932B02C0909593239083880FE0918F
:102910009402F0919502308190919E0290959323BC
:102920009083E0919402F0919502308190919E0203
:10293000932B90832150E1F608953FB7F89480914E
:10294000D0029091D102A091D202B091D30226B5CB
:10295000A89B05C02F3F19F00196A11DB11D3FBFD7
:10296000BA2FA92F982F8827820F911DA11DB11D65
:10297000BC01CD0142E0660F771F881F991F4A9561
:10298000D1F708953F924F925F926F927F928F920C
:102990009F92AF92BF92CF92DF92EF92FF920F93EE
:1029A0001F93CF93DF93CDB7DEB7E8970FB6F894B8
:1029B000DEBF0FBECDBF2B013C015EAB4DAB38AFD0
:1029C0002FAB611571058105910521F480E38983A1
:1029D0001A825BC097FF0BC070946094509440942F
:1029E000411C511C611C711C3324339401C0312CD7
:1029F0007E012CE1E20EF11C67018AE0882E912C09
:102A0000A12CB12CC301B201A50194010E947B321B
:102A100020E3260FF60121936F018F010E191F0984
:102A2000A3019201261B370B480B590BCA01B901B0
:102A3000A50194010E947B3229013A01232B242B0A
:102A4000252B01F7F701E00FF11F1082332011F061
:102A50008DE28983E32DF0E0C8018E0F9F1FD7011F
:102A6000A00FB11F41E050E04C0F5D1FE40FF51FB8
:102A7000AE15BF0519F02E912193FACFE1E0F0E0F9
:102A8000EC0FFD1FE80FF91F10824FA958AD6DA97B
:102A90007EA9CE0101960E947507E8960FB6F894BC
:102AA000DEBF0FBECDBFDF91CF911F910F91FF9081
:102AB000EF90DF90CF90BF90AF909F908F907F90DE
:102AC0006F905F904F903F900895CF92DF92EF927A
:102AD000FF920F931F93CF93DF93EC01803F9105FB
:102AE00024F07C01CFEED0E003C02FEEE22EF12CDB
:102AF000809172026701CC1ADD0A8031A1F5E09164
:102B00007802F091790290818091840280958923E6
:102B1000808397014FE351E0BE0180E090E0A6DAA8
:102B2000E0917402F0917502908180918202892B6C
:102B30008083C601DD0CAA0BBB0B9C01AD012F5F8E
:102B40003F4F4F4F5F4FA0E4B1E00E941D329B0109
:102B5000AC01E09165026E2F70E08091640290E01C
:102B60000E949B0C38C0883009F03FC090916402ED
:102B700080916502981339C0E0917802F091790252
:102B800090818091840280958923808397014FE30F
:102B900051E0BE0180E090E069DAE0917402F091CA
:102BA0007502908180918202892B8083C601DD0CA1
:102BB000AA0BBB0B9C01AD012F5F3F4F4F4F5F4FE7
:102BC000A0E4B1E00E941D32AB01BC01809164021F
:102BD00090E00E94CA09E0917802F0917902908118
:102BE00080918402892B808333C080916802811197
:102BF0001AC0D594C79400E010E0C016D10644F185
:102C0000B8016C0F7D1F4FE351E080E090E08CD85D
:102C1000B701601B710B4FE351E080E090E084D876
:102C20000F5F1F4FEACF00E010E08FE3E82EFF2494
:102C3000F394A601BE01C8010DD8A601BE01C701CB
:102C4000801B910B07D80F5F1F4F003A110589F7C2
:102C5000DF91CF911F910F91FF90EF90DF90CF9078
:102C60000895CF93DF9390E0FC01E853F24F249155
:102C7000FC01EE57F24F8491882361F190E0880FB8
:102C8000991FFC01E859F24FC591D491FC01E25B18
:102C9000F24FA591B491611109C09FB7F894888152
:102CA000209582238883EC912E230BC0623061F43F
:102CB0009FB7F8943881822F809583238883EC9185
:102CC0002E2B2C939FBF06C08FB7F894E8812E2B34
:102CD00028838FBFDF91CF9108952F923F924F921B
:102CE0005F926F927F928F929F92AF92BF92CF929C
:102CF000DF92EF92FF920F931F93CF93DF93CDB7A5
:102D0000DEB760970FB6F894DEBF0FBECDBFE0917F
:102D10009602F0919702908180919F02809589237D
:102D2000808360E08091A7029CDF00E010E0212C0E
:102D3000312C1D861E861F86188A2FE936E841E051
:102D400050E029873A874B875C87C12CD12C7601CC
:102D50002D833E834F835887412C512C3201198299
:102D60001A821B821C828091AD0290E0081719071D
:102D70000CF0A0C0E0919C02F0919D0290818091A6
:102D8000A202892309F093C080E9A7DDE0919402B3
:102D9000F0919502908180919E02892B8083E09131
:102DA0009402F0919502908180919E0280958923F2
:102DB00080836EDDE0919C02F0919D023081209134
:102DC000A202232309F073C04C01A12CB12C80ED89
:102DD00084DDE0919402F0919502908180919E02B1
:102DE000892B8083E0919402F091950290818091EB
:102DF0009E028095892380834BDDB501A40141505B
:102E00005109610971094F3F5F406105710508F083
:102E10004EC09C01215031092F3F3F4008F047C070
:102E2000A0E0B0E029813A814B815C81280D391DF9
:102E30004A1D5B1D29833A834B835C83480E591ED0
:102E40006A1E7B1E2091AD02263070F12D813E81DD
:102E50004F81588582169306A406B50620F48D820C
:102E60009E82AF82B886C814D904EA04FB0410F429
:102E70007501640129853A854B855C858217930726
:102E8000A407B50720F489879A87AB87BC872D856F
:102E90003E854F855889281739074A075B0720F474
:102EA0008D879E87AF87B88B3FEF231A330A0F5F5A
:102EB0001F4F59CF5301420149805A806B807C805B
:102EC00061E08091A702CDDE8091AD028630F8F0FE
:102ED0002D813E814F815885C20ED31EE41EF51E02
:102EE0004C185D086E087F0889859A85AB85BC857E
:102EF0002D853E854F855889820F931FA41FB51FCE
:102F0000881A990AAA0ABB0A32E0231A3108E0910A
:102F10009602F0919702908180919F02892B808385
:102F20008091AD0290E002972816390621F041E029
:102F300024163104C1F58091AC0290E0A0E0B0E02D
:102F40004091A8025091A9026091AA027091AB022F
:102F50006101330CEE08FF0884179507A607B70731
:102F600069F4C501B401A70196010E94593230935A
:102F7000910220939002C301B2010CC0C301B201BF
:102F8000A70196010E94593230939102209390023A
:102F9000C501B401A70196010E94593230939302F2
:102FA000209392020AC08FEF9FEF9093910280933B
:102FB0009002909393028093920260960FB6F894D9
:102FC000DEBF0FBECDBFDF91CF911F910F91FF905C
:102FD000EF90DF90CF90BF90AF909F908F907F90B9
:102FE0006F905F904F903F902F9008958F929F9297
:102FF000AF92BF92CF92DF92EF92FF926B017C0172
:103000009CDC4B015C01C114D104E104F104E9F042
:1030100094DCDC01CB0188199909AA09BB09883E17
:103020009340A105B10578F321E0C21AD108E10867
:10303000F10888EE880E83E0981EA11CB11CC11413
:10304000D104E104F10421F7DECFFF90EF90DF908F
:10305000CF90BF90AF909F908F9008951F920F9246
:103060000FB60F9211242F933F938F939F93AF939B
:10307000BF938091CC029091CD02A091CE02B091ED
:10308000CF023091CB0223E0230F2D3720F401969D
:10309000A11DB11D05C026E8230F0296A11DB11D7B
:1030A0002093CB028093CC029093CD02A093CE02CA
:1030B000B093CF028091D0029091D102A091D20220
:1030C000B091D3020196A11DB11D8093D0029093BF
:1030D000D102A093D202B093D302BF91AF919F913E
:1030E0008F913F912F910F900FBE0F901F901895C9
:1030F000CF93DF9300D01F92CDB7DEB7789484B51D
:10310000826084BD84B5816084BD85B5826085BDE3
:1031100085B5816085BD80916E00816080936E0071
:103120001092810080918100826080938100809163
:103130008100816080938100809180008160809314
:1031400080008091B10084608093B1008091B000D4
:1031500081608093B00080919100826080939100A3
:1031600080919100816080939100809190008160B6
:10317000809390008091A10082608093A100809153
:10318000A10081608093A1008091A0008160809364
:10319000A000809121018260809321018091210112
:1031A00081608093210180912001816080932001C2
:1031B00080917A00846080937A0080917A008260A6
:1031C00080937A0080917A00816080937A00809168
:1031D0007A00806880937A001092C10081E0809329
:1031E0006802E0917A02F0917B02908180918502E1
:1031F000892B808365E070E080E090E0F7DEE0916D
:103200007A02F0917B0290818091850280958923DA
:1032100080836FE070E080E090E0E8DEE0917A0289
:10322000F0917B02908180918502892B80836FE0F1
:1032300070E080E090E0DADEE0917802F0917902CF
:10324000908180918402809589238083809171028E
:1032500090E08B31910510F00C94C82BFC0188276D
:10326000EE58FF4F8F4F0C94973264EA70E086E47B
:10327000FEDA63E570E087E4FADA60E070E088E4A3
:10328000F6DA64E470E089E4F2DA64E070E08AE49B
:10329000EEDA67E670E08BE4EADA63E370E08CE490
:1032A000E6DA67E770E08DE4E2DA62E170E08EE48E
:1032B000DEDA6CE470E08FE4DADA66E470E080E590
:1032C000D6DA64E470E081E5D2DA60E070E082E0B2
:1032D000CEDA60E070E083E0CADA60E070E084E0BB
:1032E000C6DA6FEE70E085E0C2DA60E070E086E09A
:1032F000BEDA60E070E087E0BADA61E070E088E0B2
:10330000B6DA6FE370E089E0B2DA66E070E081E09F
:10331000AEDA68EC70E086E1AADA65E970E083E293
:10332000A6DA65E970E084E2A2DA6FEF70E085E288
:103330009EDA62E070E087E29ADA62E070E088E2AA
:1033400096DA62E070E089E292DA62E070E08AE2A6
:103350008EDA62E070E08CE28ADA62E070E08DE2A0
:1033600086DA61E070E08AE382DA60E070E08BE3A5
:103370007EDA60EF70E08CE37ADA60E070E08DE393
:1033800076DA61E070E080E090E030DE68E370E0E3
:1033900085E36DDA68E770E086E369DA68E370E098
:1033A0008EE365DA6FE070E080E461DA60EF70E090
:1033B00081E45DDA69E470E089E159DA6FE070E098
:1033C00083E955DA61E070E080E090E00FDE60E4D0
:1033D00070E080E24CDA67E070E08DE148DA60E0AE
:1033E00070E08EE144DA64E070E08FE140DA6DE491
:1033F00070E084E43CDA6EE070E085E438DA61E0A5
:1034000070E080E090E0F2DD64E070E08CE12FDAC3
:1034100062E070E080E090E0E9DD68E170E08BE17F
:1034200026DA61E070E080E090E0E0DD60E170E0ED
:103430008BE11DDA61E070E080E090E0D7DD60E8CC
:1034400070E083E414DA62E070E080E090E0CEDDCA
:103450006FE770E080E90BDA64E070E086E207DA9B
:1034600061E070E080E090E0C1DD64E270E086E25F
:10347000FED96CE270E086E2FAD961E070E080E0AB
:1034800090E0B4DD6CE370E086E2F1D962E070E0D8
:1034900087E5EDD961E070E085E9E9D960E070E0A9
:1034A00087E50C94A52989EE9CD960E280E0C3D918
:1034B00081E197D964E670E080E090E097DD81EDEE
:1034C00090D960E080E0B7D961E780E0B4D969E1E4
:1034D00080E0B1D980ED85D967E080E0ACD961E0CA
:1034E00080E0A9D968E080E0A6D986E37AD968E4CB
:1034F00080E0A1D98AE375D965E080E09CD981ECB0
:1035000070D960E180E097D960E180E094D962E011
:1035100080E091D962E080E08ED980EC62D960E0F1
:1035200080E089D965E380E086D960E080E083D9D6
:1035300060E080E080D961E080E07DD962E080E0F9
:103540007AD985EC4ED964E080E075D982ED49D90D
:1035500061E080E070D964E480E06DD988EC41D905
:1035600064E080E068D967E680E065D965E380E0E3
:1035700062D964E080E05FD968E080E05CD966E011
:1035800080E059D964E280E056D961E080E053D907
:1035900067E380E050D960E480E04DD963E080E0EB
:1035A0004AD960E180E047D968E080E044D960E82A
:1035B00080E041D960E080E03ED98AE212D960E043
:1035C00080E039D960E080E036D960E080E033D92E
:1035D0006FEE80E030D98BE204D960E080E02BD937
:1035E00060E080E028D961E080E025D96FE880E0E4
:1035F00022D90C94C22B61E070E080E038D964EAF3
:1036000078EA83E034D960E070E08CE030D96CE097
:1036100078E08DE02CD960E07BE28EE028D967EB82
:1036200070E08EE124D96FE37BE281E020D960E095
:1036300076E082E01CD960E070E080E118D960E7B4
:1036400070E681E114D960E070E085E010D960E0B7
:1036500070E086E00CD96CE17FEE86E108D963E08A
:1036600070E087E104D963E372E087E000D960E0AD
:1036700070E08BE0FCD860E070E08FE0F8D860E0AC
:1036800070E081E4F4D860E070E082E4F0D860E0BB
:1036900070E088E4ECD86FE371E089E4E8D860E09A
:1036A00070E08AE4E4D860E070E08BE4E0D860E0A9
:1036B0007FEE84E4DCD860E070E085E4D8D86FE386
:1036C00071E086E4D4D867E077E080E3D0D864E0A6
:1036D00072E081E3CCD864E072E082E3C8D862E0B3
:1036E00075E083E3C4D867E075E084E3C0D864E0A4
:1036F00072E085E3BCD864E072E086E3B8D862E0AB
:1037000075E087E3B4D862E073E08AE3B0D862E0A2
:1037100073E08BE3ACD860E070E083E2A8D860E0AF
:1037200070E084E2A4D860E070E885E2A0D860E0B0
:1037300070E08FE49CD860E070E08EE40C94A529E2
:1037400060EF78E785EE93D860E071E081E08FD894
:1037500060E077E082E08BD860E370E183E087D8B7
:1037600060E070E084E083D867E072E088E07FD8B2
:1037700060E070E089E07BD860E070E08AE077D8B4
:1037800060E070E08CE073D860E070E08DE06FD8AE
:1037900060E070E08FE06BD860E070E080E167D8B7
:1037A00067E070E081E163D860E070E082E15FD8BB
:1037B00060E070E083E15BD861E070E087E057D8BB
:1037C00068EC70E080E090E011DC60E970E180E19D
:1037D0004ED867E272E081E14AD862E370E080E0AF
:1037E00090E004DC6FE170E082E141D862E370E0D8
:1037F00080E090E0FBDB60E075E183E138D867E2D0
:1038000070E089E234D86DE070E08BE230D862E39A
:1038100070E080E090E0EADB60E070E080E227D8D2
:1038200060E070E081E223D860E070E080E31FD8C0
:1038300067E077E081E31BD867E073E082E317D8A5
:1038400060E072E085E313D868E070E086E30FD8AB
:1038500064E070E087E30BD860E070E088E307D8AD
:1038600067E077E089E303D862E070E08CE30E94D0
:10387000371464E07DE18DE30E94371460E070E06E
:1038800080E50E9437146FEE70E081E50E943714E6
:1038900060E070E082E50E9437146FE371E083E539
:1038A0000E94371460E077EA80E60E94371461E0F6
:1038B00070E081E60E94371460E070E08AE60E94C2
:1038C000371460E070E080E80E94371460E070E038
:1038D00081E80E94371460E070E082E80E943714AB
:1038E00060E070E083E80E94371460E070E084E8F4
:1038F0000E94371460E070E085E80E94371460E1B0
:1039000070E080E90E94371460E076E081C160EFEA
:1039100078E785EE0E94371460E071E081E00E9454
:10392000371460E072E082E00E94371460E370E1D7
:1039300083E00E94371460E070E084E00E94371456
:1039400067E072E088E00E94371460E070E089E090
:103950000E94371460E070E08AE00E94371460E053
:1039600070E08CE00E94371460E070E08DE00E940F
:10397000371460E070E08FE00E94371460E070E080
:1039800080E10E94371467E070E081E10E94371403
:1039900060E070E082E10E94371460E070E083E153
:1039A0000E94371461E070E087E00E94371468ECF1
:1039B00070E080E090E01ADB60E976E180E10E944F
:1039C000371467E272E081E10E94371462E370E02D
:1039D00080E090E00BDB6DE070E082E10E94371444
:1039E00062E370E080E090E001DB60E072E183E19F
:1039F0000E9437146AE070E089E20E9437146DE09B
:103A000070E07AC060EF78E785EE0E94371460E0DE
:103A100071E081E00E94371460E077E082E00E946C
:103A2000371460E370E183E00E94371460E070E0D7
:103A300084E00E94371467E072E088E00E94371447
:103A400060E070E089E00E94371460E070E08AE096
:103A50000E94371460E070E08CE00E94371460E050
:103A600070E08DE00E94371460E070E08FE00E940B
:103A7000371460E070E080E10E94371467E070E086
:103A800081E10E94371460E070E082E10E94371407
:103A900060E070E083E10E94371461E070E087E04D
:103AA0000E94371468EC70E080E090E09FDA60E9F3
:103AB00075E180E10E94371467E272E081E10E94C3
:103AC000371462E370E080E090E090DA6CE970E037
:103AD00082E10E94371462E370E080E090E086DAD1
:103AE00060E079E183E10E94371463E270E089E2EB
:103AF0000E9437146EE070E08BE20E94371462E39C
:103B000070E080E090E072DA60E070E080E20E94B5
:103B1000371460E070E081E20E94371460E070E0EA
:103B200080E30E94371464E074E081E30E9437145C
:103B300063E070E082E30E94371465E074E085E39F
:103B40000E94371468E078E086E30E94371467E04B
:103B500074E087E30E94371463E073E088E30E9417
:103B6000371467E077E089E30E94371464E075E07A
:103B70008CE30E94371468E078E08DE30E943714EC
:103B800060E070E080E50E9437146FEE70E081E540
:103B90000E94371460E070E082E50E9437146FE302
:103BA00071E083E50E94371460E077EA80E60E94C6
:103BB000371461E070E081E60E94371460E070E045
:103BC0008AE60E94371460E070E080E80E943714B3
:103BD00060E070E081E80E94371460E070E082E805
:103BE0000E94371460E070E083E80E94371460E0C0
:103BF00070E084E80E94371460E070E085E80E947D
:103C0000371460E170E080E90E94371460E070E0F2
:103C100082E90E94371463E371E087E00E94371461
:103C20000C94C82B64E870E086E20E94371468E2C6
:103C300070E080E090E0DAD968EB70E086E20E9404
:103C4000371468E270E080E090E0D0D96CEB70E06F
:103C500086E20E94371464E170E080E090E0C6D90B
:103C600060E070E080E60E94371466E070E081E674
:103C70000E94371460E070E082E60E94371468EC1E
:103C800070E083E60E94371464E170E080E090E029
:103C9000ADD960E770E083E70E94371460E070E020
:103CA00080E40E94371460E470E081E40E943714DD
:103CB00065E470E082E40E94371461E070E083E420
:103CC0000E94371460E670E084E40E94371465E0D7
:103CD00070E085E40E9437146CE070E086E40E9496
:103CE000371461ED70E087E40E94371465E070E0FE
:103CF00088E40E94371465E770E080E50E9437147D
:103D000061E070E081E50E94371467E670E082E5CB
:103D10000E94371464E170E083E50E94371462EF7B
:103D200070E084E50E94371467E070E085E50E944A
:103D3000371463E070E086E50E94371469E470E0B0
:103D400087E50E94371464E170E080E090E04ED98E
:103D500063E070E08FE10E94371460E070E080E281
:103D60000E94371464E270E084E20E94371464E336
:103D700070E085E20E9437146FE270E083E20E94F7
:103D8000371464E170E080E090E030D964E470E0E2
:103D900088E10E94371461E070E081E20E943714EC
:103DA00060E070E081E00E94371463E070E08CE135
:103DB0000E94371466E070E089E10E94371464E1E4
:103DC00070E080E090E012D964E870E086E20E9442
:103DD000371468E270E080E090E008D968EB70E0AA
:103DE00086E20E94371468E270E080E090E0FED83E
:103DF0006CEB70E086E20E94371464E170E080E0D2
:103E000090E0F4D860E070E082E00E94371460E057
:103E100070E083E00E94371460E070E084E00E946C
:103E200037146FEA70E085E00E94371460E070E0BC
:103E300086E00E94371460E070E087E00E9437144B
:103E400060E070E088E00E9437146BED70E089E07C
:103E50000E94371464E170E080E090E0C7D868E029
:103E600070E086E10E94371465E070E087E10E940F
:103E7000371481E20E94F1130C94A72981EC0E946F
:103E8000F1138FEF0E94061483E80E94061480E469
:103E90000E94061481E10E94F11364E670E080E064
:103EA00090E0A4D88AEC0E94F11380E70E940614E7
:103EB00080E00E94061489ED0E94061481E00E94B1
:103EC000061481E10E94061489EC0E94F11380E936
:103ED0000E94061489E40E94061480E10E940614E0
:103EE00088E20E94061488E20E94061480E10E9483
:103EF000061480E00E94061486E00E94061464E125
:103F000070E080E090E072D882EC0E94F11380E6CD
:103F10000E94061481E70E94061481E00E940614A4
:103F20008EE00E94061485E00E94061482E00E9442
:103F3000061489E00E94061481E30E9406148AE0B8
:103F40000E94061483EC0E94F11387E60E94061477
:103F500080E30E94061481E60E94061487E10E9415
:103F6000061488E40E94061487E00E94061485E087
:103F70000E94061483E30E9406146AE070E080E069
:103F800090E034D885EB0E94F11385E30E9406147B
:103F900080E20E94061485E40E94061484EB0E94CD
:103FA000F11383E30E94061485E20E9406148CE458
:103FB0000E9406146AE070E080E090E017D88AE37F
:103FC0000E94F11385E00E94061489E20E94F11319
:103FD0006AE070E080E090E009D88AE20E94F11384
:103FE00080E00E94061480E00E94061480E00E9497
:103FF00006148FEA0E9406148BE20E94F11380E0FF
:104000000E94061480E00E94061480E00E940614BC
:104010008BED54C681E10E94F1136CE070E080E00A
:1040200090E00E94F61781EB0E94F11381E00E945C
:1040300006148CE20E9406148DE20E94061482EBA4
:104040000E94F11381E00E9406148CE20E94061483
:104050008DE20E94061483EB0E94F11381E00E941E
:1040600006148CE20E9406148DE20E94061481E080
:104070000E9406148CE20E9406148DE20E9406142F
:1040800084EB0E94F11387E00E94061480EC0E94EA
:10409000F11382EA0E94061482E00E94061484E86A
:1040A0000E94061481EC0E94F11385EC0E94061414
:1040B00082EC0E94F1138AE00E94061480E00E94C4
:1040C000061483EC0E94F1138AE80E9406148AE227
:1040D0000E94061484EC0E94F1138AE80E940614E0
:1040E0008EEE0E94061485EC0E94F1138EE00E9471
:1040F000061486E30E94F11388EC0E94061480EEF9
:104100000E94F1138FE00E9406148AE10E940614B7
:104110008FE00E94061488E10E9406148FE20E943C
:10412000061488E20E94061480E20E94061482E2CD
:104130000E9406148FE10E9406148BE10E9406146F
:1041400083E20E94061487E30E94061480E00E9426
:10415000061487E00E94061482E00E94061480E1A3
:104160000E94061481EE0E94F1138FE00E94061453
:104170008BE10E9406148FE00E94061487E10E94E2
:10418000061483E30E9406148CE20E94061489E25E
:104190000E9406148EE20E94061480E30E94061418
:1041A00080E30E94061489E30E9406148FE30E94B4
:1041B000061480E00E94061487E00E94061483E043
:1041C0000E94061480E10E9406148AE20E94F11304
:1041D00080E00E94061480E00E94061480E00E94A5
:1041E00006148FE70E9406148BE20E94F11380E010
:1041F0000E94061480E00E94061480E00E940614CB
:104200008FE90E94061480EF0E94F11381E00E9462
:10421000061486EF0E94F11380E00C94822A81E05C
:104220000E94F11385E20E94F11380E40E940614BB
:1042300081E10E94F1136AE070E080E090E00E946A
:10424000F61780E20E94F11388E30E94F11389E2DD
:104250000E94F11383E10E94F11386E30E94F1139F
:1042600080E60E9406148AE30E94F11385E00E9412
:1042700006148AE20E94F11380E00E9406148FE780
:104280000E94061484EB0E94F11383E00E9406143E
:1042900088E00E9406148BE00E9406148EE00E94C3
:1042A00006148AEB0E94F11387E00E9406148DE049
:1042B0000E9406148BE20E94F11380E00E94061413
:1042C0008FE7FCC481E10E94F11383E10E94F113A6
:1042D00089E20E94F11380EB0E94F11385E00E94B5
:1042E000061480E00E94061480EF0E9406148AE003
:1042F0000E94061481E40E94061482E00E940614C3
:104300008AE00E94061480E30E94061481E30E9462
:10431000061486E30E94061487E30E94061480E4D4
:104320000E94061482E00E9406148FE30E94061485
:1043300080E40E94061482E00E94061481E80E9434
:10434000061484E00E94061485E00E94061484E6A8
:104350000E9406148CEF0E94F11388E80E94061454
:1043600080E00E94061480E10E94061481E00E9411
:10437000061481E00E94061480E10E94061482E483
:104380000E94061482E40E94061482E20E9406142F
:1043900081E10E94061481E10E94061482E20E94DB
:1043A000061489E90E9406148AEA0E9406148AEA21
:1043B0000E9406148AEA0E9406148BEB0E940614DF
:1043C0008BEB0E9406148AEA0E94061483E30E9483
:1043D000061483E30E94061481E10E94061481E022
:1043E0000E94061481E00E94061481E00E940614D7
:1043F00080E00E94061480E00E94061480EC0E9477
:10440000061480E00E94061480E00E94061480E0FA
:104410000E94061480E00E9406148DEF0E94F113A2
:1044200088E80E94061480E00E94061480E10E9441
:10443000061481E00E94061481E00E94061480E1C7
:104440000E94061482E40E94061482E40E9406146C
:1044500082E20E94061481E10E94061481E10E941A
:10446000061482E20E94061489E90E9406148AEA70
:104470000E9406148AEA0E9406148AEA0E94061420
:104480008BEB0E9406148BEB0E9406148AEA0E94B2
:10449000061483E30E94061483E30E94061481E15C
:1044A0000E94061481E00E94061481E00E94061416
:1044B00081E00E94061480E00E94061480E00E94C1
:1044C000061480E00E94061480E00E94061480E03A
:1044D0000E94061480E00E94061483E00E940614E5
:1044E0008EEB0E94F11380E00E94061485E10E9489
:1044F000061486E10E94061488E00E94061489E0F2
:104500000E94061485E10E94061480E10E940614B0
:1045100080E00E94061480E00E94061480E00E9461
:10452000061480EC0E94F1138EE00E94061481E0D4
:104530000E94061480E00E94061480E00E94061487
:1045400080E00E94061481EC0E94F1138FE20E9429
:10455000061483E20E94061484EB0E9406148FEF77
:104560000E94061484E20E94061483E00E9406144E
:1045700080E20E94061482E00E94061482E00E94FB
:10458000061482E00E94061480E20E94061480E273
:104590000E94061480E00E94061482EC0E94F1132F
:1045A00083E00E94061486E20E94F11388E00E94D4
:1045B000061485E30E94F11386E30E94F11384E65A
:1045C0000E9406148AE30E94F11385E00E940614FB
:1045D0008AE20E94F1136FE381E00E941B148BE2D8
:1045E0000E94F1138FEE0E9406148CE20E94F113D8
:1045F0008DE20E94F11310E0812F0E9406141E5FCD
:104600001034D1F710E0812F0E9406141F5F103480
:10461000D1F710E0812F0E9406141E5F1034D1F7ED
:104620000C94C82B83E80E94F11382E00E940614C8
:1046300085E80E94F11383E00E9406148BE80E9433
:10464000F11381E00E9406148CE80E94F11383E9C3
:104650000E94061481E90E94F11381E00E94061471
:1046600083E80E94F11380E00E9406148EE30E940A
:10467000F11380EB0E9406148FE30E94F11383E094
:104680000E94061480E40E94F11380E10E94061447
:1046900081E40E94F11386E50E94061482E40E94E0
:1046A000F11383E10E94061483E40E94F11386E46F
:1046B0000E94061484E40E94F11383E20E9406140F
:1046C00085E40E94F11386E70E94061486E40E94A6
:1046D000F11380E00E94061487E40E94F1138EE536
:1046E0000E94061488E40E94F1138FE40E940614CD
:1046F00089E40E94F11380E40E94061487E10E947D
:10470000F11381E90E9406148BE20E94F11389EFF4
:104710000E9406146AE070E080E090E00E94F617C4
:104720008BE10E94F11384E10E9406148AE10E9449
:10473000F11381E10E9406148CE10E94F11386E0DE
:104740000E9406148FE10E94F11382E40E94061475
:1047500064E170E080E090E00E94F61789E10E9439
:10476000F1138AE00E94061489E10E94F1138AE1A4
:104770000E94061468E270E080E090E00E94F61764
:1047800089E10E94F11382E10E94061468E270E060
:1047900080E090E00E94F6178EE10E94F11387E21C
:1047A0000E94061464E670E080E090E00E94F61734
:1047B00084E20E94F11380E60E9406148DE30E94B9
:1047C000F11380E40E94061484E30E94F11388E34D
:1047D0000E94061485E30E94F11388E30E940614E8
:1047E00084E20E94F11388E30E94061468E270E0FC
:1047F00080E090E00E94F61784E20E94F1138CE3BF
:104800000E94061486E10E94F1138CE10E940614B6
:1048100081E00E94F11386E00E94061485E50E9463
:10482000F11380E00E94061482E00E94F11380E000
:104830000E94061483E00E94F11380E00E94061497
:1048400084E00E94F11380E00E94061485E00E943B
:10485000F1138FEE0E94061486E00E94F11380E0AF
:104860000E94061487E00E94F11380E00E94061463
:1048700088E00E94F11381E00E94061489E00E9402
:10488000F1138FE80E94061462C582EE0E94F113B4
:1048900083E20E94061482E00E94061484E50E94CE
:1048A000061480EE0E94F11381E00E9406146AE073
:1048B00070E080E090E00E94F61780EE0E94F11315
:1048C00083E00E9406146AE070E080E090E00E94BD
:1048D000F61781E00E94F11364E670E080E090E05A
:1048E0000E94F61786EE0E94F11381E00E940614E2
:1048F0008FE10E9406148FEF0E94061480EB0E9445
:10490000F11380E20E94061480E00E94061481E008
:104910000E9406148FED0E94061481E00E94061486
:104920008FE00E94061480E00E94061484EB0E942F
:10493000F11382E00E94061483E10E94061480E0D5
:104940000E94061488E00E9406148BE20E9406145E
:1049500080E00E94061482E00E94061480E00E941B
:10496000061486EB0E94F11381E00E94061480E297
:104970000E94061480E00E94061484E00E9406143F
:104980008CE00E94061480E00E94061482E00E94DF
:1049900006148AEB0E94F1138FE00E94061488EB44
:1049A0000E94F11387E00E94061481E00E94061421
:1049B00086E30E94F11382E20E94061480EF0E94B7
:1049C000F11383E00E94061461E070E080E090E063
:1049D0000E94F6172FE031E04FED51E04DC182EE1D
:1049E0000E94F1138EE10E94061482E00E940614D8
:1049F00084E50E94061480EE0E94F11381E00E947B
:104A000006146AE070E080E090E00E94F61780EE05
:104A10000E94F11383E00E9406146AE070E080E0D7
:104A200090E00E94F61781E00E94F11364E670E0C6
:104A300080E090E00E94F61786EE0E94F11383E07A
:104A40000E9406148FEF0E9406148FEF0E94061436
:104A500080EB0E94F11384E20E94061480E00E9421
:104A6000061483E00E9406148FE10E94061481E080
:104A70000E9406148FED0E94061480E00E94061426
:104A800084EB0E94F11383E00E94061480EA0E94E6
:104A9000061480E00E9406148EE20E94061480E351
:104AA0000E94061480E00E9406148FE00E94061403
:104AB00080E00E94061486EB0E94F11382E00E94BF
:104AC00006148DE00E94061480E00E94061480E126
:104AD0000E94061480E10E94061480E00E940614E1
:104AE00088E00E9406148AEB0E94F1138FE00E9476
:104AF000061488EB0E94F11387E00E94061481E0FF
:104B00000E94061486E30E94F11382E20E940614BA
:104B100080EF0E94F11383E00E94061461E070E0D0
:104B200080E090E0A3C082EE0E94F11383E20E9435
:104B3000061482E00E94061484E00E94061480EEAF
:104B40000E94F11381E00E9406146AE070E080E0A8
:104B500090E00E94F61780EE0E94F11383E00E941D
:104B600006146AE070E080E090E00E94F61781E0B1
:104B70000E94F11364E670E080E090E00E94F61776
:104B800086EE0E94F11384E00E94061483E90E94DD
:104B9000061480EE0E94061480EB0E94F11380E060
:104BA0000E94061480E00E94061483E00E9406140E
:104BB0008FE10E94061481E00E9406148FED0E948E
:104BC000061480E00E94061484EB0E94F11383E037
:104BD0000E94061480EA0E94061480E00E940614D7
:104BE0008EE20E94061480E30E94061480E00E9478
:104BF00006148FE00E94061480E00E94061486EBE3
:104C00000E94F11382E00E9406148DE00E940614B7
:104C100080E00E94061480E10E94061480E10E9458
:104C2000061480E00E94061488E00E9406148AEBB5
:104C30000E94F11385E00E94061488EB0E94F11394
:104C400087E00E94061481E00E94061486E30E9419
:104C5000F11382E20E94061480EF0E94F11383E0B8
:104C60000E9406146AE070E080E090E00E94F6176F
:104C70002FED31E04FE153E060E070E080E090E044
:104C80000E94361089E20E94F1138EEB0E94F1130C
:104C900086E00E94061480EF0E94061481E00E94C4
:104CA000061480EF0E94061480E00E94061480E043
:104CB0000E94061480ED0E94F1138DE00E940614FC
:104CC00064C564E070E281E10E94371460E07CEC2E
:104CD00083E10E94371460E076E285E10E94371498
:104CE0006AE275E284E10E94371463E370E082E1D6
:104CF0000E94371464E07CEC83E10E94371466E084
:104D00007CEC83E10E9437146FE47CEC83E10E9429
:104D100037146FE477E683E10E94371463E070E2B2
:104D200081E10E94371469E076E280E30E94371443
:104D30006CE274E281E30E94371463E27FE182E374
:104D40000E94371465E274E283E30E94371466E23E
:104D500072E284E30E94371463E275E285E30E9405
:104D600037146AE17CE186E30E9437146DE173E158
:104D700087E30E94371461E17BE088E30E943714E7
:104D800060E172E189E30E94371465E173E18AE32F
:104D90000E94371469E176E38BE30E94371460E0E8
:104DA0007DE08CE30E9437146DE070E08DE30E949B
:104DB000371467E070E086E10E94371463E170E029
:104DC00082E00E94371463E070E083E00E943714B1
:104DD00067E271E081E00E94371463E073E088E0ED
:104DE0000E9437146BE070E08AE00E94371463E0A1
:104DF00070E08BE00E94371460E070E08CE00E946D
:104E0000371460E070E081E40E94371460E070E0E5
:104E100080E50E94371465E070E080E60E94371458
:104E20006BE070E080E70E94371460E070E081E79B
:104E30000E94371460E070E088E70E94371460E059
:104E400070E08AE70E94371467E070E089E70E940B
:104E5000371461E570E087E00E94371463E570E085
:104E600087E00E94371460E070E089E76EC260E07E
:104E700070E885EE0E94371461E070E080E00E94E7
:104E8000371460E071E081E00E94371460E077E061
:104E900082E00E94371460E370E183E00E943714DF
:104EA00060E070E084E00E94371462E072E088E025
:104EB0000E94371460E070E089E00E94371460E0DF
:104EC00070E08AE00E94371460E070E08CE00E949D
:104ED000371460E070E08DE00E94371460E070E00D
:104EE0008FE00E94371460E070E080E10E94371488
:104EF00067E070E081E10E94371460E070E082E1D9
:104F00000E94371460E070E083E10E94371462E38E
:104F100070E080E090E00E94F61760EB77E180E1BE
:104F20000E94371467E070E081E10E9437146AE064
:104F300070E080E090E00E94F6176AE371E082E1A1
:104F40000E9437146AE070E080E090E00E94F6175B
:104F500060E07AE183E10E9437146CE070E089E25E
:104F60000E9437146AE070E080E090E00E94F6173B
:104F700060E070E080E30E94371465E075E081E353
:104F80000E94371464E070E082E30E94371466E008
:104F900070E085E30E94371467E077E086E30E94C3
:104FA000371465E071E087E30E94371462E070E037
:104FB00088E30E94371467E077E089E30E943714A2
:104FC00064E077E08CE30E94371467E078E08DE3DB
:104FD0000E94371460E070E080E50E9437146FEEA5
:104FE00070E081E50E94371460E070E082E50E9485
:104FF00037146FE371E083E50E94371460E077E2D5
:1050000080E60E94371461E070E081E60E94371468
:1050100060E070E08AE60E94371460E070E081E2B0
:105020000E94371460E070E080E20E94371460E074
:1050300070E080E80E94371460E070E081E80E9430
:10504000371460E070E082E80E94371460E070E09E
:1050500083E80E94371460E070E084E80E9437140F
:1050600060E070E085E80E94371460E170E080E95C
:105070000E94371460E070E082E90E94371463E018
:1050800070E083E90E94371460E171E085E90E94D5
:10509000371460E070E087E90E94371460E070E048
:1050A00088E90E94371463E771E087E00E943714B3
:1050B00062E370E080E090E0D5C281E10E94F113EC
:1050C00064E170E080E090E00E94F61780ED0E94BD
:1050D000F11387E00E94061482E40E94061488E11E
:1050E0000E94061481ED0E94F11380E00E940614D4
:1050F00087E00E94061480E10E94061482ED0E945F
:10510000F11381E00E94061482E00E94061480ECF4
:105110000E94F11380E10E9406148BE30E940614A2
:1051200080E00E94061482E00E94061481E10E9441
:10513000061485EC0E94F11383E00E94061488ECAB
:105140000E94F11380E00E94061482E30E9406147C
:1051500086E30E94061485E40E94061486E00E94FD
:10516000061486E10E94061487E30E94061485E770
:105170000E94061487E70E94061484E50E94061424
:105180008CE00E94061480E00E94061486E30E94D0
:10519000F1138AE00E9406148AE30E94F11385E568
:1051A0000E9406148AE20E94F11380E00E94061415
:1051B00080E00E94061481E00E9406148FE30E94A2
:1051C00006148BE20E94F11380E00E94061480E036
:1051D0000E94061481E00E94061480EE0E940614CC
:1051E00068E770E080E090E00E94F61793C16AE102
:1051F00070E081E10E94371461E271E382E10E9474
:1052000037146CE670E083E10E94371469E472E4BD
:1052100084E10E94371460E078E080E10E94371456
:105220006AE070E080E090E00E94F6176AE171E0C9
:1052300081E10E9437146AE070E080E090E00E9413
:10524000F6176AE173E081E10E9437146AE070E0CA
:1052500080E090E00E94F6176AE177E081E10E9429
:1052600037146AE070E080E090E00E94F6176AE18F
:105270007FE081E10E9437146AE070E080E090E016
:105280000E94F6176AE37FE081E10E9437146EE125
:1052900070E080E090E00E94F6176CE171E081E040
:1052A0000E94371460E071E082E00E94371460E3EE
:1052B00070E183E00E94371460E070E087E00E94B4
:1052C000371468E078E088E00E94371460E071E10C
:1052D0008BE00E94371460E070E08CE00E9437148D
:1052E00061E074E18FE00E94371460E070E085E1D6
:1052F0000E94371460E070E080E20E94371460E0A2
:1053000070E081E20E9437146FEA70E086E30E9449
:10531000371460E070E087E30E9437146BED70E0B3
:1053200088E30E94371460E070E089E30E9437143C
:1053300061E07BE08FE00E94371466E170E087E077
:105340000E94371467E170E087E00E94371482E220
:105350001DC281E10E94F11368E770E080E090E0F7
:105360000E94F61781EB0E94F11385E00E9406145B
:105370008CE30E9406148CE30E94061482EB0E94C8
:10538000F11385E00E9406148CE30E9406148CE35E
:105390000E94061483EB0E94F11385E00E9406141C
:1053A0008CE30E9406148CE30E94061485E00E94A0
:1053B00006148CE30E9406148CE30E94061484EB0E
:1053C0000E94F11383E00E94061480EC0E94F11306
:1053D00088E20E94061488E00E94061484E00E947D
:1053E000061481EC0E94F11380EC0E94061482ECFA
:1053F0000E94F1138DE00E94061480E00E940614C2
:1054000083EC0E94F1138DE80E9406148AE20E9448
:10541000061484EC0E94F1138DE80E9406148EEEAF
:105420000E94061485EC0E94F1138AE10E94061482
:1054300086E30E94F11380EC0E94061480EE0E9425
:10544000F11383E00E94061482E20E94061487E0B2
:105450000E9406148AE00E9406148EE20E9406143E
:1054600080E30E94061485E20E9406148AE20E94EC
:10547000061488E20E94061486E20E9406148EE258
:105480000E9406148AE30E94061480E00E9406141B
:1054900081E00E94061483E00E94061483E10E94CA
:1054A000061481EE0E94F11384E00E94061486E146
:1054B0000E94061486E00E9406148DE00E940614E5
:1054C0008DE20E94061486E20E94061483E20E9486
:1054D000061487E20E94061487E20E94061485E201
:1054E0000E9406148DE20E9406148BE30E940614AB
:1054F00080E00E94061481E00E94061484E00E946D
:10550000061483E10E9406148AE30E94F11385E0E9
:105510000E94061489E23AC181E10E94F11364E11C
:1055200070E080E090E00E94F61788E20E94F1139C
:1055300065E070E080E090E00E94F6178FEC0E943A
:10554000F11380E00E94061483E80E94061480E3B1
:105550000E9406148DEE0E94F11384E60E94061448
:1055600083E00E94061482E10E94061481E80E94F2
:10557000061488EE0E94F11385E80E94061481E06B
:105580000E94061489E70E9406148BEC0E94F11316
:1055900089E30E9406148CE20E94061480E00E94B7
:1055A000061484E30E94061482E00E94061487EF2A
:1055B0000E94F11380E20E9406148AEE0E94F11309
:1055C00080E00E94061480E00E94061480EC0E9495
:1055D000F11386E20E94061481EC0E94F11381E12E
:1055E0000E94061485EC0E94F11385E30E940614C4
:1055F0008EE30E94061487EC0E94F1138EEB0E944A
:10560000061481EB0E94F11380E00E9406148BE1E6
:105610000E94061486EB0E94F1138AE00E94061491
:1056200082E80E94061487E20E94061480E00E942D
:10563000061487EB0E94F11387E00E9406148AE3A8
:105640000E94F11385E50E94061486E30E94F1137F
:1056500088E40E94061489E20E94F11365E070E07C
:1056600080E090E00E94F61793C08BEC0E94F1134B
:1056700089E30E9406148CE20E94061480E00E94D6
:10568000061484E30E94061482E00E9406148FEC44
:105690000E94F11380E00E94061481EC0E9406141F
:1056A00080E30E94061488EE0E94F11385E80E94B0
:1056B000061480E00E94061488E70E9406148AEE11
:1056C0000E94F11380E00E94061480E00E940614FC
:1056D0008DEE0E94F11384E60E94061483E00E947E
:1056E000061482E10E94061481E80E94061487EFE6
:1056F0000E94F11380E20E94061480EC0E94F113D4
:1057000083E20E94061481EC0E94F11380E10E9462
:10571000061485EC0E94F1138EE30E94061488E2C1
:105720000E94061487EC0E94F11386E80E9406147A
:1057300086E30E94F11388E40E9406148AE30E9423
:10574000F11385E50E94061481EB0E94F11380E0BD
:105750000E94061488E10E94061486EB0E94F11351
:1057600088E00E94061482E80E94061487E20E94E4
:10577000061481E10E94F11368E770E080E090E098
:105780000E94F61789E20E94F1138CE20E94F11345
:10579000E0917802F0917902908180918402892BC6
:1057A00080838FEF8093640280936502109266027B
:1057B0001092670210928F0210928A021092890250
:1057C000E0917802F0917902908180918402809535
:1057D000892380830E943E0780917202813049F0C4
:1057E000E0917402F0917502908180918202892B80
:1057F0008083E09172024091690250916A02609147
:105800006B0270916C0280916D0290916E02A0917A
:105810006F02B0917002E031B1F49A01AB012F5FD9
:105820003F4F4F4F5F4FBC01CD016F5F7F4F8F4F99
:105830009F4F1CD69B01AC0160E070E080E090E0DF
:105840000E949B0C53C0E830A1F49A01AB012F5F7A
:105850003F4F4F4F5F4FBC01CD016F5F7F4F8F4F69
:105860009F4F04D6AB01BC0180E090E00E94CA09C2
:105870003DC0C12CD12C76018091690290916A02C1
:10588000A0916B02B0916C029C01AD012F5F3F4F64
:105890004F4F5F4F80916D0290916E02A0916F0209
:1058A000B0917002BC01CD016F5F7F4F8F4F9F4F52
:1058B000DDD5C616D706E806F906C4F44091720293
:1058C000413019F060E080E009C041E060E081E033
:1058D0000E94D4114091720260E081E00E94D411D4
:1058E0000FEFC01AD00AE00AF00AC6CFE0917802A2
:1058F000F0917902908180918402892B808381E0EC
:105900008093AC021092A8021092A9021092AA02EF
:105910001092AB0281ED97E0A0E0B0E08093BB0273
:105920009093BC02A093BD02B093BE0283EF97E0B8
:10593000A0E0B0E08093BF029093C002A093C102A8
:10594000B093C20289E797E0A0E0B0E08093C30281
:105950009093C402A093C502B093C60286E397E079
:10596000A0E0B0E08093C7029093C802A093C90260
:10597000B093CA028FED91E0A0E0B0E08093AF0257
:105980009093B002A093B102B093B2028FE193E082
:10599000A0E0B0E08093B3029093B402A093B5026C
:1059A000B093B6028AE08093AD028091A302282FC3
:1059B00030E0F901EE57F24FE491F0E0EE0FFF1FF7
:1059C000E25BF24F459154915093950240939402BB
:1059D000F901E853F24FE491E0939E022091A40272
:1059E00030E0F901EE57F24FE491F0E0EE0FFF1FC7
:1059F000E25BF24F45915491509397024093960287
:105A0000F901E853F24FE491E0939F022091A5023F
:105A100030E0F901EE57F24FE491F0E0EE0FFF1F96
:105A2000E25BF24F45915491509399024093980252
:105A3000F901E853F24FE491E093A0022091A6020D
:105A400030E0F901EE57F24FE491F0E0EE0FFF1F66
:105A5000E05BFE4F4591549150939B0240939A0214
:105A6000F901E853F24FE491E093A1022091A702DB
:105A700030E0F901EE57F24FE491F0E0EE0FFF1F36
:105A8000E05BFE4F4591549150939D0240939C02E0
:105A9000F901E853F24FE491E093A20261E00E9421
:105AA000311661E08091A4020E94311661E080917C
:105AB000A5020E94311660E08091A6020E94311674
:105AC00061E08091A7020E943116E0919602F09168
:105AD0009702908180919F02892B8083E0919402AC
