:100000000C942B520C945C520C945C520C945C52E9
:100010000C945C520C945C520C945C520C945C52A8
:100020000C945C520C945C520C945C520C945C5298
:100030000C945C520C945C520C945C520C945C5288
:100040000C945C520C945C520C945C520C945C5278
:100050000C945C520C945C520C945C520C94C561F0
:100060000C945C520C945C520C945C520C945C5258
:100070000C945C520C945C520C945C520C945C5248
:100080000C945C520C945C520C945C520C945C5238
:100090000C945C520C945C520C945C520C945C5228
:1000A0000C945C520C945C520C945C520C945C5218
:1000B0000C945C520C945C520C945C520C945C5208
:1000C0000C945C520C945C520C945C520C945C52F8
:1000D0000C945C520C945C520C945C520C945C52E8
:1000E0000C945C52B6678569DC6AF96B646D646D6B
:1000F000846F1D715D7765721274977444794C7AC0
:10010000917C917CDC6ABB7DBB7DDC6A4E7B4B7F46
:100110000C6E43802D81AF83A282475D655D8C5D4F
:10012000FE5DFE5DFE5DA25D2F5E475D2F5EC55DDF
:100130002F5ED35DD35DF05DF05D8C5DFE5DFE5D99
:100140008C5DD35D2F5EFE5D155E2F5E2F5E2F5E94
:10015000000020002300260029002C002F00320080
:10016000000100000301060109011010205F0000DA
:10017000000000000000000000000000000000007F
:10018000000000000000000000000000000000006F
:10019000000007000F800F800F800F800F80070086
:1001A0000700000000000700070007000000000033
:1001B0000E380E380E380E380630000000000000F1
:1001C000000000000000000000000000000000002F
:1001D0000C300C300C307FFE7FFE0C300C300C30BD
:1001E0000C307FFE7FFE0C300C300C300000000025
:1001F000024002400FF81FF81A401A401FF00FF893
:10020000025802581FF81FF0024002400000000090
:10021000000000000E100E300E7000E001C00380E0
:1002200007000E700C700870000000000000000055
:1002300000000F001980198019800F000F080F9817
:1002400019F818F018E019F00F98000000000000ED
:1002500000000700070007000E000000000000007B
:10026000000000000000000000000000000000008E
:10027000000000F001C0038007000E000E000E0019
:100280000E000700038001C000F000000000000025
:1002900000000F00038001C000E0007000700070DB
:1002A000007000E001C003800F00000000000000AB
:1002B000000001801188099007E007E03FFC3FFC47
:1002C00007E007E0099011880180000000000000AD
:1002D0000000000000000180018001800FF00FF09D
:1002E000018001800180000000000000000000008B
:1002F00000000000000000000000000000000000FE
:10030000000000000700070007000E0000000000CA
:100310000000000000000000000000001FF81FF8AF
:1003200000000000000000000000000000000000CD
:1003300000000000000000000000000000000000BD
:100340000000000007000700070000000000000098
:10035000000000020006000E001C0038007000E0E3
:1003600001C0038007000E001C0000000000000018
:1003700000000FF01C381C781CF81CF81DB81DB8C4
:100380001F381F381E381C380FF000000000000016
:1003900000000180018003801F801F800380038094
:1003A00003800380038003801FF000000000000032
:1003B00000000FE01C701C380038007000E001C025
:1003C000038007000E381C381FF8000000000000F2
:1003D00000000FE01C701C380038007003C003C020
:1003E000007000381C381C700FE000000000000096
:1003F000000000E001E003E006E00CE018E01FF878
:100400001FF800E000E000E003F80000000000003A
:1004100000001FF81C001C001C001C001FE01FF047
:10042000007800381C381C700FE00000000000004D
:10043000000003E007000E001C001C001FF01FF866
:100440001C381C381C381C380FF00000000000005D
:1004500000001FFC1C1C1C1C1C1C001C0038007015
:1004600000E001C003800380038000000000000062
:1004700000000FF01C381C381C381F3807E007E05C
:100480001CF81C381C381C380FF00000000000005D
:1004900000000FF01C381C381C381C381FF80FF8EF
:1004A00000380038007000E007C0000000000000C5
:1004B00000000000000003800380038000000000B3
:1004C00003800380038000000000000000000000A3
:1004D0000000000000000380038003800000000093
:1004E000038003800380070000000000000000007C
:1004F000007000E001C0038007000E001C001C001B
:100500000E000700038001C000E000700000000042
:1005100000000000000000003FFC3FFC0000000065
:100520003FFC3FFC00000000000000000000000055
:100530001C000E000700038001C000E00070007086
:1005400000E001C0038007000E001C000000000056
:1005500003C00FF01E7818380038007000E001C0AA
:1005600001C00000000001C001C001C00000000087
:100570000FF81C1C1C1C1C1C1C1C1CFC1CFC1CFC4C
:100580001CFC1C001C001C001FF007F800000000F1
:10059000000003C007E00E701C381C381C381C38E3
:1005A0001FF81C381C381C381C38000000000000E4
:1005B00000001FF00E380E380E380E380FF00FF016
:1005C0000E380E380E380E381FF000000000000004
:1005D000000007F00E381C381C001C001C001C001A
:1005E0001C001C001C380E3807F000000000000042
:1005F00000001FE00E700E380E380E380E380E3820
:100600000E380E380E380E701FE00000000000009B
:1006100000001FF80E180E080E000E300FF00FF03D
:100620000E300E000E080E181FF80000000000002B
:1006300000001FF80E180E080E000E300FF00FF01D
:100640000E300E000E000E001F0000000000000023
:10065000000007F00E381C381C381C001C001C0061
:100660001CF81C381C380E3807F800000000000089
:1006700000001C701C701C701C701C701FF01FF0A0
:100680001C701C701C701C701C70000000000000AE
:1006900000000FE003800380038003800380038059
:1006A00003800380038003800FE00000000000004F
:1006B000000001FC0070007000700070007000709D
:1006C00038703870387038700FE00000000000009B
:1006D00000001E380E380E700EE00FC00F800F8025
:1006E0000FC00EE00E700E381E3800000000000033
:1006F00000001F000E000E000E000E000E000E0087
:100700000E000E080E180E381FF800000000000042
:1007100000001C1C1E3C1F7C1FFC1FFC1DDC1C9CC5
:100720001C1C1C1C1C1C1C1C1C1C000000000000B1
:1007300000001C1C1C1C1E1C1F1C1F9C1DDC1CFC08
:100740001C7C1C3C1C1C1C1C1C1C00000000000011
:10075000000003E007F00E381C1C1C1C1C1C1C1C99
:100760001C1C1C1C0E3807F003E0000000000000F9
:1007700000001FF00E380E380E380E380FF00FF054
:100780000E000E000E000E001F0000000000000012
:10079000000003E00F780E381C1C1C1C1C1C1C1CC9
:1007A0001C7C1CFC0FF80FF8003800FC0000000057
:1007B00000001FF00E380E380E380E380FF00FF014
:1007C0000E700E380E380E381E3800000000000083
:1007D00000000FF01C381C381C381C000FE007F01C
:1007E00000381C381C381C380FF0000000000000D6
:1007F00000001FFC19CC11C401C001C001C001C020
:1008000001C001C001C001C007F0000000000000ED
:1008100000001C701C701C701C701C701C701C7004
:100820001C701C701C701C700FE0000000000000A9
:1008300000001C701C701C701C701C701C701C70E4
:100840001C701C700EE007C0038000000000000058
:1008500000001C1C1C1C1C1C1C1C1C1C1C9C1C9C10
:100860001C9C0FF80FF807700770000000000000D4
:1008700000001C701C701C700EE007C00380038019
:1008800007C00EE01C701C701C700000000000000F
:1008900000001C701C701C701C701C700EE007C0E7
:1008A00003800380038003800FE00000000000004D
:1008B00000001FF81C381838107000E001C00380D9
:1008C00007000E081C181C381FF80000000000006C
:1008D000000007F0070007000700070007000700F7
:1008E000070007000700070007F0000000000000F5
:1008F0000000100018001C000E000700038001C05B
:1009000000E000700038001C00070000000000003C
:10091000000007F000700070007000700070007040
:10092000007000700070007007F000000000000010
:10093000018003C007E00E701C38000000000000BA
:1009400000000000000000000000000000000000A7
:100950000000000000000000000000000000000097
:10096000000000000000000000007FFF7FFF00008B
:1009700000001C001C000700070000000000000031
:100980000000000000000000000000000000000067
:10099000000000000000000000000FE00070007088
:1009A0000FF01C701C701C700FD8000000000000BD
:1009B00000001E000E000E000E000FF00E380E3864
:1009C0000E380E380E380E381BF000000000000004
:1009D000000000000000000000000FE01C701C7010
:1009E0001C001C001C701C700FE0000000000000C8
:1009F000000000F80070007000700FF01C701C7098
:100A00001C701C701C701C700FD8000000000000CF
:100A1000000000000000000000000FE01C701C70CF
:100A20001FF01C001C701C700FE000000000000094
:100A3000000003E007700770070007001FE01FE0D9
:100A400007000700070007001FC0000000000000AB
:100A5000000000000000000000000FD81C701C7097
:100A60001C701C700FF007F000701C700FE000008D
:100A700000001E000E000E000E000EF00F380F38A2
:100A80000E380E380E380E381E38000000000000F8
:100A9000000001C001C001C000000FC001C001C0C2
:100AA00001C001C001C001C00FF80000000000003B
:100AB0000000007000700070000003F00070007013
:100AC00000700070007000701C700CF007E00000F7
:100AD00000001E000E000E000E000E380E700EE01C
:100AE0000FC00EE00E700E381E380000000000002F
:100AF00000000FC001C001C001C001C001C001C0A1
:100B000001C001C001C001C00FF8000000000000DA
:100B1000000000000000000000001FF81C9C1C9C4E
:100B20001C9C1C9C1C9C1C9C1C9C0000000000002D
:100B3000000000000000000000001FE01C701C709E
:100B40001C701C701C701C701C70000000000000E9
:100B5000000000000000000000000FE01C701C708E
:100B60001C701C701C701C700FE000000000000066
:100B7000000000000000000000001BF00E380E38DE
:100B80000E380E380E380FF00E000E001F00000059
:100B9000000000000000000000001FB038E038E056
:100BA00038E038E038E01FE000E000E001F000004D
:100BB000000000000000000000001EF00FF80F38D9
:100BC0000E000E000E000E001F00000000000000CE
:100BD000000000000000000000000FE01C301C308E
:100BE0000F8003E0187018700FE000000000000094
:100BF000000000000100030007001FF007000700CD
:100C0000070007000770077003E000000000000005
:100C1000000000000000000000001C701C701C7030
:100C20001C701C701C701C700FD8000000000000AD
:100C3000000000000000000000001C701C701C7010
:100C40001C701C700EE007C0038000000000000054
:100C5000000000000000000000001C1C1C1C1C1CEC
:100C60001C9C1C9C0FF8077007700000000000001F
:100C7000000000000000000000001CE01CE00FC0AD
:100C8000078007800FC01CE01CE00000000000008F
:100C9000000000000000000000000E380E380E3882
:100CA0000E380E3807F003E000E001C01F8000009E
:100CB000000000000000000000001FE018E011C06C
:100CC000038007000E201C601FE0000000000000F1
:100CD000000001F803800380038007001C001C0053
:100CE000070003800380038001F80000000000007B
:100CF00001C001C001C001C001C001C001C001C0EC
:100D000001C001C001C001C001C001C0000000005D
:100D100000001F8001C001C001C000E000380038A1
:100D200000E001C001C001C01F8000000000000001
:100D300000001F1C3B9C39DC38F80000000000005C
:100D400000000000000000000000000000008A8594
:100D50008A85AA85AA85AA8DAA8DAA8DAA8DAA8D13
:100D6000CA8DCA8DAA8DAA8DCA95CB95AA8DAA8D3A
:100D7000AA8DAA8DCB95EB9D0B9EEB9DEA95EA95EE
:100D8000EA95EA95EA95EA95EA95EA95EB95EA956A
:100D9000EA9D0B9E2BA60AA6E99DE99DE995C995BA
:100DA000E9950A964BA66BAE4BAE4BAE4BAE4BAE37
:100DB0002AAE2AAE2AAE2AAE2AAE4BAE4BAE4BAE10
:100DC0002BAE4BAE6BAE6CB66BB66AB66BAE6BB69B
:100DD0006BAE4BAE4BAE2AA60AA62BA64BAE6CAEA4
:100DE0006BAE2BAE0AA60AA64AAE6BAE6BB6AA8550
:100DF000AA85AA85AA85CA8DCA8DAA8DAA8DAA8D13
:100E0000CA8DCA8DAA8DAA8DCA95CB95CB95CA9548
:100E1000CA95CA95EB950B9E0B9EEB9DEA95CA95DC
:100E2000CA95C995C995CA95CA95CA8DCA95CA95D4
:100E3000EA9D2BA62BA60AA6E99DC895C895A88D64
:100E4000C895E9952A9E4BA64BAE2AAE2AAE2AAE8D
:100E50000AA62AAE4BAE4BAE4BAE4BAE6BAE4BAE14
:100E60002BAE4BAE4BAE6BB66BAE4AAE4AAE4AAE95
:100E70004AAE4AAE2AA6E9A5EAA52AA64BAE6CAEB2
:100E80006BAE4BAE2AA62AA64BAE6BB66BB6AB8545
:100E9000AB85AA85AA85AA85AA85AA85AA8DAA8DC9
:100EA000CA8DCA8DCA8DCA8DCA95CA95EB95EB9528
:100EB000EB95EB950B9E0B9E0B9EEA9DCA95EA95D2
:100EC000C995C995C98DC98DC98DC98DC995EA9531
:100ED000EA9D2AA62AA62AA6E99DC89DC895C89576
:100EE000E89D299E4AA64AAE4AAE4AAE2AAE0AA656
:100EF0000AA62AAE4BAE4BAE6BAE6CB68CB64BAE02
:100F00004BAE4BAE4BB64AB64AAE49AE4AAE4AAE0F
:100F10004AAE2AAE0AA6E9A5E99D0AA64BAE6BAE7B
:100F20006BAE4BAE2BAE2AAE4BAE4BAE6BB6CB859B
:100F3000CB85CB85CB85AA858A858A858A85AA8D2E
:100F4000CA8DCA8DCA8DCA8DCA8DCA95CA95EA95B1
:100F50000B960B9E0B9E0B9EEB95EA95CA95C99539
:100F6000C995C995C98DC98DC98DC995E9950A9E3F
:100F70000AA62AA62AA62AA6E99DE99DE99DE89D3A
:100F8000099E29A649AE4AAE4AAE4AAE2AAE0AA684
:100F90000AA62AA64BAE6BAE6BB68BB68BB66BB6FB
:100FA0006BB66BB66AB64AB64AB649B66AB66AB6A0
:100FB0006AB64AAE2AAE09A609A62AAE6BAE6BAED9
:100FC0006BAE4BAE2AAE2AA62AAE4BAE4BAECB8D45
:100FD000CB8DCB8DCB8DAA858A8569856985AA85C0
:100FE000AA85CA8DCA8DCA8DCA8DCA8DCA95EA9541
:100FF0000A9E0B9E0B9EEB9DEB95CA95A98DA98D24
:10100000A995C995E995E995E9950A9E0A9E2AA6AA
:101010002AAE4BAE4BAE2AA60AA609A629A609A659
:1010200029A649AE49AE49AE4AAE4AAE4AAE2AA654
:101030000AA62AA64BAE6BAE8BB68BB68BB68BBE12
:101040008BBE6BB66BB66AB64AB66AB66AB66AB695
:101050006AB64AB64AAE2AAE2AAE4AAE6BAE6BAE9E
:101060004BAE2AAE0AA6E9A50AA62AAE4BAECA8D99
:10107000CA8DCA8DCA8DAA85AA858A858A85AA85C0
:10108000AA85AA8DCA8DCA8DAA8DC98DC995EA95E2
:101090000A9E0B9E0B9EEB9DEB95CA95A98DA98D83
:1010A000C995EA9D0A9E0A9E0A9E2AA62AA64AAECB
:1010B0004AAE4AAE4BAE6BAE4BAE4AAE4AAE49AE4E
:1010C00049AE49B649B669B66AB66AB66AAE2AAEDC
:1010D0000AA62AAE4AAE6AB68BB68BBE8BBE8BBE54
:1010E0008BBE8BB66BB66AB64AB66AB66AB66BB6D4
:1010F0006AB66AB66AB64AAE4AAE4AAE4AAE6AAE98
:101100004AAE2AAE09A609A62AAE4AAE6BAECA8D71
:10111000A98DA985AA85AA8DAA85AA85AA85AA8549
:10112000AA85AA85CA8DCA8DC98DA98DC995E9954B
:101130000A9E0A9E0B9E0A9EEB9DEA9DCA95EA9521
:10114000EA9D0A9E2AA62AA62AA62AA64BAE4AAE3F
:101150004AAE4BAE4BAE6BAE4BAE4BAE4BAE6AB681
:101160004AB649B649B669B64AAE4AAE6AAE4BAE61
:101170004BAE4AAE6AB66BB68BBE8BBE8BBE8BBE19
:101180008BBE8BBE6BB66BB66BB66BB66BB68BBEDF
:101190008BB66BB66BB66AB64AAE4AAE4AAE6AAEAC
:1011A0004AAE4AAE4AAE4AAE4AAE6AAE6AB6C98DD9
:1011B000A98D89858985A985AA8DCA8DCA8DAA8D93
:1011C000AA85AA8DCA8DCA8DC98DA98DC995E99D9B
:1011D0000A9E2AA60A9E0B9E0B9E0B9E0B9E0B9EA2
:1011E0000B9E0A9E0A9E0AA62AA62AA62AAE2AAE06
:1011F0006BAE6BB64BAE0A9EEA9D2AA66BAEABBE3B
:101200008ABE6AB66ABE6AB66AB66AAE6BAE6BB6BC
:101210004BAE6AB68BB68BB68BBEABBEABBE8BBECF
:101220008BBE8BBE8BBE8BB66BB66BB66BB68BB6FE
:101230006BB66AB66AB66AB66AB66AAE6AB64AAEDD
:101240004AAE4AAE6AAE6AAE6AAE6AAE6AAEE985C8
:10125000C8858985A985AA8DCB8DEB95EB95EA95F7
:10126000EA95EA95EA95C995A98DAA95CA950A9E27
:101270002A9E2A9E09A60AA62BA62CAE0CA62CA650
:10128000EC9D0B9E0A9E2A9E09A62AA62AAE6BBE3C
:101290000CAEAA7C6C6C2C644D64AF746D6C2964CC
:1012A0008B8DCCBE6AB64BBE4CBE4BB66CB64BAE4D
:1012B0004BAE8CB68CB68BB68BB68BBEACBE8CBE32
:1012C0008CBE8CBE8CBE8CB66CB66CAE8CB68CB63E
:1012D0008CB68CB68CB68BB68BB66BB66AB66AB665
:1012E0004AAE49AE4AAE4AAE6AB669B649AEC9859B
:1012F000A9858985AA85AB8DCB8DEB95EB950A9653
:101300000A960A960996E995C995C995EA950A96A5
:101310000A9E2A9E0AA62AA62BA62CA62DA62CA695
:101320002CA60B96EA952B9E2BA60BA64DAE4B8DAD
:101330000543A9538E746E740D6C8F7C5295AE7CF0
:101340000A64CA7C8FAE6DAE6CAE8BA68CAE8DB6C9
:101350006DB66DB66DB68DB68DBE8DBE8CB68DBEBE
:101360008DBE8DBE8DB66CB66CAE6DAE6DB68DB6E7
:101370008DB6ADB68CB68CB68CB66BB66BB64AAEC7
:101380004AAE4AAE4AAE4AAE4AAE4AAE4AAEAA7D6E
:101390008A7D8A7DAB85AB85CC8DEC8DEC950B96EB
:1013A0000A960A9E2A9E0996E995E995EA95EB9593
:1013B0000B9E0B9E0B9E2BA64CA64DA64DA60C9EDF
:1013C0000C9EEB95EB952C9E0C9E6FB6CA84033257
:1013D000AB6B71AD50AD30B50B94EDAC0DAD2EAD2A
:1013E000B0BD6B84CB8C6EB64CA66DAE8EAE4EAEE1
:1013F0006EAE6EB66EB64DB66EB6AEBE8EBE8EBE5E
:101400008EBEAEB68EB66EAE4DAE6DAE6DAE8EB657
:101410008EB68EB68DB68DB68CB66CB66BB64AAE41
:101420002AAE4AAE4AAE4AAE4BAE4BAE4BAEAA7DEA
:101430008A7D8A7D8B7DAC85AC85CC8DEC95EC95D9
:101440000B960B960B960B96EA95EA95EB95EC9519
:10145000EC950C9E2C9E2CA62CA64DA64D9E2D9E4A
:101460000C960C960C9E0D9E2FA64D95C029687368
:101470000FB5E99B87930BA42BACE89B4583A69300
:10148000868BCCACC8836C9D90BE50BE0FAE6FB641
:101490006FAE6FAE8FAE4EAE6EB6AFB66EB68FB6E7
:1014A0008FB6AFB68EB66EAE6EAE4EA64EAE6FB601
:1014B0006EB68EB68EB68EB68DB66DB66CB64BAEBB
:1014C0002BAE2BAE4BAE4BAE4BAE4CAE4CAE8A7D84
:1014D0008B7DAB7DAB7DAB85AC85CC85CD8DED8D2E
:1014E000ED95EC95EC95EC95EC95CC95CC95EC9533
:1014F000ED950D960C9E0C9E2D9E2D9E2D9E0D966F
:101500000D96EC95CC95CD9531AEC54280296C9C5D
:10151000C993878B4783E76AED8B4B7BA96208737E
:10152000287BE76ACA7BA5428F9D71B670B68FAEE5
:101530008FAE8FB68EAE6EAE6EAEAFB6AFB6AFB686
:10154000AFB68FB68FAE6EAE4EAE4EA64EA64FAEB7
:101550006FAE6FB68FB68EB68EB66DB66DAE4CAE44
:101560004CAE4CAE4CAE4CAE4CAE4CAE4CAE8A7D9E
:10157000AA7DAB7DAB7DAB7DAC7DAC85CD85EE8DA5
:10158000EE8DED8DED8DCD8DCD8DCD8DCD8DED8D0A
:10159000ED950D960D960D9E0D9E2D9E2E9E4E9EAA
:1015A0002E9E2E9EAD95EFA5CC84E01066524A7B10
:1015B000676A876AC76A4E947094CF7BB29C4C73FB
:1015C000A962A85AAB7B4642654210AE90B66FB690
:1015D0006FAE8FB66FAE6FAE8FB66EAE6FAE8FB6AC
:1015E0008FB68FAE6EAE4EAE4EA64EAE4EAE4EAE79
:1015F0004EAE6EAE8FAE8FB68FB66EB64EAE4DAEF1
:101600004DAE4DAE4DAE4DA64DA64DA64DA6AA7DF6
:10161000AA7DAB85AB85AB7DAB7DAC85CD85ED8DF6
:10162000ED8DCD8DCD85CD8DCD8DCC8DCC8DEC95AD
:10163000EC950C96ED95ED950D960E960E9E2F9EC3
:101640000E9EEE95AD95F0AD0653A010A85AEA7A1D
:101650000762EA722F9CED8B2E9490A4CE8B13AD73
:1016600034B5AD832E94C962A020855290ADB3BE2F
:1016700072B671B650AE70AE91B64FAE90B64FAE78
:101680004FAE6FAE6FAE4EAE4EAE6EAE6EAE4EAEF7
:101690006EAE6EAE6EAE8FB68FB68FB66EAE6EAEEF
:1016A0004EAE4EAE4DA62DA64DA66DA64DA68A7D7C
:1016B000AB85AB85AB85AB7DAB7DCC85ED85ED8D0D
:1016C000ED8DCD85CC85AC85CB85CB8DCB8D0C962A
:1016D0000C96EC95ED95ED95ED950E960F9E2F9E43
:1016E00050A6EE9D6D8DCC846021A010A75AEB8B87
:1016F000CB8B6FA4F3B471AC71AC71ACB3B498C5BF
:101700005BDEF9CD719C886202316339264AAA6397
:10171000CD8453B6B4BE73B6D0A50C854D8DEFA560
:101720002FA66FAE6FAE6EAE6EAE6EAE8FB66EAEF5
:101730006EAE6EAE6EAE8FAE8FB68FB66FB66FAE4C
:101740004EAE4EA64DA62DA64DA64DA64DA6697D24
:101750008A7DAB85AB85AB858C7DAC85ED85ED85D4
:10176000ED85CC85AC85AB85AB85CB8DEC952B9E83
:101770002B9E4CA62BA62C9E2C9E4D9E6EA68FAE0D
:10178000EFA5CE94A85A8A62E428A118E6494B7BBB
:10179000CD9B90C4F2CC53D5D1BCCE9BCEA310B47C
:1017A000D3C4DAEE58D6CA72C330A541685A485A33
:1017B0004862EB721094128C9173716B7063F173C9
:1017C000149D319D8EA56EB6ADB6AEB6AEAE8EAEE4
:1017D0006EAE8DAE6DAE8FB690BE70B691B670B671
:1017E00050AE4EAE4EA64DA64DA64EA64EAE497577
:1017F0006A7DAB85AA85AB85AB85CC85ED8DED8DFE
:10180000CD85CC85EC8DAA85CB8D0B960B964BA602
:101810006CAEAD9DEC8C4C7CCC6B2E74F294ED7365
:10182000C852C862E4496241013980288349E8729C
:101830008FB4D1C4F2D4D1CC74D557E617DEB5D568
:1018400095D570A495CD50A4A1286441E64984396A
:101850004331854107522B73EA6A5094308CF08BE8
:10186000939CB4A414ADCF94CD8CCE9DAFB6AFB63F
:101870004EAE6EB6AEBE6EB66EB6B0BE90B66FAEC3
:101880006FAE6EAE6EAE4DA64DA64EAE6EAE6B7525
:101890008B7DAB85CA85AA85AA85CC85ED8DED8D1E
:1018A000CD8DEC8DEC8DCB8DCA8D2C9E2DA6CD9D36
:1018B000E86B49632C634F6B2F6B2F6B506B2A4A7D
:1018C000452984390552255A62498130C238298B0D
:1018D000AFBCC98A6C9B98F6F2B42F8C7094D5C5B6
:1018E00017DE8559856150AC023943396010486371
:1018F000EB7BE7492D7BAA6AAE93EE9B0E9C50A42E
:101900000F9CEF9B14BDD3ACEF8BE95A4B7C30B6E8
:1019100090BE6EB68EBE8EB68EB68EB66EB66EAEFD
:101920006EAE6EAE6DAE6DAE4DA64EAE6EAE8C7D35
:101930008B7DAB7DAA85AA85AA85CC8DCC8DEC8DBF
:10194000EC95CB8DAB8D0D9E2FA64D8D4B74AC6B56
:101950002C63AE73118CF083D0832E6B6F736F7317
:10196000294AA639E2206339C549E330C2308B9356
:10197000EDA3E250D2CCF3BC109C14B5F7CDBAE67F
:10198000D6CDA2300762D2B4A12844412231696B7E
:10199000A7526952E951AC72B0932E8BCF9B50ACD9
:1019A000E97A288310C5AFB4EE9BEB72CA6AEA7B72
:1019B000CFAD70BE8FBECFBE6DB6AEB68EB66EAEBC
:1019C0006DAE6DAE6DAE4DA64DA64EA64EAE8B7DE8
:1019D0008B7D8B7D8B7D8A7DAB85CB8DEC95EB8D67
:1019E0000C960C9E0D9E2D8D2B74E9524C6B4D73F5
:1019F0000F944F9C4B7B6C7BCF8BF18BAC62907BBD
:101A0000AC62294A6531E2206431E1282018887AE5
:101A10000FB445616972B9DEDEF7DBE6B7CDF9DDFB
:101A20005AEE6A7256CD92ACA12864392B6B6B6B5F
:101A3000A110064A2439CB72EC7AAB6A8E8B509C8B
:101A400081282139087BEA9B2CAC6B93A872296B07
:101A50000A7C72C670C68FBE8EB66DAE6EAE6DAEAF
:101A60004DA62DA62DA62C9E2DA62E9E2EA68B7D98
:101A70008B7D6B7D6B7D8B7DAB85EB8DEB8D2C9E9C
:101A8000EC9DEE9D0C8D896BA85ACB62EC72AD93E8
:101A900090B4CFB46662A4492C7B72A42D83085AFB
:101AA000EF93CA6AC228C220E328A1206018E2305E
:101AB00071AC8EA3897A54C5D6CDD3BC11AC73B4A6
:101AC000F9DD1CEFDBE62C73E12822298E948E8C45
:101AD000C0108339A449CA72E759EA6A2F94285280
:101AE00000082018C13029836DB46EB4C982465AEB
:101AF000E8620A8431BE70BE8FB6AFB68EAE6EAEEF
:101B00002DA60C9EEC9DEC9D0D9E0D9E0E9EAB7D1C
:101B10008B7D8B7D8C7DAC7DCC85EB8DEC8DEC95C0
:101B2000EE9D8B7CAA736B73A9622B7BCD9B0EAC55
:101B30000983A451802002290E8CAC830A7B434187
:101B40002A7B0A73A1288120C220611061184018E5
:101B5000C65170B44FB4D0BCF1BC12BD2FACF0ABC9
:101B6000F5CCF8DDB6C5264A822980190D8D32B62E
:101B7000A129413122392762E659A86AB0A4064A50
:101B8000201081204018E4512A838B93887A4441A5
:101B90000652244A0D9D90BE6FB64EAE8EAE6EAE0E
:101BA0002DA60C9EEC9DEC9D0D9E0D960D968B7DAD
:101BB0008B7D8B7D8C7DCC85EC850B8E0C8EEE9594
:101BC0000D852853AD7BC9622B834DAC2CA4C77AFD
:101BD000C03020106008A4290D74AB73E862023194
:101BE0004C83896AA120C120632980088008C2181B
:101BF000A118676A8FC42DBCAFCCF0C44EACCE9B8D
:101C000092BC18DE0F944229C96B8A74AE95F5C652
:101C1000C74A43312339A872877226628C8BEA72D5
:101C20004439223180208020634926622662A651F1
:101C3000A549A239676B91C68FB66EAE6EAE6EAE19
:101C40002DA60CA60C9E0C9E2C9E2C9E2C968C7D5C
:101C50008C7DAA75CB7DEB7DEC85ED8DCD95AF9D13
:101C6000A96B444A0552C551EA822EACAC9BC549CA
:101C700020108130A138A138C6596C83886242395E
:101C8000AC8BA74961204231A439A0188010A01064
:101C9000021902212A6BB0A412BDB1BC2FAC2FAC2B
:101CA00054CD70A4C541412105534B854FAE52BE62
:101CB000896B82398339E749CA6A633944526EAD08
:101CC00030B66C8D6E9D6452245AE7824572E56190
:101CD000A551633986520FB68FB66FAE6EAE4DA664
:101CE0004CA62CA62CA62CA62CA62DA60D9E8B7D34
:101CF0008B7DAB7DCB85AB85CC85CC8DCD952D8D6E
:101D00000332C3398339A449266283514241801882
:101D10000021C23926634A844B8C6A730652C5512E
:101D2000AD936449C1288231454A8431A1184018D5
:101D3000033102310231E6490B730F94D2ACF3AC9C
:101D40006D7BE649C120C0184221C3312542E0180D
:101D5000C0206239A3414131054AC441086B6EA5D8
:101D60004FB670AE91BE6A8C8562498BA87A677255
:101D7000C551844182392C9D8FBE4EAE6EAE4DA6AC
:101D80002CA62BA60BA60BA62CA62CA62DA66B85E7
:101D90008B85CB8DCB85AB85CB85AB8DCE954B74B1
:101DA000C2296229423143390652C030A020265B45
:101DB000897C4A8D4DAE8DAE8B95E552054AAD8B33
:101DC0006C83C0282131454A25422329A12060285F
:101DD00022412562C451834142396439895A074AF4
:101DE000E6416331A018A018601800100008C3284D
:101DF0008120E128213121314552E762C97B0FB6AC
:101E00002EAE0C9E4EAEEB94C562E87AC87A67722D
:101E1000A55184414131466370BE6FB64DAE4CAEA4
:101E20002BA62BA60BA62BA62BA62CA64CA68A8DE2
:101E30008A85AA8DAA85AA85AB858B85CE9DE96BFF
:101E4000822942296339C549A549223981316C8DDE
:101E50004C9E4B9E2AA6099ECBA54D9D496BE96AD7
:101E6000633901216329C018C1180231C1304141D1
:101E70008249856AE77A2783698B667225622662C2
:101E8000055A8341C0288018401081182431C64962
:101E9000C549A44923390231E0288873EFB54EB60D
:101EA0004CAE6CAE4DAEEB946452087BA87A676A78
:101EB000C5518441423180314D9D8FBE4DAE6CAED7
:101EC0004CAE2BA60AA60AA62AA62BA62BA6AA8546
:101ED000AA85AA7D8A7DAA7DAB858B85AE95C64AEB
:101EE000E12022314339065AA549223903426A8545
:101EF000E98DE89509A6E9AD2DB6EC948229C118C3
:101F0000A120E128801820084010C1206239C45166
:101F1000E351A672A67AC682CAABC9AB2793867A6A
:101F2000256AC55902398020A1206339E449A449B2
:101F30000652265AE6514341E128C020666B8DBE09
:101F40006BB64BAE8DB64B9D624AE872A8722662A4
:101F5000065AC54942394029A76B4FBE2CAE4CAE3C
:101F60002BA62BA60A9E0A9E0A9E2AA62BA6A98508
:101F7000CA858A7D69758A7D8A7DAC8D0B856121D4
:101F8000E22023314441E559E5594341244A4B9528
:101F9000EA9D29AE4AB64CB6687C0011C118E32808
:101FA000C230A030C138C228A120A018222964491B
:101FB0008451A87A098BA782C78A689B89A3E78284
:101FC000476AE6592441A230A228A449C972C972BD
:101FD000065A05520452C5514341E1288010255B41
:101FE000AFC68DB66CB6CCAD8352A76A686A06627E
:101FF000065AC55184416239434ACDAD2CB62BAE49
:102000000BA60B9E0A9E0A9E0A9E0AA60A9EA985F8
:10201000AA856A7D6A758A7D8A85EC95A663C0105B
:10202000E2282339A549466283416239244A4B9507
:10203000EAA509A66CBE887CE010E0182331444173
:1020400024414349634902318120C120E2304341A8
:102050008451266AC98A6A9B8AA36A9B6A9B6A938F
:10206000C97A276285496441033903398549496240
:10207000896A455AA349C55164492339E12860104A
:1020800027634FBE90C60C9502426662A872476AEB
:102090002662E6590652A541C239CA944DB60BA62E
:1020A0000BA60B9E0A9E0A9E0A9E0A9EEA9DA98581
:1020B000697D497D6A7D8B7D8B85CC95613AC010A9
:1020C0000329A128A551055282412131A552CC9D59
:1020D0000A9E8BAE298D2019E020E12843396349FF
:1020E0008449C54963396439C228013942494241AA
:1020F0004562656AA67A69930CAC6A9BABA38B9325
:10210000E87A866AE451C449E551E751A651A651DF
:102110002862C96A465AA4512349454124390129F4
:102120000021C2396C8CC97320210352045A666A9B
:10213000886A886A896A8962C341A56B0CAEEBA57F
:10214000EB9DEB9D0A9E0A9E0A9EEA9DEA9D88757C
:10215000687D69856985A885CB95AB8C2021012197
:10216000C0202339065AE659C4490131434ACC9D5F
:102170004DA68E9D6129A018E1282239C5498449C0
:10218000E6516349224122410139A449434183492F
:10219000E559A872877209838B934A8B2A8B29830E
:1021A000C97AC972676AA551065AC96AC96AC96AF1
:1021B000A96AEA7AEA724339433943398441844946
:1021C0008549E3282329C5398018C4490562A872C6
:1021D0000A83C972266205522652044A2EA50C9E15
:1021E000EA950A960A9E099E0A9EE99DC99D486D38
:1021F0004975497D69858985CC950974A018E020C9
:10220000E128A549075AC551C55163390342CD9DFF
:102210002FA6A44240080229C128C549C549C5497D
:10222000C5514341A451A451A451055AA45163413D
:10223000A451876AA8722A830983A872C87AC87AC7
:10224000C97A886A686AE651275AA96AA96A0A7B24
:102250002B834C83686A023143398441E551E5514F
:10226000A54964392331A1182010223926628872C9
:10227000C97AA872476205520552C449EA7BEC9DAF
:10228000CA95C98DE995099E0A9EE99DC99508657B
:10229000496D29758B85AA85ED95275BA0180129C5
:1022A000233164416549A549C55163392442F0ADE4
:1022B0008A748000A018812023318441A449844974
:1022C00084418449066226628772676A266263498E
:1022D0008349065A886A2A83A872065A26620A83A4
:1022E0000A7B886A6862475A4762686268624B8301
:1022F000CD930E9CC5512339844906524762A8727A
:10230000A972A5496439C2206018E130E5592662F6
:10231000686AA86A6762465A0552E449686BCC9DB0
:10232000CA8D888DA98DE995E995C995A995E85C2F
:1023300009652A6D8C7DAB7DAD8D64420121E1285C
:1023400043398541C6514762065A43398339EB7395
:102350002019A01023292331023102312231C12852
:102360004339065A2662A7720983676A476AC451CD
:10237000A451E659A86A4B83C972C551C551CA72A6
:10238000886A4762275A48624862275A48622A8305
:102390000E9C2F9CE2308441C551265A676AEA7A26
:1023A000EA7A896AC6494439A1206020C551C451DE
:1023B0000662265AE659475A475A465AC65A6B95F4
:1023C000AA8D698D688D888DA98D898D898D095D0E
:1023D00009652B6D6C758B750B7DC3312231023114
:1023E0002339C549C551C549C55184490231E01851
:1023F0004000C220443964410231E1282231A12049
:102400008020E551E97AE87A498B0983E559A4519E
:10241000A449E651886AEA72686244418549686263
:10242000E651275A075248624762275A686A2B8347
:102430004FA4C96A60188441065A2662676AC87A3E
:10244000E97A0A7B4862644181208020C449C551F1
:102450000662265AA451C551475A87620342A97C95
:10246000AA8D698D498548856885698D698D085D66
:1024700009654B6D4B6D8B75AA6C61294331033136
:102480006441C549E551E5510652A549E2302008AD
:10249000A118243165416339023184412331A120DF
:1024A000C2280231E97AEB9BCB9B8B93466AA451FD
:1024B000A449065A886AEA72686244398541AA6A60
:1024C0000752275A275A896A886A4762A9728C8BF1
:1024D000ED9B022940100229E6514662466287724E
:1024E0002983C972686AA549A128A128E5492662FD
:1024F000055A4662E6598449E6518862E341076C11
:102500006A8D49852885287D288549854985085D06
:1025100009654A6D4B6D8B75696441212231233900
:1025200064418441C4490652065264410331601833
:10253000C2288541C5514241424106524331E228F9
:10254000C22840182662EC9BEBA3ECA3A87AA45106
:10255000A551886A686AC96A686264416439AA6A6E
:102560006862275A6862C972A972686A2A83AC9342
:10257000A86A0008601060184339E659C4592662F9
:10258000C87AE97A4762C551233940180652876AEA
:1025900026622662065AA549C551475AE341E76BB0
:1025A0004A8D09850885087D087D2885287D486530
:1025B000496D6A6D6B6D8B75696461292239434180
:1025C0008449A449E551E549C54964490339612075
:1025D0004439A549A5516341A449E5498541E3280A
:1025E000C22020182139498BCB9B0CA4A77AC45157
:1025F00026624B83886AA96A486285416439685AB1
:10260000AA6A6862C972E972886A676A6B8BAD935D
:102610006341400880104010C128A5518351E459FE
:10262000666AC872676AE6594341A020C449876A4E
:10263000C972A86AE659A549C551E651E44928740A
:102640008B9509850985287D287D2985287D696DDB
:1026500069756975697DAA7D686C41214439844139
:10266000C54984498449C551E651A4496339A1202B
:10267000E228A54964496449065AA54964390221FA
:102680008010601060186762EC938A938672E45938
:10269000A87A2A83A9722B83286285416441485A0B
:1026A000AA6A886AEA7A0A7B6B8B8B930EA46C8B7E
:1026B000C2306018C12080108010C241445AA45119
:1026C000A5590662065AC4516349C1302662C97AC7
:1026D000E97A686AC5518449C551E551E341C66B41
:1026E0006A954A8529852885287D4885487D6975AC
:1026F0008A7D897D697DAA85686C612984398441D8
:10270000644142398449E551E551C549C549E2284A
:10271000E22864416449E659C55163390229C11868
:1027200060104010401063416A836A8BC87AEC9B4A
:1027300090B44A832B838C8B4862A549644107522D
:10274000A96A2B7BC9720A7BD1BC52C58FB48C8B12
:10275000E130C0202229C2202008C1286762876A90
:10276000E45983498351624142412241066209830F
:10277000876AC559A4516349A451265AE341856328
:102780008B958A8D698D498549856985487D897DC7
:10279000AA858985697DAA85486C61298541E551AD
:1027A000A4498349A451E559E659065AE651023134
:1027B000C1286341065A276284490231E220801011
:1027C0006010A1206020C130A8724A8B0983D0BC60
:1027D00053CDCC93CD932E9C686206526441275A08
:1027E000EA724B83A9724B8390B411C590B46B8B82
:1027F000E138E0280129C220421020104439465A0D
:10280000876A4562E4598349845184492341887227
:102810008872E559A451634983490552034285638F
:10282000AB958A8D8A8D698D898D698D488589855D
:10283000AA856885487D8A8506646129A549A549D8
:1028400063416341A449265A4762886A275A223164
:10285000E128C551886AC5510331C120801840085C
:1028600080186439E230E138266229834A8B0D9C56
:102870008FAC0D9C4FA44FA4EA72275AA549075A62
:102880002B7B2B7BA9726B8B0EA44EAC2EA42A83C0
:10289000023941394231A220211041106018233100
:1028A000A549055266622662A451A551E659C5594B
:1028B000466AE559A34963496349A449C239E76BAC
:1028C000CC9D898DA98D898D898D888D688DA985EF
:1028D000AA8D688548858A8527646129A549644150
:1028E0006341A451C551A4498449265A475A4339E2
:1028F000C128A549A5492331A120A1186010601065
:10290000C2200652844943490562097B8B8B6B8B3D
:10291000CC93AC8B6FAC4FA42B7BE65147624862E3
:10292000A96A0A7BEA7A4B832EA40EA48C8BC97207
:10293000233923390231801820086229E020A018A9
:10294000E228223123396341834964498551A551E5
:10295000C55946624662C45163498341C341C86B4D
:10296000AC9DAA95C995A995A995898D888DA985AC
:10297000A985688569858A85476C61298441644198
:102980006341834963498349C551465A065A4339CD
:10299000C128E230A128C120A11880108010400871
:1029A000C1200652E559A4512662E87AAB8B6A83AE
:1029B0006B8B2A83CD932E9CC97206520B7B896A3E
:1029C000475AA96AEA7A0A7BCD934A830A7B896AC5
:1029D00085490331A12080186008465BC86B033A23
:1029E0002121E020013122312239223964418449F8
:1029F000A451255A255A84490239E1308239265B8F
:102A00004C950B9EEA9DC995C995A995898D898597
:102A100089856885698569858874822964396441F6
:102A2000A449A449634183410652465AC551023123
:102A3000E230C128C220C120C118600860084008E7
:102A4000A020C549E559A4514662C8724A83E87A74
:102A5000E97A2A830A7BCD93A86AC9722B7B6862C4
:102A6000896A886A886AEA7A4B83A872A972475A87
:102A70004439C228A12880184000E66B2DAE8B9502
:102A8000855BA031E020E02802310231233164412E
:102A9000A441834142394341E238A1302131644AA3
:102AA000AA840BA60A9EC99DEA9DC995A98D897D18
:102AB000697D687D487D497DCA7CA3318439844124
:102AC0008449634183498449E551C45163410231DA
:102AD000C128E128C220A1184008E2182221801054
:102AE0006018844184496349055A876AC872666AD6
:102AF00087724A83E97A8B8B2A7B6C83C9726862FE
:102B0000C972065A6862EA7A886A47628862065A17
:102B10002339E230A12860108008E5630BA6099EE6
:102B20004CAE0A95065B6331C120C12002290331F6
:102B3000233121310031C130A23003396339C33927
:102B4000E873CB9DE99DE99DCA95C98DA98D6C7DE2
:102B50006B7D487569754975EB7C444A4341A449CE
:102B60008341A3410452A662C4496341E230E2308A
:102B7000A120C1208010800882218532453AA11809
:102B80008120223142398349E55925622662055A5E
:102B90002662A872E97A2A7B8B8B8C8B265A466236
:102BA0000A7B265A6762A96A6862475A475AC5492A
:102BB0004339E128C128801860088663EC9DA995F7
:102BC000E9950A9EEB9D098D645BC0292019E018E8
:102BD000C228C228A228A230C2304341A341444A9D
:102BE000876B2B8DCC9DCB95C995A88DA88D6C7DC1
:102BF0008B7D486D686D29652B7DA65262398339BE
:102C000083398239E449A349634102390239812079
:102C1000A12080108008E329A85B4964C85B0021DB
:102C2000A020223122316341C551E559E659E559C9
:102C3000E559A86A097B6B834A832A83E551876A31
:102C40000A7B4762065A6762275AE651E651844179
:102C50002339E230A128A12080100453CC9DA995EE
:102C6000E995C995A995EBA50DAE2B8D086C83420E
:102C7000A1310021002921316131C241434AA34AD7
:102C8000A65BC97C8A8DAA8D8985688568854B7D00
:102C90006B7D696D696D49654C75064B42296231E2
:102CA000012942312239223964410239C228A22045
:102CB0006018A010C22929648C8D8B85EA7CA13113
:102CC000C020213102314339A549C549C549A4492C
:102CD000A4516762C8720A7B886AA86AC4512A7BB9
:102CE0004B83A86AE551265A065AE5516441433997
:102CF0000331E230A128A220C018423A8B956885A2
:102D0000A88DC98DE995E99DEA9D0CA6EDA5AC9D20
:102D1000EA8C066C655B445B8663076C4874C87C10
:102D2000097D6A85CA8DAA8D6885477D487D6B7D42
:102D30008B7D8A758A756B6D0B6D864222290229FF
:102D4000E228C130E2380339C230E228A018A010CE
:102D50004119A43A085C6B7DAB85CA7DAC8D63429A
:102D6000E0280231E2302339A549C549A441844114
:102D70008449065A26622662E559676A6762097BBA
:102D80004A83A86AC451A449A449C5516441223167
:102D90000339E230A230A228E120E1292B8DCA8D2F
:102DA000A98DC98DEA95E995EA9DEB9DEB9D0B9E5A
:102DB0004CA64CA6EB9DCB9DECA52CA60C9E0B9E89
:102DC000EA95EA8DC98D89854885287D28856B75AA
:102DD0004A756A754A754B752964C33922310231C7
:102DE000E130C130A130A128C120A0100011222A59
:102DF000A7530B7D4A7D8A7DAA7DCA7DAC8DC652C4
:102E0000E1280231E2302339644183418341634147
:102E10008449A551A4498449C551886AC9728B8BDC
:102E20006B836762C44983498349E5516341E2305A
:102E300002390239E230A128E120E131EA848A8DA9
:102E4000A985AA8DCA8DC995EA95EB95EB95EA956A
:102E50000A9E2B9E0B9EEA9DEA9D0A960A9E0A9662
:102E6000E995E995C98DA88D6885478548856A6D7E
:102E70004A6D6B756B7D2B7DA753A231A3418239BF
:102E8000A239254AC44141290019A119864BA86CD1
:102E90008B7DCB858A7DAA7DEB85AA7DAC8D275B5A
:102EA000E120223102310239434143416349634108
:102EB0008449844163416341C54967626762AC8B61
:102EC0002A7BE55184498441A449C5514339E13005
:102ED000223902390239C1280121223AEB84AB8D13
:102EE00089858A8DCA95EA95CA95EB95EB9D2BA6A7
:102EF0002BA62BA62BA62B9E0B9E0B9E2B9E0A9ED3
:102F00000A9E099EE995C895888D688D688D4965EA
:102F1000496D49754A7DEA74654B633AC54A875BDA
:102F20000964464B833A633AE442EA7C8B858A7DA6
:102F3000AA7D897DAA85AA8DAA8DAA85ED9DC973D2
:102F40002021412922292231433923394441434157
:102F500043414339233943416441E551A449275A48
:102F6000E651434122390239434164412339E12882
:102F70000231023902390231002163424C958A8DB7
:102F8000AA8DCA95CA95C995CA95EA950B9E0A9EBF
:102F90002BA62BA60BA60B9E0B9E2BA60BA62AA63A
:102FA0000AA60A9EE99DC895A88DA88DA88D696D71
:102FB000896D49754A7D2A6D07544964CB74EA6C62
:102FC0006854E643485468642B7D6A7D897DAA7DF8
:102FD000A985AA8DEB958A8DCB95EA95EC9DAB8C56
:102FE0008029602941294231443923390439233960
:102FF00002310231023143392339844143394339A3
:103000002339233902390239433923390231C1289E
:10301000C22802310231223120298242AC9DCA9558
:10302000EA95CA95CA95E99DE99DEA9D0A9E2AA658
:103030004BAE6BAE4BAE4BA62BA62BA62BA62BAE48
:103040000AA60AA60A9EE99DC895C88DE995696DEC
:10305000696D486D69754875286D49756A7549755A
:10306000296D0865296D696D69758975897DA985E1
:10307000AA8DC995C995CA8DEB95EC9DECA5CC9D03
:10308000614200290331233923310331E228E22848
:103090000231E128E12802310231223102310231CC
:1030A000E230C228E23002310231E2300231C12086
:1030B000C128E2300231213100290242ADADEAAD32
:1030C000E9A5099EE995E99D0A9E0AA62AA64BAEA6
:1030D0004BAE4BAE4BAE4AAE4AAE4AAE2AAE4AA655
:1030E0002AA62AA62A9EE99DE995E89DC89D696DB4
:1030F000696D486D69756975697569756A75496D38
:10310000296D0965496D6975897D897DA97DAA85C6
:10311000AA8DC995C995EA8DEB95EC9DEC9D2DA6E0
:10312000655B202923310231E228C220C120A12081
:10313000E228E228E228E228C128E128E128E12863
:10314000E128C128C228E230E230E2300231A12079
:103150008018E228023101310029A1396DA52BAE7A
:1031600029A60A9E0A9E0A9E2AA62AA64AA64BAE0F
:103170004BAE6BB64BAE4AAE4AAE4AAE2AAE2AA6AC
:103180000AA62A9E0A9EE99DE995E89DC89D496583
:1031900049652865496D697569756A7D4A75296D46
:1031A000096D096D49758975897DA97DA985A98DE7
:1031B000CA8DC995E995EA95EB95EC9DEC9D2DA6F8
:1031C000487440292331E228A120811881188018F1
:1031D000E22802290229C128A120A120A120A120A2
:1031E000A128A120A120A228C228C228E33081184A
:1031F0004010C228A120E12821292029AA8C4CB600
:103200002AAE2AA62AA62AA62BA62AA64BAE4BAEE3
:103210006BAE6BB64BAE4AAE4AAE4AAE2AAE2AA6EB
:10322000099E099E099EE99DE995E89DC89D29652D
:1032300049652865286D497549756A752975296D2F
:10324000096D086D4975697D897DA985A985A98D57
:10325000C98DC995E995EA950B96EC95EC9D0D9E67
:10326000897C20212231C1208018811881186018A2
:10327000E22802310231C22081188118A120812068
:10328000A120A120A120A120A120C228E22860180D
:103290006010A2206018C12021310021E7734DBECB
:1032A0002AAE2AA62AA62BA62AA62AA62AAE4BAE64
:1032B0004BAE4BAE4BAE4AAE4AAE4AAE2AA62AA69B
:1032C000099EE99DE995E995E995E89DC895A07164
:1032D0008069207A61AB82DCC1ECC0F4E1EC03EDE3
:1032E000C5D4A59BC27A209322BC21C4E0BBE0B325
:1032F000A1A3817A80514041A151826A03838172E6
:10330000A061805961590151015921594061E06919
:10331000E19242AB00AB60ABE3BB62AB408A208A78
:1033200082B304E583F561F5A0D4A0AB61A3A1BB92
:1033300081C320B320A3419B018BE182A27A6472F6
:10334000436A206AA08280ABE1BB61AB808AE071F6
:10335000C161016A6272816AC162E162026B2273B9
:10336000226BC1626052614A624A424A024A60610B
:103370006061E071219B41D4A1E4C1ECC2E4E3E4CB
:10338000C5D406AC238B81A342C421C4A0BB80BB9F
:1033900040ABA17AC05140316141215A6272417201
:1033A000A06140592051E048E0482051A061607A76
:1033B000209B41ABE09A60AB43C4E2B3C08AA092C9
:1033C000C2BB03E563F541E580CCA09B609B80AB6D
:1033D00080B340AB219B018BE182C27AC37A6372D6
:1033E00062724072A08A60B322CC02CC41B3409A90
:1033F000A089C079E0714162A16201632163416BE0
:10340000416B016381524142434A244A044AA15913
:10341000A159006A019321C481D461D462D4A4D497
:10342000C5CC45B4629BA1AB83C441C460A3C09228
:10343000019BE282205A80396139C349055A246AC6
:10344000E261A2594151204920496051C069A08AD6
:10345000209B009BA09280AB83C423B42093E08A7E
:10346000C2B3E3DC23E5E2D441B4A08B408380A364
:10347000C1B3C2B3429BE182A272C27AE37AA37A59
:10348000827A817AA08A20AB01D461DCC0D380C269
:10349000A0A940918081E171816AE162206320638B
:1034A000416B026361520142034A254A054AE359CE
:1034B000C259E161A182C1AB01BCE1BBE3BB24C441
:1034C00065C425BC61A360A344BC22B4008B807298
:1034D0008272837AE361625121416041E25121624B
:1034E000026AA26122510249015180590072818A07
:1034F0008192608AA092C1B383C403AC218BE08A1D
:10350000C3ABA4D4C4DC43BC8193217B007B409338
:10351000C1ABE2B3419BA17A826AA372C47AA37A57
:10352000827A817A8082C09AA1BB42DCC1DB80CAE8
:1035300080B100994191C289427AA06AA062006379
:103540000163C2624252E249034A245A255AE159B0
:10355000A051C0598072609BA0A381ABA3ABC4AB48
:10356000E4AB04AC82A32193A39B6293806AC05115
:10357000015A2262E359A249213141310352846246
:103580002362C2518141814960494059A179E18159
:10359000218A408AE09A01BC42BCA29B218B2293E3
:1035A000E4B3A4D483CC02AC418BC27A8172C082D2
:1035B00060A3C1B3409BA07A6172837AC482838284
:1035C000627A8172A17AA08A21A3A2C382CB61B25E
:1035D00060A100A121A1A29922926182606AA162E8
:1035E000825A4252025202520262236A2372E069F4
:1035F000E061406AE07A818B8093619B83A3639B47
:103600002393639B6393E18281724162E051C041E5
:10361000A139034AE449A3398942525438559C4D93
:10362000F93C333C4D3B8642A14140416059C07159
:103630006192E09A40AB01BC01B461930283649350
:1036400025AC83C4A2C462BCC2AB4293A182A08A4F
:10365000209B81B3209B807A60728282C48A838A95
:1036600062828172817A807AC09222B322BB41AA9F
:10367000809921A142A982A902A2418A4172426A8B
:10368000225AE251025A226A42722182228A808A96
:10369000C092608BC193A08B608B609BC3AB839304
:1036A000C17AC27AE37A816A0052A14982416239C1
:1036B000A33982314832554C1C3D9E147F045D0C69
:1036C0003C04BE043E155D2597340B4BC251A282CB
:1036D00042A361B360ABA1AB419BC27AA372668B7C
:1036E000E69B03A422B463C463C402B461A3209B19
:1036F00061A382B3E09A407A207A8082E29AC29AE9
:103700008192617A817A807AA08AE2AA02BB81B230
:10371000E0A982B162B182A903A2428A2172226227
:10372000225A0262216A617A618A4192219260B3CF
:10373000E1B362B441A4A0836083E1A364BCE4A3C9
:10374000E17A616A826A415AE149824163414241B8
:1037500043312A32B5433B2CDC0BBD039D03BC0334
:10376000DC033E0C3E047E0C3F259D351555298C0F
:1037700025BCA2B300A30293627A026A646A6883DA
:10378000A78B43834193E2B343C462C401B4E2B361
:10379000C3B3A3BBE1A2207A207AA09242AB63BB61
:1037A00023B3C28A617A607A808AC1AA02C302CB3B
:1037B00061C2C2C162B181A1E2994282226A225AE7
:1037C0004362626A617A808A8192429A029A40CC0C
:1037D000A1D461BCC09B8083808341AC05D5A3C4C8
:1037E00061936162225A2262E259C349E341A039DE
:1037F000062AF7339B13FA021B0BDB0AFB0AD90AD2
:10380000D9029C0BDC037C04BC04BF045F15DE2DD5
:10381000D95D8F7C257B6172206AE251A462A68B00
:10382000E69BA493418B809BE0B302B4E3ABC4A3BB
:10383000E5ABA3A3E0922082008AE0AAE2CB42D4C7
:10384000A1B3008BE182E19201A301AB21C362CB62
:1038500002CB62C2C1A9C199C291E379C269E17187
:10386000417AA0828082808AA2926192008AA0DC42
:10387000A1D400AC608B207B407B21AC45DD04D51E
:1038800081A38172636A436A43626462044A264286
:10389000B15359239A0258021602150215027702F3
:1038A000B8021B039D0B9C031D045D0C5C04BD0C46
:1038B0001D15BC2DB84DAB530342244A067B07AC03
:1038C00065C441BC20B4E1A3C29BC39B4293439314
:1038D000439B2193A08A407A608A60B342D482DC01
:1038E000C0BB209B219BA2B3A2BB61BB40BB80CBD2
:1038F00061CB01C361B201A2E289E271C269E171E7
:103900006282C082A07A607A6182218AC081C1E429
:1039100061CC6093C072C06A007B00AC24DD04DD22
:10392000E1B3018BC37AA47AA47A847286622C53A1
:10393000D44BB712370292019101B20114029602E0
:103940001913190B7A0B7A0B9A0B9A03FB037D045C
:10395000FE04FD047D151E3E164D2953869366CC4C
:10396000A4DCA1D4C0D460C4E0B3A1A30193C28AF3
:10397000E28A0193A082607AE09201C481DC81DC5A
:10398000A0BB00A340AB22C422D481C320BB80C310
:10399000A0CBA2CB42BBE1AA819A41820172217ADB
:1039A0008282C17AA07260724072217AE07982E4E8
:1039B000E1BBC07A405A6062E07AC0ABC3D4E3DCBA
:1039C00001BC419BE28A048BE482637286626E5B77
:1039D000D12A330AD30191012F019101B20135128D
:1039E00035029802F9023B03DD03FD031D047C0C44
:1039F0009C049D04FE045E0DBD359955D07CC7C462
:103A000061DCA1E401EDE0E460CCC0AB2093C28AAC
:103A1000039B63A321A3E09A60AB60D4C0E460D4AD
:103A200060B3C09A20A301C401CC41BBE0B221BB6A
:103A300081C3C2C3C1C3C1BBA1B3419BE192A182F7
:103A4000A182C172C16AA06A806A8072607A42D41F
:103A500040AB406AE0514062A072409B22C4A3D4B4
:103A600022C4219BE28AE382C47AE47A645A2E7CDF
:103A7000F05B8A012B01C900C800E600681149010A
:103A8000CE01B50219039B035D0C7C0C3B047C0446
:103A90009D049D049D04DD0C9B049A0CDA556F8DEA
:103AA000C7B4A2DCC2F4C2EC82D422AC6193E2922D
:103AB00043ABE3C3E2CBA0C3E0CB80E4C0EC60D473
:103AC00080B3C092E09A80B381C300B3C1B2C2BADE
:103AD00043C3A2C3C1BB01C441CC21BCC1AB409B09
:103AE00000830073006BE06AA06AC06AE17202CCD6
:103AF00000A32072E0614062406A808281AB23C4EF
:103B000060ABE192A28A4593E57A85620D8C75AD32
:103B10000D538300420083108210E2186100E6001A
:103B20004F12F60A9B03FC0BFC03FB031B0C3B0C24
:103B30007C0C7B049C049B0CFC1C3D151B1D7A3DDE
:103B40007475E9ACC4DCC2F461EC62CC80AB01A357
:103B500082B303D442E441E481ECC0F4C1EC81DCE3
:103B6000C0B3009BC09200A321B3E1B2C1B223BB9A
:103B7000A4C3C2C3A0BBE1C362D482D441C4E0AB3E
:103B8000A09B808BA08360830073E072C16A22CC0B
:103B900080B3A08A2072206A006A207A01A361ABF8
:103BA00001A3818AA38A8382C67A0D845084AB5292
:103BB000307C6F84C84AC010E21004094701ED113F
:103BC000710AF402B803D9037803FA0B1A0C7B14B8
:103BD0005A0C7A0C5A0C39047A049904BA0CDA1C7F
:103BE0005B45975D919527D5A1EC82DCE1C3C1BB14
:103BF00002CC42DC82ECA1EC81ECA1ECC1ECA1E4B2
:103C000040CCA0B300A3E0AAE1B2C2B223BBC4C3BC
:103C100045CC83CC01C4C1CB22D482D482CC40BC5D
:103C200000ACE09B00A4E0A3A09B4183E07282DC97
:103C300021CC40AB4082006A006A408202A363ABA1
:103C4000A092428A4382848A0883AD73727C359D38
:103C500034957495507466096801CD01510274025F
:103C6000F60A980B99031C149A03FA037C0C7C0443
:103C70009C04BD049C047A04DB14DC149A0CB91473
:103C80003A259C3DBA55B67D4F9DC5CC81E482DC7A
:103C900082DCA2ECA2ECA1E461E461E4A1ECC1EC61
:103CA000A0E440D480BB00BBE2BA03B384BB05C42C
:103CB000C6D425DD82D401CC01D461D482D462C4BF
:103CC00001B4C1ABC1AB02BC22BCC19B4083A1E427
:103CD00061DCC1BBC092E071E071609202AB42ABAB
:103CE000E09A8092A09AC292A38AA682C972CA5A06
:103CF000A621862188116B01F101980AFB0A390B74
:103D0000590B980B980376033A047B04BC0C590CAE
:103D1000F70BF70338047A04BA0CFA149814D72472
:103D2000F8343B3DBD4D7B45D4540EA5E8D4E3DCCF
:103D3000C1E4E3EC82EC81E460DC60DCC0E4C0E47C
:103D4000A1E461E401D440B321A364B3A4AB04A40F
:103D5000C5C405E5C3E440D400C441CC83D483D4B6
:103D600063CC03AC8193A29B63B442BCC0ABA1E41F
:103D7000A2DC23BCE1920072E071609201AB21AB46
:103D8000E0A2E0AA00B322B323ABE49A857A296BC0
:103D9000E6292701CD09310A13027602180B3703F1
:103DA000780378039903FA0B5B147A0CBB14370C75
:103DB000580C7904FB0C3C25DB24FA241B2D1A2D0E
:103DC000FA2CFA2C5A35BA455735553D506DE6B4A4
:103DD000C2DCC3E4C3EC21DC21E461EC60E4A1DCDF
:103DE00060DC00DCC0D361BB63ABC49B838B428BC4
:103DF00004B4E4DC03E581CCE0BB00BC83CCA3D4F9
:103E000083D442BC809B2093A2A322BC21C481DC2A
:103E1000A3D403B4C08AC061C0696092E1AAE0AAD9
:103E200000B320C340C3A1CBE3D384C3C39A287B90
:103E3000AB4A8C01F201540A5502B702380BF80B59
:103E4000B703F90B1B0C3B0C7C14DB14BA149B0C52
:103E5000DC14DC0CDC1CDC34BB3CBB34DB3C1B5D0D
:103E6000FA5CD84C35345534B6349714B43C8A9443
:103E700044C483E482E462DCE0CB01DC61EC60EC0E
:103E800020E4C0CB81BB80BBC2B3E49B2283C27A57
:103E900083A3A3CC23DDA1C4A0A3A0A322BCA2CC56
:103EA000A2D483CCC1B3E09A01A3A1BB43CC61D41B
:103EB00042CCA1A340728059C0696092C0AAE0AA16
:103EC00020BB40C340CB80CB22DC03DC44B36A8BF5
:103ED000706331125502750296023903DA0B9C0C9D
:103EE0005A04790C790C38047904DA0C9904DB0C47
:103EF0009A0C990CBA1C991C5814990CF924F83C8A
:103F0000B644562C1624772C772437141945757D22
:103F1000CD9C85C4C3E441D4E0C3E1D362E4A1E411
:103F200060DCC0CB21BB21B3A4BBE3B3419BC18AFE
:103F3000429B42BCE2C461A460832083829B02BC9A
:103F400043CC63CC02C421ABC0A220B3C2C361DCAA
:103F500021CC619B4072A0590072A09A00B360BB53
:103F600060C360CB40C360C301D423DCA5B3ED8341
:103F70001454361317033803DA0B7D0CBD0CDC0424
:103F8000DC047A0C380417045804790459047704C3
:103F9000B90CBB0C7B045A045904780477049604CA
:103FA000B70C571C1624194DF8447724D9245B25E7
:103FB000B75DC8B4A2DC22CCA1B302C462D4E2D4FF
:103FC000A2DCA2D3C1C2A2BA23C3C2C3A0B3209BA6
:103FD0004193A09B01A4A08B006BC06AE282439B2B
:103FE00084B304C404CC82BBE0AAE0AA42B361DC7F
:103FF00021CC619B4072C0612072E0AAA1CBC1D3E9
:10400000C0D3A1D360C3A0C302D403D4A6A34F6C72
:10401000763C1914FB033C041F155F0D1E05FC04C0
:10402000DC04BC14190CD7033914180CD603B503DF
:10403000B603BA03DB033B0C1A04D803590C9A04E9
:10404000370C152C722BF343F33B7534351499045C
:104050005935D38DEAAC44BCE2C323C464CCA3DCA1
:1040600083E4E3D322C3A0BAE0BAA1C3E1C3A0A30F
:104070004093008B20830073A062806A81728282E9
:10408000C29263ABC3C3A2C320B3C0AA01AB41DCDD
:10409000E1C3209360720062407A20B302E400E43E
:1040A000E0DB80CB60C3C0CB22D4E2CB859B5064E5
:1040B000F6231A0C9D04FF045F051D053E0D1C0D23
:1040C000DC0CFE1C3B04D803380CF70B74033203E2
:1040D000730B7513340B540B7413530B540BB6033F
:1040E000D5137534D323940B361CB734F3232C0229
:1040F0000F13783D5776479CA2BBE4C346D485D4C2
:1041000084DC42D4C1CB21BB00BB81C301C401B458
:10411000609B008BC082A072A06AC07AC18261825B
:10412000618AC09A42B381C320BBA0AA81A200CCFD
:1041300080B3008B8072206A608240BB21EC61EC0E
:1041400000E480D360CBE1D343DCE2CB659BF26338
:10415000D72BFA137C043E055F051E051E0DDD0CF2
:10416000FE145F1D5B047904990C1704F60B5203CF
:104170007303D4037203CD02AC0AED1A0E1B110BAC
:10418000520BB013F21BB403F5137023D14B4F53F2
:104190004F4BAF33B66D15A64A8C25AC85CC84D475
:1041A00063D461CC41CCC2BB41BB81C302CC21C42E
:1041B000A0AB2193C18AA07AC07A418B639B429BBA
:1041C000E192C09221AB62C322C3A1AA61A282A3E1
:1041D000E09A8092608A6072808260AB21DC42F457
:1041E000E0EB80CBA0C300D462DC23D4A69B525C5E
:1041F000F71B19041E151D0D3D0D1E0D3E0DDD0492
:10420000FD0C5D153904B703B813770B981396139B
:10421000120B31134C026B1A0A126D1AD01AD10A02
:10422000530B530393033103CE020F236F4BCE6B1B
:104230004F8CED7B2B4B775DDB9ECC9CA7BCA4C445
:1042400062BC61BC82CC41CCC1CBA1CBE2D322D435
:10425000E1C360A3008BA082A08A00A382BBC2CB73
:10426000C2C340AB20A3A1B3A2BB22BBA1B2E092C8
:10427000E09AE09AA0924072407220A301D461ECCF
:1042800000E480C380BBE1CB63DC43D4849BAB639D
:10429000323C790C3F0D1E0D1E0D9C049C04BD0C80
:1042A000FD141E157B04F8031603580B93022F020E
:1042B000CB012B0AA9016C02CE021003520B730B27
:1042C0005303B403B30B3013EB01AD028F2BC619AC
:1042D0000309820083002509D053FA8DD18446B4A6
:1042E000C0BB40ACE2B4C3B463BC02C4E1CB41D4B4
:1042F00021CCC1B3009B80826082C09281B322CC6A
:1043000062D4E2C360AB61ABC3BBE3C361BB00A3D8
:1043100080AB82B3E1922072207220A321D481EC81
:1043200020DC80BB20AB81BB03CC03CC62A3236B1E
:104330000C54F92C1E0DBD04BD04DE0C7D0C5C0478
:10434000BD14DD0C3A043503971395027402720212
:104350009102D2021203720BF31B710B9213B20B78
:104360002C026E025213B50B95037303B3132F1B6C
:10437000A80187198729472107093023D67DCB94C7
:10438000039C44B463C4C1CCA0C420BCC0BB40D413
:1043900062DC21D460ABA08A607A80820193C0B3D2
:1043A00062D462D4A0BB009B42AB02BC02BCE0BBA7
:1043B00042C4E3BBC092006A407A40AB21D481E49E
:1043C00020DC80BB00AB01B342C362C321B3C18A0E
:1043D0004863D73C9B0C5A043A047D0C7D0CDE14D8
:1043E0003B04BC0C19049202F412D40AD502160341
:1043F0007703550B3413321B8E128C2287016A12FD
:104400004F23AF0A6F021303D603B603B613142C5F
:104410004F2B082A0C5BAE6BCE6BED5B5285169E64
:104420000F95C5BC02DD01DD81D400BCC0BB00D44A
:1044300082E461E4A0C3009B80824172607A209B89
:1044400001C4A2DC22C4009BA08A809B43B4A1D4F7
:10445000C3D403B4C08A407AE092C1BB61DC81E47A
:1044600040DCA1CB20BBC0BAC1BAC1C2C1BAC3AA89
:10447000E87A344458145914F8037703FA037B0C90
:10448000BC1459045914F30A2F02F112F1128F12BD
:104490006E0A6D0A0C0ACB1148098609292AE51013
:1044A0002A2A6F1B30038F02F20AB40BB40BD41309
:1044B000CE0A65012311C1102221C43984118F1B3A
:1044C0001776CDBD25CD01BDE1C402C4A2CB22DC4F
:1044D00082E481E4E0CB40ABE092827A417AC08A08
:1044E00081AB42CC22CC21A30072607AA39B02DD77
:1044F000C3D4E2ABC08AC08A81AB42D4A2E481ECCF
:1045000040DCE0D360CB21C3C1C260BA61BAC3C290
:10451000079BD0631534F70B180C3503760395030E
:10452000180C7904790CD71B4F020B026B1A650922
:10453000C619CC328B22E701CB22C8192609CB2A17
:1045400086012601EE2A71135203B403B403D40B7F
:10455000110BCE1AAD32C8192511A108C200C50031
:10456000EE1AB855347E47BDA0D480D440CC41DC8F
:1045700062DC82DC20CCA0B361AB229BE292C08AD9
:10458000019BA2ABE3BB43AB207AE069C382E1DCD1
:1045900081CC81A3E08A419B02C461DCA1EC80E470
:1045A00040DC00D4C0CB80CB00C381BA82BA02C346
:1045B00045AB6983D05B7413D703B703960B340301
:1045C000960B1804590C581493132601C811291A74
:1045D0004501281AAE4B4D33CC222C2B070AE70994
:1045E0006E43091AE911CC1A0E1392137213703B21
:1045F000704391332F238F336E3B2D4B093266214D
:10460000070195035A3515768C9DC4C460D461D4D6
:1046100041CC61CC41C401C422C443C4E3BB019377
:10462000A0828082E29AE29A2082A0690272A0DCD3
:1046300040C461A32193C2B383D4A1E480E460E4C5
:1046400040DC20D4E0CBA0C340C3A2B2E3BAC3CBCA
:10465000C4BB049B6B7BD32B7603B803F913360BD7
:10466000350BF70BF703D5033624EE22C500A8015E
:104670006B1AA71186190C53CE63AE43CE43691251
:10468000691AAE53AA3AE731083A8932C942486BEF
:104690004873487B4A6B4D434E2B9033AC226511D7
:1046A00065094B02161C9B14D934EF84C8B4A3CC03
:1046B00020C421BC42BC42C4A3DC04E5C3D4E3ABA8
:1046C000A0820072217A418A0082A069E269A1D4A5
:1046D00020C480B3A0BB62D4A3DC61D440D480D416
:1046E000A1D421CCA0BB81BB41B321B3A3C384E43B
:1046F00043DC82C3E48A6C5B92335403D70B5503CB
:1047000034039503D60BB603F70BF61B6F02A50017
:10471000A300650923010311A94A4C5B0B53683AB6
:10472000473A063AC539C439054245424642A8527D
:10473000E962E86A0973287BE86A683A8A2A6B1298
:1047400068012801B423180C1904DB14F73C0E8D02
:1047500067ACC1A3A0B321C4C2D443E524E542C4DD
:10476000409B2072E0612172E171C061016A40C426
:1047700000BCE0BB41CCC3DC82D4E0C3C0BB80D46E
:10478000A1DC21C460AB40AB61ABC2BB63D403F519
:1047900003F5E3CB44A3C5722B53511B3403340BF5
:1047A000F40297037503D50BF61395037413D01A0F
:1047B0006901A200A100A0088431C641C74165314A
:1047C0008531C952A852053AC4390552E549474ACC
:1047D000674A8952CA5AC95AC962096BE541E21847
:1047E00045116A01F312D90BDA03DA03BC14BA24B7
:1047F000585D6C6C226B609382C403E503E5C3D4FF
:10480000A1ABC17A616A21620162025AE25100B42D
:10481000C0B320CCC2DC02E561CCC0B3A0B360CC95
:1048200081D401C420A3409BC1B362CC23EDA2FD7F
:1048300082FD62DC21B3408245524F2B120B700A7D
:10484000710A3413540B9303F51332035303D51B2E
:10485000F00AA80124090211C10865218629442112
:104860002419CA3A0B3BCA32482A2742064226423A
:10487000E53905422642063AC5310542874AE539FF
:10488000A6290701ED097002B302560BB703DB142A
:104890001A2DD5542D64A57322A4C2D4C1EC81E491
:1048A000E0CB009B807A607A216AE161E25960A3E3
:1048B00080AB20CCC2E4E2DC40C4C0B3E0BB60D437
:1048C00081DCE0C340ABA0AB41C4C1DC62F5E2FDDA
:1048D000A2F5A2E461B3617A034A4C436F33AE1A86
:1048E0002E0AED014E028F02D0026D02300BD30B67
:1048F00051036D026801C909A80925014501641128
:10490000A519EA324C3B0C338A2A2732273A28422F
:10491000294A0742074A4852074222210221C5314B
:10492000493A06016901ED090F0271023503B90325
:10493000BD0C3C1DF83412448C63E79B85CCE2DC53
:1049400060CCA0AB008BA0726062605A6062009382
:1049500060A321CCA2DCA1D440CC00BC21C481DC6A
:1049600081E400D4E0C340CCC1DC00ED41FDC2FDD8
:1049700083F5A3D4C3ABA3720352855A295B0C2BD6
:104980006C026D022D022D020C028D128D024F0B56
:10499000700B4D026F0290028F0A2B02090A650903
:1049A0004409E5194732883AA942A94A273AE6312B
:1049B000483A283A68422742A852E85A053AC42998
:1049C0008421030965116509E611061A261A0C33BC
:1049D0007023780C1C151A2D142C2E33CA4AEA8326
:1049E00068A403AC2093C07A806A805AA05A209BA6
:1049F000A1B321CC61D460D440CC20C441CC81E4AB
:104A000060DC20D440D4C1E4E1E4E0EC20FD62FDB0
:104A100022ED82D4A2ABE282216A00628362084B5B
:104A20004B3BED120C026E028E0A4C0A2A0AAC12A3
:104A30006C0A0C028F0A9002D10AB00A6E0AEB09C6
:104A4000880125012409A619E7216A32282A27327C
:104A5000473A073A073A2752E6492752685A2752F7
:104A60000552446A669B63AB81B3C0BB01C4A2BB61
:104A7000228B234B462BAB337154545492430D334A
:104A80002B4B89838793C37A40728072A06A80B36C
:104A9000E1BB21CC00CC20CC40D420CC40D480DC65
:104AA00060D440D480D4C0DCA0DCA0DCE1E402ED22
:104AB000C2E441D441ABE38A627242728372C37230
:104AC00046734953CA2A4A020B02C801090A2A0A34
:104AD0006B126B0A6C0A6C0A0C026D0AEB01EA019C
:104AE000C9098701E400C300E2008419062A672A85
:104AF000E611482A483228320732273A47422642EE
:104B0000E449A159A39282BB40BBC0CB02CCA2B363
:104B1000019360720062006A607205832C942F74A6
:104B20002C4BA83A4953EA73056B605A806AE0C37C
:104B300042D441D420CC60D480DC60DC61DC80D401
:104B400060D460CC80D4A0D440CC20C480D4C0E455
:104B500081DCA1B32393A3728472847AE49264AB60
:104B6000A5AB438BE45AC82A690A0902E9012B0262
:104B70008C02AC0A6A0A4A1A291A8601C6098301FC
:104B800063092311E218E0208362228B0093E28AFA
:104B9000C382235A464A6932492A0632C431263A28
:104BA0000642C5418349638AA2AA43BBA4C381A329
:104BB000C08240820282A079E081A09A81AB25ACBC
:104BC00068A48873E7522663C4622062406A60D496
:104BD000A0DCC0DCC0DCA0E4C1F4E1ECA0E480DC3B
:104BE00040D460DC81DCA0D420C4E0C360CCC2D45B
:104BF00042C441A38082627AC38263A3C3B303C465
:104C000044C4C3B3C27AA010E200A6098A1A691A82
:104C10004812270AC601C701C701A701E719C52124
:104C20004319C208C2104129677BA293209BA0921E
:104C3000809A829A838A636A2352E339A229A3194C
:104C40008321A63165390341E36903A363BB03AB49
:104C5000629A429222920082208AE09A60ABE1BB83
:104C6000E1BBC1AB418BE16AC36AA36A4362A0DCCA
:104C7000E0E400E500E500F501FD01F5E0EC80E48D
:104C800060DC80DCA0E4E1DCA0D460D4A0DCC0DC8B
:104C900000BC019B417A627A439B23C4A2DC81D48D
:104CA000A4D488C4A0514008810081000309E629EA
:104CB000E6212722A5094401E601A501C501061246
:104CC000A509E30044192129E159009300A300AB91
:104CD00081A2219A439A8492C58AC47A836A8362A4
:104CE000635A645A2552A3416141416A65A303A3F3
:104CF000839A629A42926192C19A81B301C4E0C3DD
:104D000080AB2093A07A60628262A36A836AE0DC4F
:104D100000E520E500ED20F500FD00F5E0F4A0E45D
:104D200080E480DCC0E401E521E5E0DC00E5C1DCF5
:104D3000C0BBC28A216AA17AA3ABA2DC22F523ED13
:104D400084C40262C5416529083A084281106000A6
:104D5000011960398783C36A246BA352223AA642A1
:104D60000011413923720072808A209B02C4A2C3C1
:104D7000E1AA419A8292E38A248B038BC18A8092B2
:104D8000408A018A238A4482036A6272449384AB14
:104D900003AB829A4192609221ABE1C362D441CCD1
:104DA00080ABC08A406A005A005A2062406AE0DC48
:104DB00020E500E5E0EC20F500FDE0F4E0F4C0ECD7
:104DC00080E460D480D4E0E421ED20ED01E582DCD4
:104DD00081B382822172C18203B4E3E444F587ED9A
:104DE00020622A6B5184693A2D5B107CCB5AA31840
:104DF0002010E038869B63A381B340D4E3E444BC35
:104E0000E048A19A2092C089A1A2C1C363D4E2C3A1
:104E100020ABA19AE29A439B439B029BC19AC1A2F9
:104E200060A200A2E099019A82A203B3A3C323C4A3
:104E3000C2BBC1A2008A2092A1A261B3E2C322C474
:104E4000A1B3018B60722062406AA072A07AE0DC9C
:104E500000E500EDE0EC20F520FDE0F4E0ECC0E43E
:104E600080DC20CC20CC80DCE0EC00EDE1EC21DC2F
:104E700041BB6192218AC19AE3C303ED45F5E7D4B2
:104E8000826A53A5317C6D630F74EF736D6B4321A0
:104E900080104352626A216AE29280C3A5E4408294
:104EA000E07923AB2092409201AB20D440DC80C358
:104EB000A0AA60AA03BBA4C3A4BB42B3E1AAA0AA50
:104EC00060AA60AA81AAC1AA00AB60BB21CCC1DCE8
:104ED00040C420A32092E191229A82A202B361AB46
:104EE000419BE082606A2062606AE07A208BC0DCCD
:104EF00000E500ED00ED20F540F5E0ECC0E4A0DCBD
:104F000060D400BC00BC60D4A1E4E0ECC1EC20E4BF
:104F100020CB21B2E1A161AAA2D3E2F443F506E5D8
:104F2000248B32AD3184EF7BB194B08CCD6BC73123
:104F30000319244AC249A049416A429BC4B320597B
:104F400065ABC19A609A809A42B3E1C3C1CBC0B24B
:104F500040A220AA23C325D464DCA2CBE0BA80B24D
:104F600040B220B2A1B282BBA1B3C0B3A1CC01DDDB
:104F700080CC40AB2092C291C399029A62A2C192A6
:104F8000E08AE072806A6062606AE07A818BC0DCED
:104F9000E1E400ED00F520F541F501EDC0E4A0D419
:104FA00060C400B400BC40CC80E4A0EC81EC01E41F
:104FB000E0D2E1B981A900AA41CBA1EC01F5E3EC73
:104FC00086C431B5518C708CD19CD19CCE73074274
:104FD000A531464A8231C239035AE58220612082D6
:104FE00002A38092A092C09221A3C1C340B3E09AD1
:104FF000809A61A202BB24DCA5EC23E421CB40AA69
:1050000060AA80B202B382BBA1B3C0B361CCC1DCE1
:1050100040CC40AB4092E299E3A103A222924082AD
:105020008072806A806260624062A0726183A0D4F4
:10503000C0DCE0ECE0ECE0E400E500E5C0DC80CCC6
:1050400060C400AC00B440CC40DC60E441E4A2DBCE
:10505000A2C2C2B161A1E0A141C382E4E2F4A1E431
:1050600044C491BD95ADD194D6B535A532848F7326
:1050700086316852E4498139E34984390131E38258
:105080008082A08AC092E09A21A341AB22B301ABF7
:10509000E1B2C1AAE1B2C2BBA5DC64DC83CB60AAE9
:1050A00020AA61B202BB62B3A1ABE1AB01B441CCB7
:1050B000E1C321AB609A22A223AA02A201926182DB
:1050C000A172A062A05A605A605AC06A428320C48A
:1050D00060CCA0DCC0E4A0DCA0DCC0D4A0CC80C448
:1050E00060B420B400B420CC40DC40E401E461C3EF
:1050F000A1AA0092008A608A41AB61CCE2DC81D433
:10510000A2AB0FBDF7C5B39CB29433A571942F8C9D
:10511000A631A529073A4329843902290031C58AD5
:105120008292C29A22AB21BB20BB80C3E1CBE1CBF0
:10513000C0CB81BB00AB00ABC3CB23DCC1CBC0B2C7
:1051400080B2C1B2C2B2E3A223A383A3A2A3A2AB43
:10515000A2AB029BE29A22ABE2A2829A4192818A9E
:10516000E1820073E062A05A805A0073C08B80A372
:10517000E0B361CC61D420C420C460CC80CC80C4B6
:1051800040BC20B400B400CC41DC00DCA1D301BBA6
:1051900060AA219A2192608A219B21BC81C421C4EA
:1051A000219B0A9474B554AD929413A50F848D730A
:1051B0002421C6312842E3204431A1182139259306
:1051C00022A362ABA2BBC1CBC1CB21D461D4A1DCF1
:1051D00081D401C440ABC09A21ABC1C3E1CB81CB28
:1051E00061C322BBA1AA6192A2920393429B219B1D
:1051F00041A3219B63ABE4BBA3BB02A38192E192D9
:10520000829BC19360830073E0726083019C208362
:105210006093E1ABE1B380ABA0B320BC40C460BC01
:1052200040B400ACE0B300C421D4C1D320C380AAF1
:1052300041A22192208A808A2093C09B01AC819B4D
:10524000807AC66A52ADF6C513A533A574AD18BEF3
:105250004D63EB5A8629A210C218C639E86A84A3A6
:10526000A2B3E2BB01C441D461D480DCC1E400E557
:10527000E1DC41C440AB8092C09A81BB43D464DC82
:1052800064DC23D441B38092418A6282A28AE19293
:10529000019B42ABE4BB85D464CCA2B3009B409B92
:1052A000E2AB62B401AC60936093E09361A40073DD
:1052B000207B408B40932093609B00B460BC60BC1B
:1052C00040ACE0A3C0A3C0BBE1CB81C3C0B2409A55
:1052D0004192218A20826082E0826183A1830183DE
:1052E000816A2352AF9CF6C5B6B534A595AD54A5D9
:1052F0000C5B04214529A63165298D734873C4A32D
:1053000002C422C441CC80D480D460D4C0E400E57F
:10531000E0DC40CC20AB809AA0A281BB43D4A3E4C4
:10532000E4EC03E562CC41AB608A207A6182C08AFA
:10533000009B62B323CCC4DCC3D442BCA0A3A0A313
:1053400000B461C461CC00BCC0AB20A480AC0063DD
:10535000006B007BE082E082609321AC61B440ACE2
:1053600020A4C093609360A381B321AB809A408A4C
:1053700041824182207A607AC07A21734173E26A65
:105380008362024A0D8C17CE55AD75AD75AD073AE7
:10539000E31828420B63E73928424F8CA56AE4AB37
:1053A00023C443CC63D4A2D480D440D481DCE0ECC9
:1053B000C1E4E0CBC0AA409A81A241BB02CC62D436
:1053C000C2E422E5E1E441C460A3C092A08AC08A9D
:1053D000019B82B323CCA3D4C2D4A1BC20ACE0A354
:1053E000E0AB40C481D480CC40C460B460B4006BF6
:1053F000006B208320830083609301A421AC009C78
:10540000C0936083007B008B209B009B808A8082FE
:10541000818260824082408AC08A207B006BA262C7
:10542000625A645AEC8BF6C5B7BDB29CCB5ACA52CD
:105430006D6BCD7B0B6324216C6B6A73846AC5AB87
:10544000E3BB44CCA4DCC3DC81D421D421D482DCF2
:1054500062DC80BB80A2009281A222B3A2C301C4FD
:1054600081D401DD21E5C2D441C4A0B320A3E092E0
:10547000209BA2B302C462CCA2CCA1BC60AC20A48D
:1054800000A420B460C481CCA1CC81C420B4E0725B
:10549000E07A208B20932093409BA1A3A19B608B5B
:1054A00060832073C072A07A0093009BC08AC08280
:1054B000A082608A409240A2C0A2208BE07260620B
:1054C000C46A835A2C9437CEF7C5CE7BAD7375B5BD
:1054D00071942F84EA5A484A6C734352047B649B4C
:1054E00063A3E4C3A5E4C3E481D421CCE1C302C433
:1054F000C2BB20A3608A2082418AC19A21A341AB0A
:1055000001BCA2D402DDC2D461CC20C4C0B360A36C
:10551000419B82ABA1B3E0BB61C4A0BC60AC40A422
:10552000009CC09BE0A320B481C461C4E0B3817A35
:10553000A082E092009B0093219B619B419300839A
:10554000017BE172A06AA07AE092209B209BE08A16
:10555000A08A609A40A220B2A0BA209BC07A806A3A
:10556000A26A8362CEA4F6C538C633A574ADB6BDB3
:10557000F3A4708C8952C639465283620383C28277
:10558000C292A3BB84DCC2E4A1DC41CCC0B3609B6B
:105590000093A082407A407A4182818AA192C0928F
:1055A00041A322BC82CC20C4E0BB20C441C4C1AB17
:1055B00061A341A320A360AB21BC80BC60AC409C34
:1055C000E093808B608BC0A320B400BCC0AB408A4A
:1055D0002082608AC192E192E29203830383C37ABC
:1055E000C272A16A806AA07A009341A321A3E192CA
:1055F000A19A20A2E0B120B281BAC1AAA08A6072A9
:10560000826AA56251ADD5BDF6BDD6B514A5F7BD6C
:1056100059CE508C885A476A457A4382628A4182C1
:10562000618A04ABE5CB63D462CC02C481AB218B2D
:10563000E172C062A062A16AC272A17AA082808275
:10564000A09222AB63B321A3009B80AB22C4C1BB59
:1056500061AB0093E08A409B20B481BC40AC20A4A5
:10566000E09B60932093A0A320B421B4A0A3218247
:1056700000824082818AA192A18AA282C37AA37207
:10568000A372A26A8172A07AE19201A3E1A2C19AF7
:1056900081A201AAC0B1C0B121B261A260924172DF
:1056A000426AA6628F9C53ADD6BD75B513A538C6A8
:1056B000D6BD13A5A9628772257A43822282018210
:1056C0002182839A43B3A2B3C2BBC3B383A36283D1
:1056D000216BE062C05AC16AC272C17AC182808203
:1056E000608A809280926082407AE09281ABA2B31D
:1056F00041ABC092A08A409B21BC61BC00B4E0A336
:10570000C0A3809BA0AB20B441C421B4A0A3018A54
:1057100000822082618A618A628A827A8372837AB5
:105720008372A372A27A8182A192C19AC19AA29A2B
:1057300082A202B281B160B1A1A901A22292237A10
:10574000236A087BCD8BCE83B6BDB6BDF3A4F6BD70
:10575000B6B537C60E94A77A237A2282228AE281CE
:10576000C2812292839AC29AE29A239B64936383B2
:10577000226B005BE05AE16AE172E182E28AE19227
:10578000A192608A20820072E069407AE19262AB65
:1057900021A3808A608220A301BC41C4E0B3E0B3AE
:1057A000E1B3C1ABE1BB62CC41C400B4E0B3018A58
:1057B000E1812182618A628A6282637A63726472A1
:1057C000637A837A8382828AA292A29AA2A2A29AFE
:1057D00062AA02B261B120A941A9C2A10392237AAF
:1057E000E361876AF2B47094D29CB6BDB29CD6BD18
:1057F000D6BD18C6B1AC857A2282228A028AC281BD
:10580000C28922924292628A838AC38A248B43731A
:105810002163215B005BE16AE17AE182E19222A3EC
:10582000029B818A417A21720162006A8182219BF6
:10583000019B808A608220A3E2BB01C4E0BB01BC63
:1058400001BCC1B3E1BB42CC21C4E1B301B42C2BF8
:105850002C232C234C236D236D2B8D2B8D2BAE2BCA
:10586000AE33AE33CE33CF33CF33EF33EF33103CE1
:10587000103C103C303C303C303C303C303C103C28
:10588000113C113C113C113C1134F133113CF13B02
:10589000F13BD03BF13BF033113C113C113411345E
:1058A000113410341134113CF13BD03BD13BD03397
:1058B000D02BD033D033902B902B902B6F236F2392
:1058C0004F1B4F1B2F1B0F1BEF1AEF1AEF1AEE1275
:1058D000ED12CD12CD12CC0AAC0AAC0A8B0A8B0A9F
:1058E0008B026B024A024A022A02290229024D2B2C
:1058F0002C2B4D2B6D2B6D2B8D2BAE2BAE2BAE335E
:10590000AE33CE33CF33CF33EF33EF330F3C103CD6
:10591000103C303C303C303C303C303C303C313C46
:10592000313C113C113C313C323C323C1134312C85
:10593000512C312C5234113411341134313C113C7E
:10594000323C31341134113411341134113C113CD6
:10595000F133D033D033B02BB02BB02B902B6F233F
:105960006F234F234F1B2F1B0F1B0E1BEE1AEE1224
:10597000ED12ED12CD12CD12CC0AAC0A8C0A8B0AB4
:105980008B0A6B026B024A024A022A022A024D2B40
:105990004D2B6D2B6D2B8D2B8E2BAE2BAE33AE3353
:1059A000CE33CF33CF33EF33EF3B0F3C103C303CA3
:1059B000303C303C303C303C503C513C513C313C24
:1059C000513C513C323C313C313C323C323C523C0B
:1059D00052341134323C323C12441244F143F13B14
:1059E0001244313C313C523C323C113C113C113CA4
:1059F000F13BF13BF13BD133D0339033902B902BE3
:105A00006F2B6F234F234F232E1B0E1B0E1B0E1BC2
:105A10000E13ED12ED12ED12CD12CC0AAC0A8C0A67
:105A20008C0A8C0A6B026B024A024A022A024D2B34
:105A30004D2B6D2B8D2B8D2B8E2BAE33AE33CE336A
:105A4000CF33CF33EF3BEF3B0F3C303C303C303C6F
:105A5000303C303C5044513C5144513C513C513C11
:105A6000513C513C72447244523C323C52441244C8
:105A7000324C12441244124412443244113C313C20
:105A8000513C513C313C313C313C113C3144113CA6
:105A9000113C1134F133F133D133D133D133902B65
:105AA000902B702B4F234F234E232E1B0E1B0E1BB0
:105AB0000E1BEE12ED12ED12ED12CD12CC12AC0A4D
:105AC000AC0A8C0A8B0A6B026B024A024A026D33E3
:105AD0006D2B6D2B8D2B8E2BAE2BAE33CE33CE3369
