:100000000C944C190C947D190C947D190C947D1949
:100010000C947D190C947D190C947D190C947D1908
:100020000C947D190C947D190C947D190C947D19F8
:100030000C94FB520C947D190C947D190C947D1931
:100040000C947D190C947D190C947D190C947D19D8
:100050000C947D190C947D190C947D190C943F4FD0
:100060000C947D190C947D190C947D190C947D19B8
:100070000C947D190C947D190C947D190C947D19A8
:100080000C947D190C947D190C947D190C947D1998
:100090000C947D190C947D190C947D190C947D1988
:1000A0000C947D190C947D190C947D190C947D1978
:1000B0000C947D190C947D190C947D190C947D1968
:1000C0000C947D190C947D190C947D190C947D1958
:1000D0000C947D190C947D190C947D190C947D1948
:1000E0000C947D19E319BB1B121D2F1E9A1F9A1F1A
:1000F000BA21532393299B244826CD267A2B822C80
:10010000C72EC72E121DF12FF12F121D842D813104
:10011000422079326333E535D83451416F419641FD
:10012000084208420842AC41394251413942CF416C
:100130003942DD41DD41FA41FA4196410842084227
:100140009641DD41394208421F4239423942394223
:10015000255625562556F1554656535625562556AD
:10016000F155465677467A4669466D467146B14620
:100170007E46824688468C46904696469A469E46DD
:10018000B146A446A846AC462018205F00000000F7
:10019000000000000000000000000000000000005F
:1001A000000000000000000000000000000000004F
:1001B000000000000000000000000000000000003F
:1001C000000000000000000000000000000000002F
:1001D000000000000000000000000000000000001F
:1001E000000000000000000000000000000000000F
:1001F0000000000000120000001F8000000DC00081
:10020000001EE000003330000061980000CCCC00FC
:1002100000CC6C00018036000302360007061B008C
:10022000018E1B0000F61B0000061B0000061B00D1
:1002300000061B000007FB000007FB000000000099
:1002400000000000000000000000000000000000AE
:1002500007FFFE0007FFFF00060003000600030083
:10026000060633000606330006003300060033009E
:10027000070033000380330001C0330000FC33006B
:10028000007C3300000C3F00000C1E00000C00003E
:10029000001BFC0000192400001FFC0000000000EF
:1002A000000000000000000000000000000000004E
:1002B000000000000080040000EFDC0000FFFC00F4
:1002C00000D02C0000C00C00018006000180060058
:1002D00003000300030CC300030CC300030003006E
:1002E00003030300018A4600018FC60000E01C00E2
:1002F00000703800003FF000000FC0000000000058
:1003000000000000000000000000000000000000ED
:100310000000000000E01E0003F7BF0003FFFF0025
:1003200003F03F0003E01F0001800600019C66000F
:100330000335B30003353300033CF300037C7B003B
:1003400003387300018006000180060000E01C00F5
:1003500000703800003FF000000FC00000000000F7
:10036000000000000000000000000000000000008D
:1003700000000000000FE00000303F00004000805F
:100380000080008001000080013000800230008089
:1003900002000180020001000200010002010100D0
:1003A00002010100027F010002410100024102003E
:1003B000024102000138FC000188000000780000C2
:1003C000000000000000000000000000000000002D
:1003D00000078000001FE000003FF000007FF800F1
:1003E000007FFC0000FFFC0000FFFC0001C00E00CD
:1003F000019FE600018CC60001CCCE0001C00E00BA
:1004000001CCCE000197A600018006000180060005
:1004100000C00C0000FFFC00003FF00000000000E6
:1004200000000000000000000000000000000000CC
:1004300000000000000000000000000000000000BC
:1004400001C0000006C003000440028006400240D4
:100450000E200140012E0320009102200085FE2085
:10046000044569200CC300201FE00060100000401C
:10047000180E99800FF8E100000FBF000000000087
:10048000000000000000000000000000000000006C
:10049000000000000070380000FFFC00008FC60064
:1004A00001BFF60001F87E0001E01F0003C00F004D
:1004B00003800700038CC600038CC700038007007D
:1004C0000383070003C94F0003CFCF0003C00F0011
:1004D00000F03C0000FCFC00003FF00000030000C6
:1004E000000000000000000000000000000000000C
:1004F0000000000000078000000FC0000019E000AD
:100500000039E000005FE000003FE0000017E0007D
:100510000013F0000013F0000033F8000023F8008F
:100520000023FC000023F0000033F000001BF0006B
:10053000001FF0000021F800003FF800000000005C
:1005400000000000000000000000000000000000AB
:10055000000000000000000000000000000000207B
:10056000000000E0000000C01FFFFFC01FFFFFC031
:10057000107FFFC0157FFDC015BFF8E00AFFF860CF
:100580000F3FF00007FFC00001FF80000007800060
:1005900000008000000000000000000000000000DB
:1005A000000000000000000000000000000000004B
:1005B000000000000000000000000000000000003B
:1005C000000C0000000F0000001FC00000FFE00052
:1005D00001EFF1C003EFFB80066FFF000E63FF0029
:1005E00007F3FB8003EBF18000FFF040001C1000DC
:1005F00000000000000000000000000000000000FB
:1006000000000000000000000000000000000000EA
:1006100000000000000100000003000000070000CF
:10062000000F0000001700000023010000C083003D
:1006300001804F0002603F0006603F0001804F00D4
:1006400000C083000023010000170000000F00001D
:10065000000700000003000000010000000000008F
:10066000000000000000000000000000000000008A
:100670000000000000000000001FE000006798007C
:1006800000F03C0001E79E0003EFFF00020C310088
:1006900003F8DF8007E8DF8007F81F8007F83F8056
:1006A00007E8FF800728D380061CE180021721009D
:1006B000021FE1000210210003F03F0000000000D3
:1006C000000000000000000000000000000000002A
:1006D00000000000001C7000001450000092940004
:1006E00000FABE0000FABE0000FBBE0000739C00D2
:1006F000000FE0000007C000001FF0000007C0006E
:10070000001FF000001FF0000007C0000003800081
:100710000006C000000FE000000FE0000000000035
:1007200000000000000000000000000000000000C9
:10073000000000000001C000000FE000003FA0002A
:10074000007FE000007DE00000F0000000F000000D
:1007500000FBE00000FFF00000FFF80000FFF800E1
:10076000007FFC00007FFC00007FFC000077FE00A3
:100770000077FE0000771F0000771C80000000005B
:100780000000000000000000000000000000000069
:10079000000FC0000030300000C00C000180C60017
:1007A0000101F2000203F1000207A10004076080CA
:1007B000040E0080040C0080041C0080041C0080D7
:1007C000041C0080023E0100023A010001140200F4
:1007D0000024060000200C0000303000000FC00094
:1007E0000000000000000000000000000000000009
:1007F00000000000000000000000000000000000F9
:1008000007FFFF800500008005C0008007FFFF8014
:1008100007FFFF80040000800400008004000080C7
:1008200004000080040000800400008004000080B8
:1008300007FFFF8000000000000000000000000033
:1008400000000000000000000000000000000000A8
:100850000000000000000000000000000000000098
:100860000000000003FFFF800200008006FE3E80C3
:1008700006FE00800600008006FFFE8006FEFE8069
:100880000600008007FFFF800400010007FFFF0053
:100890000000000000000000000000000000000058
:1008A0000000000000000000000000000000000048
:1008B0000000000000000000000000000000380000
:1008C0000000C600000082000000820003FF838059
:1008D00002004480060738800618C0800610408059
:1008E000061040800618C0800607008007FFFF80C2
:1008F0000400010007FFFF000000000000000000EE
:1009000000000000000000000000000000000000E7
:10091000000000000044000000440000004400000B
:1009200000FE00000082000000FE000000FE00004B
:1009300000FE0000007C00000010000000107800A5
:100940000010CC000010840000108400001084000F
:1009500000198400000F04000000040000000000E3
:100960000000000000000000000000000000000087
:100970000000000000000000000000000000000077
:10098000007C000000920000009200000082000045
:1009900000EE000000820000007C000000107800E3
:1009A0000010CC00001084000010840000108400AF
:1009B00000198400000F0400000004000000000083
:1009C0000000000000000000000000000000000027
:1009D00000000000000200000002000000471000BC
:1009E00000CF980000EFB80001DFDC0003CF9E00CD
:1009F00001FFFC0001FFFC0003DFDE0003AFAE00DF
:100A000007FFFF0003DFDE0003BFEE0007870F00D4
:100A100007F77F0008E7388000E738000000000093
:100A200000000000000000000000000000000000C6
:100A3000000000000037B0000037B000003FF000B9
:100A4000003FF000003FF000001FE000000FC0007A
:100A5000000300000003000003C30F0001E31E00B9
:100A600000F33C00007B7800003FF000001FE00036
:100A7000000FC0000007800000030000000000001D
:100A80000000000000000000000000000000000066
:100A90000002000000020000000700000005000046
:100AA0000002000000078000001FC0000027200097
:100AB000001FC000003FE000007FF000009FC80062
:100AC000003FE00000FFF80001FFFC0003FFFE0014
:100AD00004070100000700000007000000000000FC
:100AE0000000000000000000000000000000000006
:100AF0000000000000190000001B8000001FC00063
:100B0000001FE000001FF000003FF800007FFC0025
:100B100000FFFE0000E10E0000E10E0000E10E000B
:100B200000FFFE0000FFFE0000E10E0000E10E00ED
:100B300000E10E0000FFFE0000FFFE0000000000CC
:100B400000000000000000000000000000000000A5
:100B500000000000007FFC00004004000059B400C9
:100B60000059B40000400400004004000059B400E3
:100B70000059B40000400400004004000059B400D3
:100B80000059B4000040040000400400004184000B
:100B90000041840000418400007FFC000000000050
:100BA0000000000000000000000000000000000045
:100BB00003FFE0000200200002FFA000020020006E
:100BC00002FFA0000200200002FFA000020020009F
:100BD00002FFA0000200200002FFA00002FFA00010
:100BE0000200200002FFA00002002000023E2000C0
:100BF000023E2000023E200003FFE0000000000053
:100C000000000000000000000000000000000000E4
:100C10000003000000030000000FC000000FC00030
:100C20000003000000030000000FC000001FE000F0
:100C3000007FF80000FFFC0001FFFE0001FCFE0049
:100C400001F87E0001F87E0001F87E0001F87E00C8
:100C500001F87E0001F87E0001F87E00000000002F
:100C60000000000000000000000000000000000084
:100C70000000000001FDFC0003222600020002002B
:100C80000200020000222600007DFC00030000009C
:100C90000300000003000000030842000318C60020
:100CA0000339CE00037BFE0003FFFE0003FFFE00BE
:100CB00003FFFE0003FFFE0003FFFE000000000034
:100CC0000000000000000000000000000000000024
:100CD00000010000180FC06017DFEFA0107138206E
:100CE0001031302010D12C201F1FE3E0001FE00046
:100CF000001FC000001FC000001FC000001FC00078
:100D0000001FC000001FE000001FE000001FE00007
:100D1000001FE000001FE000001FE00000000000D6
:100D200000000000000000000000000000000000C3
:100D300000000000000FE000000C6000000920002F
:100D40000009A00000082000000C6000000FE00077
:100D5000007FFC00007FFC00007FFC0001FFFF0023
:100D600001FC7F0001F83F0001F83F0001F83F005F
:100D700001F83F0001F83F0001F83F0000000000CB
:100D80000000000000000000000000000000000063
:100D900000080000000F0000000BE00000087800D1
:100DA00000080800000F0800000BE80000087800A9
:100DB00000080800000808000008080000080800F3
:100DC000000808000078080000F8080001F8080092
:100DD00001F0780001E0F8000001F8000001F000E7
:100DE0000000E00000000000000000000000000023
:100DF00000000000001C3800003E7C00003E7C002B
:100E0000003E7C00001C38000100000001CFF00013
:100E100001FFF00001FFF00001FFF00001CFF00042
:100E20000107E0000005A000000DB00000099000DF
:100E3000001998000011880000318C0000000000AB
:100E400000000000000000000000000000000000A2
:100E500000000000007FFE0000A01400014014000C
:100E600001C01800014018000140280001FFF800EF
:100E7000014018000140140000C01C0000A0140034
:100E800000A00C00007FFC0000A00E0000E00C00A1
:100E900000E00C0000C0140001FFF800000000009A
:100EA0000000000000000000000000000000000042
:100EB000000000000000000000000E000001F6002D
:100EC000003ECE0003F9F000023E000003FFFE00EA
:100ED000031CE20003FFFE00007FFE00007FFE0017
:100EE000007FFE00007FFE00007FFE00007FFE000E
:100EF000007FFE0000000000000000000000000075
:100F000000000000000000000000000000000000E1
:100F10000000000000FFE0000082200000822000AE
:100F200000FF20000081200000FFE000008E200074
:100F300000FFE0000080200000FFE00000872000AC
:100F40000085E00000FD300000152E00006F2A0033
:100F50000041EE00003C3C000007F00000000000F3
:100F60000000000000000000000000000000000081
:100F700000000000002000000020000000500000E1
:100F8000005800000057000000290000002C8000DD
:100F900000248000001250000049B8000044F00016
:100FA00000435C0000A0BF80071D7F8000A08F80F1
:100FB000004007000040000000400000000000006A
:100FC0000000000000000000000000000000000021
:100FD00000000000000F00000030C00000204000B2
:100FE00000402300004026000040260000402E0064
:100FF00000205A000030F100000F190000051E000B
:1010000000773C00007C7C0000FFF800007FF000CF
:10101000001FE0000007C0000000C000000000004A
:1010200000000000000000000000000000000000C0
:1010300000000000000120000006D8000004C800E5
:10104000000DA8000015FC000065A60000E372007A
:1010500001F69C0003FB670000FC9700007E3F0048
:10106000003DFF80001750000039D800000EC80076
:101070000004C8000009B800001B000000040000C4
:101080000000000000000000000000000000000060
:10109000001018000010100004082000020BA0C06F
:1010A0000103E1000083F200000FFC000033FE00AA
:1010B0000861FF0007763F0000780F00007C0F00FA
:1010C000003E0600009FF800010FFA000607F90035
:1010D0000803F880001BF8C0001000000020840006
:1010E00000208400000080000000000000000000DC
:1010F00000000000000000000003000000030000EA
:10110000000FC000001FE000003FF000007FF8006B
:101110000064980000649800007FF8000000000060
:1011200001FFFE0003FFFF0007FFFF8001F7BE0085
:1011300001F7BE0000E31C000000000000000000FA
:10114000000000000000000000000000000000009F
:10115000000000000000000000000000000000008F
:1011600000000000000000000003F8000FC7FC00B2
:1011700001FFFC000007FC000007FC00000000006D
:1011800000FFFF0001FFFF8001FFFF8001FFFF80E4
:1011900001FFFF80010000800180018000FFFF004F
:1011A000000000000000000000000000000000003F
:1011B000000000000000780000104400002024001F
:1011C0000047160000C89E0003504F0004504F0017
:1011D00002904F000788878007871F8007E53FC080
:1011E0000FF77F000FF8FE0003FDFC00007DF80004
:1011F000007FF000007FF000007FF00000000000A2
:1012000000000000000000000000000000000000DE
:101210000001800000038000000340000002400045
:10122000000440000004C00000038000000700002C
:10123000000E00000019C0000037E000003570000B
:10124000003530000033300000192000001CE000A1
:101250000007800000008000000E8000000E80006B
:101260000007000000000000000000000000000077
:101270000000000000010000000180000001C0002B
:101280000001E000000170000001180000010800EA
:101290000001080000010800000108000001100022
:1012A000000120000001000000010000000F00000C
:1012B000003F0000003E0000003C00000000000075
:1012C000000000000000000000000000000000001E
:1012D0000000000007FFFF800400008004FFFC8086
:1012E00005FFFE8005FF068005FF068005FF0680DE
:1012F00005FFF68005FFF68005FFF68005FFFE80FE
:1013000005FFFE8005FFFE8005FFFE8004000080D3
:10131000059BC0800400008007FFFF8000000000E4
:1013200000000000000000000000000000000000BD
:101330000000C00000018000000200000004000066
:1013400000080000001000000020000003FFFE0065
:10135000024F0E00024CE600027DF600024BFA003E
:10136000024BFA00027BFA00027BFA00027DF600D3
:10137000027CE600027F1E0001FFFC00000000006E
:10138000000000000000000000000000000000005D
:1013900000000000000FE0000016D000001930002F
:1013A0000016D0000016D000001930000016D00042
:1013B000003FF80000301800003FF800003FF80040
:1013C000003FF800002FE80000200800001FF00098
:1013D0000003800000038000000FE0000000000018
:1013E00000000000000000000000000000000000FD
:1013F00000000000000000000000000000000000ED
:1014000000FFFC0007FFFF800FFFFFC00FC00FC0F1
:10141000000FC0000F9CE7C00030300000303000EB
:101420000060180000E01C0000F03C0001F03E00ED
:1014300001F87E0001FFFE0001FFFE000000000039
:10144000000000000000000000000000000000009C
:1014500000000000000003E000003C100001F00864
:10146000001E3C0400FC3E0401833C0401013804DE
:101470000206B0047E18B0048117B00480E8B004FE
:10148000C028B0045F98800420488004100480388D
:10149000080383C004019C0003FFE000000000007B
:1014A000000000000000000000000000000000003C
:1014B00000000000000003E000001C100001E00834
:1014C000000E0004007C00040183000401010004FC
:1014D000020080147E0080E481008FE480C0BFE4BD
:1014E000C020B1C45F9080C42048800410048038BC
:1014F000080283C004019C0003FFE000000000001C
:1015000000000000000000000000000000000000DB
:10151000000000000FF0000008100000081000009C
:10152000780FFE00400002004000020041FFFFF87B
:10153000410000084200001042000010440000205A
:10154000480000204800004050000080500000800B
:1015500060000100600001007FFFFE00000000004D
:10156000000000000000000000000000000000007B
:1015700000000000001FE000003FF00000303000DD
:101580000030300007FFFF8007FFFF8007FFFF806C
:1015900007FFFF8007FFFF8007FFFF8007FFFF8037
:1015A00007FFFF8007FFFF8007FFFF8007FFFF8027
:1015B00007FFFF8007FFFF8007FFFF80000000009C
:1015C000000000000000000000000000000000001B
:1015D0000000000000000000000FE000001FF0000D
:1015E000073FF8000740040007FFFFC007FFFFC0E8
:1015F00007F83FC007F01FC007E00FC007E00FC0AB
:1016000007E00FC007E00FC007E00FC007F01FC0E2
:1016100007F83FC007FFFFC007FFFFC00000000042
:1016200000000000000000000000000000000000BA
:1016300000000000000FC000003030000040080033
:101640000083040001030200010302000203010001
:10165000020301000203F9000203F9000200010085
:1016600002000100010002000100020000800400ED
:101670000040080000303000000FC00000000000F3
:10168000000000000000000000000000000000005A
:10169000000000000000000000000000000000004A
:1016A000000000000F00000010800000108003C048
:1016B00010801FE00FF07F00003FF800001FE000E7
:1016C000001FE000003FF8000FF07F0010801FC0F7
:1016D000108003E0108000000F00000000000000F8
:1016E00000000000000000000000000000000000FA
:1016F000000000000007C000001830000033D800D0
:10170000002C680000501400005014000050140019
:101710000050140000FFFE0000FFFE0000FEFE006F
:1017200000FC7E0000FEFE0000FEFE00007EFC00CD
:10173000003FF800001FF0000007C000000000009C
:101740000000000000000000000000000000000099
:10175000000000000000F8000001FC000003FE0093
:101760000007C7000007C7000007C7000007FF0009
:10177000000FFF00000FFE00000FFC00003FF8000C
:10178000003F000000FE000000FC000003F8000025
:1017900003F0000003E0000003C0000000000000B0
:1017A0000000000000000000000000000000000039
:1017B0000000000000000000000000000000000029
:1017C000003FF0000020100000400800004008002A
:1017D000004008000080040001FFFF00039FE700B5
:1017E000030FC300030FC300039FE70003FFFF00C5
:1017F00000E01C0000E01C0000E01C0000000000F5
:1018000000000000000000000000000000000000D8
:1018100000000000000000000007800000048000BD
:10182000001FE000002010000040100000400800F1
:10183000004008000080040001FFFF00039FE70054
:10184000030FC300030FC300039FE70003FFFF0064
:1018500000E01C0000E01C0000E01C000000000094
:101860000000000000000000000000000000000078
:101870000000000000FFFC0000E01C0001E01E0072
:1018800001FFFE0001000200010002000100020051
:10189000010002000100020001FFFE0001CFCE00A6
:1018A000018786000187860001CFCE0001FFFE0080
:1018B0000070380000703800007038000000000030
:1018C0000000000000000000000000000000000018
:1018D00000000000007FFC00007FFC0000400400CE
:1018E00000400400004004000040040000400400E8
:1018F0000040040000400400007FFC0000478C0012
:1019000000478C0000478C00007FFC00003018006E
:1019100000200800004004000180030000000000D7
:1019200000000000000000000000000000000000B7
:101930000000000000070000000700000007000092
:101940000007800000078000010780000187C000B9
:101950000187C00001FFFF8001FFFF8001FFFF80C2
:101960000187C00001878000010780000007800018
:101970000007000000070000000700000000000052
:101980000000000000000000000000000000000057
:101990000000000000000000000000000000000047
:1019A0000FFFC0000FFFC0000FFFC0000FFFFF00C0
:1019B0000FFFF8800FFFF8800FFFF8800FFFF8404F
:1019C00000003FC00FFFFFC00F01F9C00EC6F6C0F8
:1019D0000DEF6F4001EF0F0000C606000000000091
:1019E00000000000000000000000000000000000F7
:1019F0000000000000000000000001C000000660C0
:101A00000000082000001E2000006E400000B5808D
:101A100000034B0000049400001B68000024B00089
:101A2000005B400001A58000015A0000026C00002C
:101A3000045000000CE000000F0000001000000047
:101A40000000000000000000000000000000000096
:101A50000000000000004000000060000000F000F6
:101A6000000FC0000033800000478000008E63F04C
:101A7000011C1E700138027002380270027B027075
:101A8000047C027004800270078006700B7FFBF0FC
:101A90000A0000700C0000000000000000000000C0
:101AA0000000000000000000000000000000000036
:101AB00000001000000038000000F8000000F800EE
:101AC0000001F8000001F8000003F8000003F00036
:101AD0000007F0000005F000000F6000000DC000DE
:101AE000000F6000000BC000001680000012000014
:101AF0000022000000230000003C00000020000045
:101B000000000000000000000000000000000000D5
:101B1000000000000007FC0000181C00003FE4006B
:101B2000002024000027240000202400002024009E
:101B3000002024000020240000202400003FE400B6
:101B4000002024000027240000202400002024007E
:101B50000020280000203000003FE00000000000CE
:101B60000000000000000000000000000000000075
:101B700000000000001FE000002010000020100006
:101B800000305000002FD0000017E0000013A0002C
:101B9000000B4000000580000005800000094000A7
:101BA00000112000001120000021100000279000EB
:101BB000002FD000002FD000001FE0000000000028
:101BC0000000000000000000000000000000000015
:101BD0000000000007FDFF000C0701803C0201E04F
:101BE0003402016034020160340201603402016099
:101BF0003402016034020160340201603402016089
:101C0000340201603402016037FAFF603807016076
:101C1000380200E03FFAFFE0000F80000000000003
:101C200000000000000000000000000000000000B4
:101C30000000000000FFFE000080020000800200A3
:101C4000008002000080020000800200008002008C
:101C5000008002000080020000800200008002007C
:101C6000008002000080020000803E00008024000E
:101C7000008028000080300000FFE000000000002D
:101C80000000000000000000000000000000000054
:101C90000000000000FFFE00008002000080020043
:101CA00000BF8200008002000080020000BFFA0036
:101CB00000BFFA000080020000BFFA0000800200AE
:101CC00000BFFA000080020000BFBE0000802400B8
:101CD000008028000080300000FFE00000000000CD
:101CE00000000000000000000000000000000000F4
:101CF00000000000000FFF80000800800008008046
:101D0000007FFC800040048001FFF480010014800B
:101D100001001480017F948001001480017F948071
:101D200001001480017F9480010014800100148060
:101D3000017F948001001480017F978001001400CE
:101D4000017E140001001C0001FFF00000000000F3
:101D5000000000000FFFFFE008000020080003A0C3
:101D600009FC03A0080003A009FC03A0080003A0CD
:101D700008000020080000200800002009FFF820CB
:101D80000800002009FFF8200800002009FFF820C3
:101D900008000020080000200FFFFFE00000000006
:101DA0000000000000000000000000000000000033
:101DB000000000000FFFFFE00C0000600A0000A020
:101DC0000900012008800220084004200820082083
:101DD0000810102008082020080C6020081AB020E5
:101DE00008238820084004200880022009000120E0
:101DF0000A0000A00C0000600FFFFFE000000000E0
:101E000000000000000000000000000000000000D2
:101E10000000000001FFFC0001E01E0001E0DE0008
:101E200001E0DE0001E0DE0001E0DE0001E01E0076
:101E300001FFFE000180060001800600018006000F
:101E40000180060001800600018006000180060076
:101E5000018006000180060001FFFE000000000076
:101E60000000000000000000000000000000000072
:101E70000000000003FFFF00020003000200030057
:101E8000020003000200020003FFFF0003FFFF0047
:101E900003F8FF0003F07F0003F07F0003F07F00F2
:101EA00003F8FF0003FFFF0003FCFF0003FCFF003B
:101EB00003FCFF0003FCFF0003FFFF000000000025
:101EC0000000000000000000000000000000000012
:101ED0000000000000000000000000000000000002
:101EE00007FFFF8007FFFF8007FFFF8004F87C806B
:101EF000048CC480058CC680058CC68004FCFC80E4
:101F000004F87C8007FFFF8007FFFF8006FFFD804D
:101F100000000000000000000000000000000000C1
:101F200000000000000000000000000000000000B1
:101F300000000000000FC000003E3000007E0800DE
:101F400000FE04000178020001F7820002F861003F
:101F500003F0310003E3110003E31F0002231F001D
:101F600002103F0001187E000107FE000081FC0006
:101F70000041F8000031F000000FC0000000000038
:101F80000000000000000000000000000000000051
:101F900000000000000FC0000031F000005FF800FA
:101FA00000A7FC0001D9FE0001A7FE0001D83E00F9
:101FB00003A01F0003A31F0003E31F0003E31D0092
:101FC00001E02E0001F03A0001FFEA0000FE74007B
:101FD000007FC800003E3000000FC000000000007D
:101FE00000000000000000000000000000000000F1
:101FF0000000000001FFFE0001000200017FFE0062
:1020000001400600014006000140060001400600B4
:10201000014006000140060001400600017FFE006D
:1020200001FFFE0001FFFF0001000100036F798046
:1020300002DFBC800200008003FFFF800000000080
:102040000000000000000000000000000000000090
:10205000000000000001000000010000000300007B
:1020600000FE00000100000001000000010000006F
:102070001FFFFFC0100000401000004017BDEDC062
:102080001000004017BDEDC010000040177EEDC0ED
:1020900010000040100000401FFFFFC000000000C3
:1020A0000000000000000000000000000000000030
:1020B0000000000000000000003FF00000400800A9
:1020C000004008000040080000407F000040898078
:1020D000004088800380FF800000808000008080B6
:1020E00000008080000080800000808000008080F0
:1020F0000000C1800000630000003E0000000000FE
:1021000000000000000000000000000000000000CF
:1021100000000000000000000000000000000000BF
:1021200000000000000000000000000000000000AF
:1021300000000000000000000000000001FFFF00A0
:1021400001000100013FF900010001000100090048
:10215000010001000100010001FFFF00000000007C
:10216000000000000000000000000000000000006F
:1021700000010000000780000007C000000BA00065
:10218000000BA00000092000000920000007C0008B
:1021900000052000001A200000131000001290001B
:1021A000001C7800001C3800001C3800001C38009F
:1021B000001C3800000C3000000E700000066000AB
:1021C000000000000000000000000000000000000F
:1021D0000000000000187000002578000027F800BB
:1021E000001FF000007FE00000FF800001FF800082
:1021F00001FC800000F2400000E22000000120000D
:102200000001100000009000000088000000440061
:10221000000024000000220000001C00000000005C
:1022200000000000000000000000000000000000AE
:10223000000000000000000000000000000000009E
:1022400000001E0000002100000021000000478067
:10225000000088000003078001EC21000210DE006E
:10226000078300000084000000C800000790000001
:102270000210000001E0000000000000000000006B
:10228000000000000000000000000000000000004E
:102290000000000000000F0000001F8000003F80D1
:1022A00000007F8000007F0000007E000001FC0035
:1022B0000000F800000160000002A000000500001E
:1022C000000A0000001400000028000000D00000F8
:1022D00001200000022000000240000001800000F8
:1022E000000000000000000000000000000FFC00E3
:1022F00000080600000BF70000080080000BFE80BD
:102300000008008007FBFEC0064800C0064B80C0E6
:10231000064800C0065FFFC00650004006506F40F0
:1023200006506F4006506F4006576F4006576F408B
:1023300006576F4007D0004007FFFFC000000000B5
:10234000000000000000000000000000000000008D
:102350000000000000FFF0000080380000803C001A
:1023600000803C0000800400008004000080040025
:102370000080040003FFFF00020001000FFFFFC008
:10238000092480400924804009FF80400800004063
:10239000080000400FFFFFC003FFFF000000000027
:1023A000000000000000000000000000000000002D
:1023B000000000000000000000000000000000001D
:1023C0000078000000780000007BE000007A200028
:1023D000007A200000FE3C000080040003BF77006C
:1023E000020001000200010003FFFF0001FFFE00E8
:1023F00001FFFC0001FFFC0000FFF80000000000EE
:1024000000000000000000000000000000000000CC
:102410000000000000070000000D8000001AC0004E
:102420000015400000174000001240000067300017
:1024300000D2580001974C000217420002124200DD
:102440000218C20003E73E0003E73E00003DE00043
:10245000003DE000000000000018C000003DE0006A
:10246000000A8000000200000000000000000000E0
:10247000000000000000000000000000000000005C
:102480000000000000070000003800000078000095
:102490000077FFC00037FDC0002FF80003EFE70012
:1024A0000467E8800893D0400991FE400BD0FE40BD
:1024B000091010400420088003C00700000000003D
:1024C000000000000000000000000000000000000C
:1024D00000000000000000000000000000000000FC
:1024E0000000000000000000000F000000080000D5
:1024F000001FF0000034300003E44F8006725CC01F
:102500000C5A946008C9A6200889FE2008082020DB
:102510000C101060063018C003E0078000000000B7
:102520000000000000000000000000001010205F0C
:10253000000000000000000000000000000000009B
:10254000000000000000000000000000000000008B
:102550000000000007000F800F800F800F800F80A9
:102560000700070000000000070007000700000048
:1025700000000E380E380E380E380630000000000D
:10258000000000000000000000000000000000004B
:1025900000000C300C300C307FFE7FFE0C300C3015
:1025A0000C300C307FFE7FFE0C300C300C30000005
:1025B0000000024002400FF81FF81A401A401FF0B6
:1025C0000FF8025802581FF81FF0024002400000A6
:1025D0000000000000000E100E300E7000E001C080
:1025E000038007000E700C700870000000000000EF
:1025F000000000000F001980198019800F000F08DB
:102600000F9819F818F018E019F00F980000000062
:10261000000000000700070007000E000000000097
:1026200000000000000000000000000000000000AA
:102630000000000000F001C0038007000E000E0043
:102640000E000E000700038001C000F00000000033
:10265000000000000F00038001C000E00070007067
:102660000070007000E001C003800F000000000057
:102670000000000001801188099007E007E03FFC9E
:102680003FFC07E007E0099011880180000000008E
:1026900000000000000000000180018001800FF0B8
:1026A0000FF00180018001800000000000000000A8
:1026B000000000000000000000000000000000001A
:1026C0000000000000000700070007000E000000E7
:1026D00000000000000000000000000000001FF8E3
:1026E0001FF80000000000000000000000000000D3
:1026F00000000000000000000000000000000000DA
:1027000000000000000007000700070000000000B4
:102710000000000000020006000E001C00380070DF
:1027200000E001C0038007000E001C000000000054
:10273000000000000FF01C381C781CF81CF81DB8B5
:102740001DB81F381F381E381C380FF0000000005D
:10275000000000000180018003801F801F80038033
:10276000038003800380038003801FF000000000CB
:10277000000000000FE01C701C380038007000E002
:1027800001C0038007000E381C381FF8000000004D
:10279000000000000FE01C701C380038007003C0FF
:1027A00003C0007000381C381C700FE000000000EF
:1027B0000000000000E001E003E006E00CE018E0AB
:1027C0001FF81FF800E000E000E003F80000000040
:1027D000000000001FF81C001C001C001C001FE073
:1027E0001FF0007800381C381C700FE0000000005B
:1027F0000000000003E007000E001C001C001FF09A
:102800001FF81C381C381C381C380FF00000000062
:10281000000000001FFC1C1C1C1C1C1C001C0038A1
:10282000007000E001C0038003800380000000000E
:10283000000000000FF01C381C381C381F3807E05F
:1028400007E01CF81C381C381C380FF00000000092
:10285000000000000FF01C381C381C381C381FF812
:102860000FF800380038007000E007C000000000DA
:1028700000000000000000000380038003800000CF
:1028800000000380038003800000000000000000BF
:1028900000000000000000000380038003800000AF
:1028A0000000038003800380070000000000000098
:1028B0000000007000E001C0038007000E001C0053
:1028C0001C000E000700038001C000E00070000043
:1028D000000000000000000000003FFC3FFC000082
:1028E00000003FFC3FFC0000000000000000000072
:1028F00000001C000E000700038001C000E0007013
:10290000007000E001C0038007000E001C00000002
:10291000000003C00FF01E7818380038007000E087
:1029200001C001C00000000001C001C001C00000E2
:1029300000000FF81C1C1C1C1C1C1C1C1CFC1CFC80
:102940001CFC1CFC1C001C001C001FF007F80000F5
:102950000000000003C007E00E701C381C381C3853
:102960001C381FF81C381C381C381C3800000000AC
:10297000000000001FF00E380E380E380E380FF031
:102980000FF00E380E380E380E381FF00000000021
:102990000000000007F00E381C381C001C001C0052
:1029A0001C001C001C001C380E3807F00000000042
:1029B000000000001FE00E700E380E380E380E3882
:1029C0000E380E380E380E380E701FE00000000072
:1029D000000000001FF80E180E080E000E300FF059
:1029E0000FF00E300E000E080E181FF80000000049
:1029F000000000001FF80E180E080E000E300FF039
:102A00000FF00E300E000E000E001F000000000040
:102A10000000000007F00E381C381C381C001C0099
:102A20001C001CF81C381C380E3807F80000000089
:102A3000000000001C701C701C701C701C701FF0CB
:102A40001FF01C701C701C701C701C7000000000BB
:102A5000000000000FE003800380038003800380F8
:102A6000038003800380038003800FE000000000E8
:102A70000000000001FC0070007000700070007029
:102A8000007038703870387038700FE00000000047
:102A9000000000001E380E380E700EE00FC00F80D0
:102AA0000F800FC00EE00E700E381E3800000000C0
:102AB000000000001F000E000E000E000E000E00B1
:102AC0000E000E000E080E180E381FF80000000051
:102AD000000000001C1C1E3C1F7C1FFC1FFC1DDC9A
:102AE0001C9C1C1C1C1C1C1C1C1C1C1C0000000016
:102AF000000000001C1C1C1C1E1C1F1C1F9C1DDC3D
:102B00001CFC1C7C1C3C1C1C1C1C1C1C0000000015
:102B10000000000003E007F00E381C1C1C1C1C1CED
:102B20001C1C1C1C1C1C0E3807F003E000000000DD
:102B3000000000001FF00E380E380E380E380FF06F
:102B40000FF00E000E000E000E001F00000000002F
:102B50000000000003E00F780E381C1C1C1C1C1C1D
:102B60001C1C1C7C1CFC0FF80FF8003800FC00003B
:102B7000000000001FF00E380E380E380E380FF02F
:102B80000FF00E700E380E380E381E3800000000A0
:102B9000000000000FF01C381C381C381C000FE02F
:102BA00007F000381C381C381C380FF000000000FB
:102BB000000000001FFC19CC11C401C001C001C0FD
:102BC00001C001C001C001C001C007F00000000049
:102BD000000000001C701C701C701C701C701C70AD
:102BE0001C701C701C701C701C700FE0000000003A
:102BF000000000001C701C701C701C701C701C708D
:102C00001C701C701C700EE007C0038000000000E8
:102C1000000000001C1C1C1C1C1C1C1C1C1C1C9CE4
:102C20001C9C1C9C0FF80FF8077007700000000038
:102C3000000000001C701C701C700EE007C00380B8
:102C4000038007C00EE01C701C701C7000000000A8
:102C5000000000001C701C701C701C701C700EE0CA
:102C600007C003800380038003800FE000000000A2
:102C7000000000001FF81C381838107000E001C078
:102C8000038007000E081C181C381FF80000000005
:102C90000000000007F0070007000700070007001A
:102CA0000700070007000700070007F0000000000A
:102CB00000000000100018001C000E000700038038
:102CC00001C000E000700038001C00070000000098
:102CD0000000000007F000700070007000700070CD
:102CE0000070007000700070007007F000000000BD
:102CF0000000018003C007E00E701C3800000000D7
:102D000000000000000000000000000000000000C3
:102D100000000000000000000000000000000000B3
:102D20000000000000000000000000007FFF7FFFA7
:102D3000000000001C001C0007000700000000004D
:102D40000000000000000000000000000000000083
:102D50000000000000000000000000000FE0007014
:102D600000700FF01C701C701C700FD80000000069
:102D7000000000001E000E000E000E000FF00E38C6
:102D80000E380E380E380E380E381BF000000000DA
:102D90000000000000000000000000000FE01C70B8
:102DA0001C701C001C001C701C700FE00000000058
:102DB0000000000000F80070007000700FF01C7040
:102DC0001C701C701C701C701C700FD80000000060
:102DD0000000000000000000000000000FE01C7078
:102DE0001C701FF01C001C701C700FE00000000025
:102DF0000000000003E007700770070007001FE0F5
:102E00001FE007000700070007001FC000000000C8
:102E10000000000000000000000000000FD81C703F
:102E20001C701C701C700FF007F000701C700FE01D
:102E3000000000001E000E000E000E000EF00F3805
:102E40000F380E380E380E380E381E3800000000CD
:102E50000000000001C001C001C000000FC001C09F
:102E600001C001C001C001C001C00FF80000000096
:102E700000000000007000700070000003F000709F
:102E8000007000700070007000701C700CF007E0A3
:102E9000000000001E000E000E000E000E380E7026
:102EA0000EE00FC00EE00E700E381E38000000005D
:102EB000000000000FC001C001C001C001C001C07E
:102EC00001C001C001C001C001C00FF80000000036
:102ED0000000000000000000000000001FF81C9C23
:102EE0001C9C1C9C1C9C1C9C1C9C1C9C0000000092
:102EF0000000000000000000000000001FE01C7047
:102F00001C701C701C701C701C701C700000000079
:102F10000000000000000000000000000FE01C7036
:102F20001C701C701C701C701C700FE000000000F6
:102F30000000000000000000000000001BF00E3840
:102F40000E380E380E380E380FF00E000E001F002F
:102F50000000000000000000000000001FB038E08A
:102F600038E038E038E038E01FE000E000E001F051
:102F70000000000000000000000000001EF00FF83C
:102F80000F380E000E000E000E001F0000000000A3
:102F90000000000000000000000000000FE01C30F6
:102FA0001C300F8003E0187018700FE00000000064
:102FB0000000000000000100030007001FF00700F0
:102FC0000700070007000770077003E0000000001B
:102FD0000000000000000000000000001C701C70D9
:102FE0001C701C701C701C701C700FD8000000003E
:102FF0000000000000000000000000001C701C70B9
:103000001C701C701C700EE007C0038000000000E4
:103010000000000000000000000000001C1C1C1C40
:103020001C1C1C9C1C9C0FF8077007700000000003
:103030000000000000000000000000001CE01CE098
:103040000FC0078007800FC01CE01CE000000000DC
:103050000000000000000000000000000E380E38E4
:103060000E380E380E3807F003E000E001C01F8074
:103070000000000000000000000000001FE018E059
:1030800011C0038007000E201C601FE0000000003C
:103090000000000001F803800380038007001C008B
:1030A0001C00070003800380038001F8000000007B
:1030B000000001C001C001C001C001C001C001C0C9
:1030C00001C001C001C001C001C001C001C00000B9
:1030D000000000001F8001C001C001C000E00038F6
:1030E000003800E001C001C001C01F8000000000E6
:1030F000000000001F1C3B9C39DC38F80000000079
:1031000000000000000000000000000000000000BF
:1031100000002100240027002A002D003000330089
:1031200001010000040107010A0100000A0B020965
:103130000C0D0E0807030401000000000000000051
:10314000000000000000000000000000000000007F
:10315000000000000000121110000000000000003C
:10316000000000000000000000000000000000005F
:10317000000020002300260029002C002F00320030
:1031800000010000030106010901000022002500E2
:1031900028002B002E003100340002010000050140
:1031A00008010B01050505050705080808080202C6
:1031B00002020A0A080804040404010101010101D1
:1031C00001010303030303030303040707070C0CB4
:1031D0000C0C0C0C0C0C020202020606060606067B
:1031E00006060B0B0B0B0B0B0B0B01021020200820
:1031F0000810204010204080020102010804020152
:1032000001020408102040808040201008040201C0
:103210008004020180402010080402010804020119
:1032200001020408102040800102040810204080A0
:1032300000E010E080915002882309F10FB6F89465
:103240000F92E0916F02F0917002C681D781CE019A
:1032500002960E94DC598091A40281508093A402BE
:10326000809150028150809350020F900FBE8F8941
:10327000988D0E94675ACE010E94675ADBCF8091D9
:103280007C02823010F00E94FD520115110591F26E
:103290000E940000CFCF845711241FBECFEFD1E290
:1032A000DEBFCDBF00E00CBF24E0AEE4B2E001C061
:1032B0001D92AA38B207E1F712E0A0E0B2E0E8E11F
:1032C000FEEB00E00BBF02C007900D92AE34B107D9
:1032D000D9F719E1CCE4D9E100E006C02197010952
:1032E000802FFE010E94C55DCB34D10780E0080726
:1032F000A9F70E94925A0C940A5F0C9400002F9236
:103300003F924F925F926F927F928F929F92AF9275
:10331000BF92CF92DF92EF92FF920F931F93CF93C2
:10332000DF93CDB7DEB762970FB6F894DEBF0FBE5E
:10333000CDBF81E080930E04E0912004F091210440
:10334000908180912B04892B808365E070E080E080
:1033500090E00E94074FE0912004F09121049081B9
:1033600080912B048095892380836FE070E080E05A
:1033700090E00E94074FE0912004F0912104908199
:1033800080912B04892B80836FE070E080E090E0D7
:103390000E94074FE0911E04F0911F0490818091DC
:1033A0002A048095892380838091170490E08B31D3
:1033B000910510F00C94D636FC018827EE58FF4F8B
:1033C0008F4F0C94C55D44EA50E066E48AE094E0D7
:1033D0000E94114143E550E067E48AE094E00E94D6
:1033E000114140E050E068E48AE094E00E9411411D
:1033F00044E450E069E48AE094E00E94114144E032
:1034000050E06AE48AE094E00E94114147E650E00F
:103410006BE48AE094E00E94114143E350E06CE4E5
:103420008AE094E00E94114147E750E06DE48AE0B1
:1034300094E00E94114142E150E06EE48AE094E0A1
:103440000E9411414CE450E06FE48AE094E00E9455
:10345000114146E450E060E58AE094E00E941141A9
:1034600044E450E061E58AE094E00E94114140E0CC
:1034700050E062E08AE094E00E94114140E050E0B8
:1034800063E08AE094E00E94114140E050E064E093
:103490008AE094E00E9411414FEE50E065E08AE03E
:1034A00094E00E94114140E050E066E08AE094E040
:1034B0000E94114140E050E067E08AE094E00E9401
:1034C000114141E050E068E08AE094E00E9411413F
:1034D0004FE350E069E08AE094E00E94114146E049
:1034E00050E061E08AE094E00E94114148EC50E035
:1034F00066E18AE094E00E94114145E950E063E210
:103500008AE094E00E94114145E950E064E28AE0DB
:1035100094E00E9411414FEF50E065E28AE094E0B0
:103520000E94114142E050E067E28AE094E00E948C
:10353000114142E050E068E28AE094E00E941141CB
:1035400042E050E069E28AE094E00E94114142E0EA
:1035500050E06AE28AE094E00E94114142E050E0CB
:103560006CE28AE094E00E94114142E050E06DE29A
:103570008AE094E00E94114141E050E06AE38AE071
:1035800094E00E94114140E050E06BE38AE094E057
:103590000E94114140EF50E06CE38AE094E00E9409
:1035A000114140E050E06DE38AE094E00E94114157
:1035B00061E070E080E090E00E94074F48E350E057
:1035C00065E38AE094E00E94114148E750E066E339
:1035D0008AE094E00E94114148E350E06EE38AE003
:1035E00094E00E9411414FE050E060E48AE094E0F2
:1035F0000E94114140EF50E061E48AE094E00E94B3
:10360000114149E450E069E18AE094E00E941141EF
:103610004FE050E063E98AE094E00E94114161E0EC
:1036200070E080E090E00E94074F40E450E060E2EC
:103630008AE094E00E94114147E050E06DE18AE0A9
:1036400094E00E94114140E050E06EE18AE094E095
:103650000E94114144E050E06FE18AE094E00E9452
:1036600011414DE450E064E48AE094E00E9411418D
:103670004EE050E065E48AE094E00E94114161E090
:1036800070E080E090E00E94074F44E050E06CE181
:103690008AE094E00E94114162E070E080E090E0F6
:1036A0000E94074F48E150E06BE18AE094E00E94FD
:1036B000114161E070E080E090E00E94074F40E13E
:1036C00050E06BE18AE094E00E94114161E070E01B
:1036D00080E090E00E94074F40E850E063E48AE019
:1036E00094E00E94114162E070E080E090E00E946E
:1036F000074F4FE750E060E98AE094E00E941141F3
:1037000044E050E066E28AE094E00E94114161E00A
:1037100070E080E090E00E94074F44E250E066E2F3
:103720008AE094E00E9411414CE250E066E28AE0B7
:1037300094E00E94114161E070E080E090E00E941E
:10374000074F4CE350E066E28AE094E00E941141AA
:1037500042E050E067E58AE094E00E94114141E0D8
:1037600050E065E98AE094E00E94114140E050E0B9
:1037700067E50C945D3369EE8AE094E00E94F940BD
:1037800040E260E08AE094E00E94D54061E18AE096
:1037900094E00E94F94064E670E080E090E00E94CE
:1037A000074F61ED8AE094E00E94F94040E060E05C
:1037B0008AE094E00E94D54041E760E08AE094E02E
:1037C0000E94D54049E160E08AE094E00E94D54043
:1037D00060ED8AE094E00E94F94047E060E08AE012
:1037E00094E00E94D54041E060E08AE094E00E94CD
:1037F000D54048E060E08AE094E00E94D54066E36E
:103800008AE094E00E94F94048E460E08AE094E0B5
:103810000E94D5406AE38AE094E00E94F94045E0C6
:1038200060E08AE094E00E94D54061EC8AE094E098
:103830000E94F94040E160E08AE094E00E94D540B7
:1038400040E160E08AE094E00E94D54042E060E020
:103850008AE094E00E94D54042E060E08AE094E093
:103860000E94D54060EC8AE094E00E94F94040E07C
:1038700060E08AE094E00E94D54045E360E08AE0A1
:1038800094E00E94D54040E060E08AE094E00E942D
:10389000D54040E060E08AE094E00E94D54041E0FD
:1038A00060E08AE094E00E94D54042E060E08AE077
:1038B00094E00E94D54065EC8AE094E00E94F940D3
:1038C00044E060E08AE094E00E94D54062ED8AE046
:1038D00094E00E94F94041E060E08AE094E00E94B8
:1038E000D54044E460E08AE094E00E94D54068EC72
:1038F0008AE094E00E94F94044E060E08AE094E0CD
:103900000E94D54047E660E08AE094E00E94D540FE
:1039100045E360E08AE094E00E94D54044E060E046
:103920008AE094E00E94D54048E060E08AE094E0BC
:103930000E94D54046E060E08AE094E00E94D540D5
:1039400044E260E08AE094E00E94D54041E060E01B
:103950008AE094E00E94D54047E360E08AE094E08A
:103960000E94D54040E460E08AE094E00E94D540A7
:1039700043E060E08AE094E00E94D54040E160E0EE
:103980008AE094E00E94D54048E060E08AE094E05C
:103990000E94D54040E860E08AE094E00E94D54073
:1039A00040E060E08AE094E00E94D5406AE28AE06C
:1039B00094E00E94F94040E060E08AE094E00E94D8
:1039C000D54040E060E08AE094E00E94D54040E0CD
:1039D00060E08AE094E00E94D5404FEE60E08AE02B
:1039E00094E00E94D5406BE28AE094E00E94F940A6
:1039F00040E060E08AE094E00E94D54040E060E072
:103A00008AE094E00E94D54041E060E08AE094E0E2
:103A10000E94D5404FE860E08AE094E00E94D540E3
:103A20000C94CC3641E050E060E08AE094E00E94E3
:103A3000114144EA58EA63E08AE094E00E941141AF
:103A400040E050E06CE08AE094E00E9411414CE0DC
:103A500058E06DE08AE094E00E94114140E05BE2B2
:103A60006EE08AE094E00E94114147EB50E06EE185
:103A70008AE094E00E9411414FE35BE261E08AE05A
:103A800094E00E94114140E056E062E08AE094E058
:103A90000E94114140E050E060E18AE094E00E9421
:103AA000114140E750E661E18AE094E00E94114153
:103AB00040E050E065E08AE094E00E94114140E07F
:103AC00050E066E08AE094E00E9411414CE15FEE34
:103AD00066E18AE094E00E94114143E050E067E132
:103AE0008AE094E00E94114143E352E067E08AE0FB
:103AF00094E00E94114140E050E06BE08AE094E0E5
:103B00000E94114140E050E06FE08AE094E00E94A2
:103B1000114140E050E061E48AE094E00E941141EC
:103B200040E050E062E48AE094E00E94114140E00D
:103B300050E068E48AE094E00E9411414FE351E0D4
:103B400069E48AE094E00E94114140E050E06AE4B8
:103B50008AE094E00E94114140E050E06BE48AE08A
:103B600094E00E94114140E05FEE64E48AE094E05A
:103B70000E94114140E050E065E48AE094E00E9438
:103B800011414FE351E066E48AE094E00E94114164
:103B900047E057E060E38AE094E00E94114144E08E
:103BA00052E061E38AE094E00E94114144E052E077
:103BB00062E38AE094E00E94114142E055E063E351
:103BC0008AE094E00E94114147E055E064E38AE016
:103BD00094E00E94114144E052E065E38AE094E001
:103BE0000E94114144E052E066E38AE094E00E94C2
:103BF000114142E055E067E38AE094E00E94114100
:103C000042E053E06AE38AE094E00E94114142E01E
:103C100053E06BE38AE094E00E94114140E050E001
:103C200063E28AE094E00E94114140E050E064E2E7
:103C30008AE094E00E94114140E050E865E28AE0A9
:103C400094E00E94114140E050E06FE48AE094E08B
:103C50000E94114140E050E06EE40C945D3340EF6F
:103C600058E765EE8AE094E00E94114140E051E09F
:103C700061E08AE094E00E94114140E057E062E098
:103C80008AE094E00E94114140E350E163E08AE061
:103C900094E00E94114140E050E064E08AE094E04A
:103CA0000E94114147E052E068E08AE094E00E94FF
:103CB000114140E050E069E08AE094E00E94114147
:103CC00040E050E06AE08AE094E00E94114140E068
:103CD00050E06CE08AE094E00E94114140E050E046
:103CE0006DE08AE094E00E94114140E050E06FE016
:103CF0008AE094E00E94114140E050E060E18AE0F7
:103D000094E00E94114147E050E061E18AE094E0D4
:103D10000E94114140E050E062E18AE094E00E949C
:103D2000114140E050E063E18AE094E00E941141DB
:103D300041E050E067E08AE094E00E94114168ECC5
:103D400070E080E090E00E94074F40E950E160E1C0
:103D50008AE094E00E94114147E252E061E18AE08A
:103D600094E00E94114162E370E080E090E00E94E4
:103D7000074F4FE150E062E18AE094E00E94114178
:103D800062E370E080E090E00E94074F40E055E180
:103D900063E18AE094E00E94114147E250E069E269
:103DA0008AE094E00E9411414DE050E06BE28AE02D
:103DB00094E00E94114162E370E080E090E00E9494
:103DC000074F40E050E060E28AE094E00E94114139
:103DD00040E050E061E28AE094E00E94114140E05E
:103DE00050E060E38AE094E00E94114147E057E030
:103DF00061E38AE094E00E94114147E053E062E30E
:103E00008AE094E00E94114140E052E065E38AE0DC
:103E100094E00E94114148E050E066E38AE094E0BB
:103E20000E94114144E050E067E38AE094E00E9480
:103E3000114140E050E068E38AE094E00E941141C3
:103E400047E057E069E38AE094E00E94114142E0D4
:103E500050E06CE38AE094E00E94114144E05DE1AF
:103E60006DE38AE094E00E94114140E050E060E59B
:103E70008AE094E00E9411414FEE50E061E58AE053
:103E800094E00E94114140E050E062E58AE094E055
:103E90000E9411414FE351E063E58AE094E00E9403
:103EA000114140E057EA60E68AE094E00E94114147
:103EB00041E050E061E68AE094E00E94114140E078
:103EC00050E06AE68AE094E00E94114140E050E050
:103ED00060E88AE094E00E94114140E050E061E82F
:103EE0008AE094E00E94114140E050E062E88AE0FC
:103EF00094E00E94114140E050E063E88AE094E0E1
:103F00000E94114140E050E064E88AE094E00E94A1
:103F1000114140E050E065E88AE094E00E941141E0
:103F200040E150E060E98AE094E00E94114140E005
:103F300056E012C240EF58E765EE8AE094E00E9436
:103F4000114140E051E061E08AE094E00E941141BB
:103F500040E052E062E08AE094E00E94114140E3D8
:103F600050E163E08AE094E00E94114140E050E0BB
:103F700064E08AE094E00E94114147E052E068E08A
:103F80008AE094E00E94114140E050E069E08AE05C
:103F900094E00E94114140E050E06AE08AE094E041
:103FA0000E94114140E050E06CE08AE094E00E9401
:103FB000114140E050E06DE08AE094E00E94114140
:103FC00040E050E06FE08AE094E00E94114140E060
:103FD00050E060E18AE094E00E94114147E050E047
:103FE00061E18AE094E00E94114140E050E062E12A
:103FF0008AE094E00E94114140E050E063E18AE0F1
:1040000094E00E94114141E050E067E08AE094E0D2
:104010000E94114168EC70E080E090E00E94074F40
:1040200040E956E160E18AE094E00E94114147E2F4
:1040300052E061E18AE094E00E94114162E370E0A5
:1040400080E090E00E94074F4DE050E062E18AE09E
:1040500094E00E94114162E370E080E090E00E94F1
:10406000074F40E052E163E18AE094E00E94114191
:104070004AE050E069E28AE094E00E9411414DE09C
:1040800050E0A7C040EF58E765EE8AE094E00E9458
:10409000114140E051E061E08AE094E00E9411416A
:1040A00040E057E062E08AE094E00E94114140E382
:1040B00050E163E08AE094E00E94114140E050E06A
:1040C00064E08AE094E00E94114147E052E068E039
:1040D0008AE094E00E94114140E050E069E08AE00B
:1040E00094E00E94114140E050E06AE08AE094E0F0
:1040F0000E94114140E050E06CE08AE094E00E94B0
:10410000114140E050E06DE08AE094E00E941141EE
:1041100040E050E06FE08AE094E00E94114140E00E
:1041200050E060E18AE094E00E94114147E050E0F5
:1041300061E18AE094E00E94114140E050E062E1D8
:104140008AE094E00E94114140E050E063E18AE09F
:1041500094E00E94114141E050E067E08AE094E081
:104160000E94114168EC70E080E090E00E94074FEF
:1041700040E955E160E18AE094E00E94114147E2A4
:1041800052E061E18AE094E00E94114162E370E054
:1041900080E090E00E94074F4CE950E062E18AE045
:1041A00094E00E94114162E370E080E090E00E94A0
:1041B000074F40E059E163E18AE094E00E94114139
:1041C00043E250E069E28AE094E00E9411414EE04F
:1041D00050E06BE28AE094E00E94114162E370E0FB
:1041E00080E090E00E94074F40E050E060E28AE00B
:1041F00094E00E94114140E050E061E28AE094E0E6
:104200000E94114140E050E060E38AE094E00E94A7
:10421000114144E054E061E38AE094E00E941141DE
:1042200043E050E062E38AE094E00E94114145E0FF
:1042300054E065E38AE094E00E94114148E058E0D0
:1042400066E38AE094E00E94114147E054E067E3AE
:104250008AE094E00E94114143E053E068E38AE081
:1042600094E00E94114147E057E069E38AE094E05E
:104270000E94114144E055E06CE38AE094E00E9422
:10428000114148E058E06DE38AE094E00E9411415A
:1042900040E050E060E58AE094E00E9411414FEE7A
:1042A00050E061E58AE094E00E94114140E050E076
:1042B00062E58AE094E00E9411414FE351E063E53A
:1042C0008AE094E00E94114140E057EA60E68AE00B
:1042D00094E00E94114141E050E061E68AE094E000
:1042E0000E94114140E050E06AE68AE094E00E94BA
:1042F000114140E050E060E88AE094E00E94114102
:1043000040E050E061E88AE094E00E94114140E022
:1043100050E062E88AE094E00E94114140E050E001
:1043200063E88AE094E00E94114140E050E064E8D4
:104330008AE094E00E94114140E050E065E88AE0A4
:1043400094E00E94114140E150E060E98AE094E08D
:104350000E94114140E050E062E98AE094E00E944E
:10436000114143E351E067E08AE094E00E9411418B
:104370000C94D63644E850E066E28AE094E00E946D
:10438000114168E270E080E090E00E94074F48EB46
:1043900050E066E28AE094E00E94114168E270E039
:1043A00080E090E00E94074F4CEB50E066E28AE02C
:1043B00094E00E94114164E170E080E090E00E948E
:1043C000074F40E050E060E68AE094E00E9411412F
:1043D00046E050E061E68AE094E00E94114140E04E
:1043E00050E062E68AE094E00E94114148EC50E01F
:1043F00063E68AE094E00E94114164E170E080E0AD
:1044000090E00E94074F40E750E063E78AE094E0C5
:104410000E94114140E050E060E48AE094E00E9494
:10442000114140E450E061E48AE094E00E941141CF
:1044300045E450E062E48AE094E00E94114141E0EA
:1044400050E063E48AE094E00E94114140E650E0CD
:1044500064E48AE094E00E94114145E050E065E4A4
:104460008AE094E00E9411414CE050E066E48AE06A
:1044700094E00E94114141ED50E067E48AE094E04D
:104480000E94114145E050E068E48AE094E00E9417
:10449000114145E750E060E58AE094E00E94114157
:1044A00041E050E061E58AE094E00E94114147E676
:1044B00050E062E58AE094E00E94114144E150E05E
:1044C00063E58AE094E00E94114142EF50E064E528
:1044D0008AE094E00E94114147E050E065E58AE0FF
:1044E00094E00E94114143E050E066E58AE094E0E8
:1044F0000E94114149E450E067E58AE094E00E949F
:10450000114164E170E080E090E00E94074F43E0D9
:1045100050E06FE18AE094E00E94114140E050E0F9
:1045200060E28AE094E00E94114144E250E064E2DB
:104530008AE094E00E94114144E350E065E28AE0A1
:1045400094E00E9411414FE250E063E28AE094E07F
:104550000E94114164E170E080E090E00E94074F0A
:1045600044E450E068E18AE094E00E94114141E0B7
:1045700050E061E28AE094E00E94114140E050E0A6
:1045800061E08AE094E00E94114143E050E06CE178
:104590008AE094E00E94114146E050E069E18AE03F
:1045A00094E00E94114164E170E080E090E00E949C
:1045B000074F44E850E066E28AE094E00E9411412F
:1045C00068E270E080E090E00E94074F48EB50E026
:1045D00066E28AE094E00E94114168E270E080E0C7
:1045E00090E00E94074F4CEB50E066E28AE094E0D6
:1045F0000E94114164E170E080E090E00E94074F6A
:1046000040E050E062E08AE094E00E94114140E026
:1046100050E063E08AE094E00E94114140E050E005
:1046200064E08AE094E00E9411414FEA50E065E0C6
:104630008AE094E00E94114140E050E066E08AE0A8
:1046400094E00E94114140E050E067E08AE094E08D
:104650000E94114140E050E068E08AE094E00E944E
:1046600011414BED50E069E08AE094E00E94114175
:1046700064E170E080E090E00E94074F48E050E085
:1046800066E18AE094E00E94114145E050E067E174
:104690008AE094E00E94114161E28AE094E00E9485
:1046A000F9400C94613361EC8AE094E00E94F94097
:1046B0006FEF8AE094E00E94BD4063E88AE094E0F6
:1046C0000E94BD4060E48AE094E00E94BD4061E148
:1046D0008AE094E00E94F94064E670E080E090E0B7
:1046E0000E94074F6AEC8AE094E00E94F94060E77C
:1046F0008AE094E00E94BD4060E08AE094E00E947D
:10470000BD4069ED8AE094E00E94BD4061E08AE02E
:1047100094E00E94BD4061E18AE094E00E94BD40C7
:1047200069EC8AE094E00E94F94060E98AE094E054
:104730000E94BD4069E48AE094E00E94BD4060E1CF
:104740008AE094E00E94BD4068E28AE094E00E9422
:10475000BD4068E28AE094E00E94BD4060E18AE0EA
:1047600094E00E94BD4060E08AE094E00E94BD4079
:1047700066E08AE094E00E94BD4064E170E080E081
:1047800090E00E94074F62EC8AE094E00E94F940BA
:1047900060E68AE094E00E94BD4061E78AE094E030
:1047A0000E94BD4061E08AE094E00E94BD406EE05E
:1047B0008AE094E00E94BD4065E08AE094E00E94B7
:1047C000BD4062E08AE094E00E94BD4069E08AE07A
:1047D00094E00E94BD4061E38AE094E00E94BD4005
:1047E0006AE08AE094E00E94BD4063EC8AE094E0D5
:1047F0000E94F94067E68AE094E00E94BD4060E3D1
:104800008AE094E00E94BD4061E68AE094E00E9464
:10481000BD4067E18AE094E00E94BD4068E48AE020
:1048200094E00E94BD4067E08AE094E00E94BD40B1
:1048300065E08AE094E00E94BD4063E38AE094E092
:104840000E94BD406AE070E080E090E00E94074F67
:1048500065EB8AE094E00E94F94065E38AE094E029
:104860000E94BD4060E28AE094E00E94BD4065E4A1
:104870008AE094E00E94BD4064EB8AE094E00E94EC
:10488000F94063E38AE094E00E94BD4065E28AE07B
:1048900094E00E94BD406CE48AE094E00E94BD4038
:1048A0006AE070E080E090E00E94074F6AE38AE0EF
:1048B00094E00E94F94065E08AE094E00E94BD40E7
:1048C00069E28AE094E00E94F9406AE070E080E0EA
:1048D00090E00E94074F6AE28AE094E00E94F9406B
:1048E00060E08AE094E00E94BD4060E08AE094E0ED
:1048F0000E94BD4060E08AE094E00E94BD406FEA03
:104900008AE094E00E94BD406BE28AE094E00E945D
:10491000F94060E08AE094E00E94BD4060E08AE0F7
:1049200094E00E94BD4060E08AE094E00E94BD40B7
:104930006BED0C94C12E61E18AE094E00E94F94095
:104940006CE070E080E090E00E94074F61EB8AE04D
:1049500094E00E94F94061E08AE094E00E94BD404A
:104960006CE28AE094E00E94BD406DE28AE094E04F
:104970000E94BD4062EB8AE094E00E94F94061E051
:104980008AE094E00E94BD406CE28AE094E00E94DC
:10499000BD406DE28AE094E00E94BD4063EB8AE096
:1049A00094E00E94F94061E08AE094E00E94BD40FA
:1049B0006CE28AE094E00E94BD406DE28AE094E0FF
:1049C0000E94BD4061E08AE094E00E94BD406CE23C
:1049D0008AE094E00E94BD406DE28AE094E00E948B
:1049E000BD4064EB8AE094E00E94F94067E08AE011
:1049F00094E00E94BD4060EC8AE094E00E94F9409F
:104A000062EA8AE094E00E94BD4062E08AE094E0BD
:104A10000E94BD4064E88AE094E00E94BD4061ECE1
:104A20008AE094E00E94F94065EC8AE094E00E94FC
:104A3000BD4062EC8AE094E00E94F9406AE08AE0BE
:104A400094E00E94BD4060E08AE094E00E94BD4096
:104A500063EC8AE094E00E94F9406AE88AE094E01E
:104A60000E94BD406AE28AE094E00E94BD4064EC8E
:104A70008AE094E00E94F9406AE88AE094E00E94AB
:104A8000BD406EEE8AE094E00E94BD4065EC8AE095
:104A900094E00E94F9406EE08AE094E00E94BD40FC
:104AA00066E38AE094E00E94F94068EC8AE094E0D2
:104AB0000E94BD4060EE8AE094E00E94F9406FE001
:104AC0008AE094E00E94BD406AE18AE094E00E949E
:104AD000BD406FE08AE094E00E94BD4068E18AE05A
:104AE00094E00E94BD406FE28AE094E00E94BD40E5
:104AF00068E28AE094E00E94BD4060E28AE094E0CF
:104B00000E94BD4062E28AE094E00E94BD406FE1F5
:104B10008AE094E00E94BD406BE18AE094E00E944C
:104B2000BD4063E28AE094E00E94BD4067E38AE012
:104B300094E00E94BD4060E08AE094E00E94BD40A5
:104B400067E08AE094E00E94BD4062E08AE094E081
:104B50000E94BD4060E18AE094E00E94BD4061EEA9
:104B60008AE094E00E94F9406FE08AE094E00E94BD
:104B7000BD406BE18AE094E00E94BD406FE08AE0B6
:104B800094E00E94BD4067E18AE094E00E94BD404D
:104B900063E38AE094E00E94BD406CE28AE094E026
:104BA0000E94BD4069E28AE094E00E94BD406EE24E
:104BB0008AE094E00E94BD4060E38AE094E00E94B5
:104BC000BD4060E38AE094E00E94BD4069E38AE072
:104BD00094E00E94BD406FE38AE094E00E94BD40F3
:104BE00060E08AE094E00E94BD4067E08AE094E0E3
:104BF0000E94BD4063E08AE094E00E94BD4060E115
:104C00008AE094E00E94BD406AE28AE094E00E945B
:104C1000F94060E08AE094E00E94BD4060E08AE0F4
:104C200094E00E94BD4060E08AE094E00E94BD40B4
:104C30006FE78AE094E00E94BD406BE28AE094E076
:104C40000E94F94060E08AE094E00E94BD4060E08C
:104C50008AE094E00E94BD4060E08AE094E00E9417
:104C6000BD406FE98AE094E00E94BD4060EF8AE0B9
:104C700094E00E94F94061E08AE094E00E94BD4027
:104C800066EF8AE094E00E94F94060E00C94C8343A
:104C900061E08AE094E00E94F94065E28AE094E0F5
:104CA0000E94F94060E48AE094E00E94BD4061E126
:104CB0008AE094E00E94F9406AE070E080E090E0D1
:104CC0000E94074F60E28AE094E00E94F94068E3A6
:104CD0008AE094E00E94F94069E28AE094E00E9450
:104CE000F94063E18AE094E00E94F94066E38AE0DB
:104CF00094E00E94F94060E68AE094E00E94BD40A2
:104D00006AE38AE094E00E94F94065E08AE094E07A
:104D10000E94BD406AE28AE094E00E94F94060E0AF
:104D20008AE094E00E94BD406FE78AE094E00E9430
:104D3000BD4064EB8AE094E00E94F94063E08AE0C1
:104D400094E00E94BD4068E08AE094E00E94BD408B
:104D50006BE08AE094E00E94BD406EE08AE094E05F
:104D60000E94BD406AEB8AE094E00E94F94067E04F
:104D70008AE094E00E94BD406DE08AE094E00E94E9
:104D8000BD406BE28AE094E00E94F94060E08AE076
:104D900094E00E94BD406FE7F4C761E18AE094E0CF
:104DA0000E94F94063E18AE094E00E94F94069E2E0
:104DB0008AE094E00E94F94060EB8AE094E00E946F
:104DC000F94065E08AE094E00E94BD4060E08AE03E
:104DD00094E00E94BD4060EF8AE094E00E94BD40F4
:104DE0006AE08AE094E00E94BD4061E48AE094E0D9
:104DF0000E94BD4062E08AE094E00E94BD406AE00B
:104E00008AE094E00E94BD4060E38AE094E00E9462
:104E1000BD4061E38AE094E00E94BD4066E38AE021
:104E200094E00E94BD4067E38AE094E00E94BD40A8
:104E300060E48AE094E00E94BD4062E08AE094E091
:104E40000E94BD406FE38AE094E00E94BD4060E4B0
:104E50008AE094E00E94BD4062E08AE094E00E9413
:104E6000BD4061E88AE094E00E94BD4064E08AE0D1
:104E700094E00E94BD4065E08AE094E00E94BD405D
:104E800064E68AE094E00E94BD406CEF8AE094E022
:104E90000E94F94068E88AE094E00E94BD4060E02A
:104EA0008AE094E00E94BD4060E18AE094E00E94C4
:104EB000BD4061E08AE094E00E94BD4061E08AE08C
:104EC00094E00E94BD4060E18AE094E00E94BD4011
:104ED00062E48AE094E00E94BD4062E48AE094E0EB
:104EE0000E94BD4062E28AE094E00E94BD4061E120
:104EF0008AE094E00E94BD4061E18AE094E00E9473
:104F0000BD4062E28AE094E00E94BD4069E98AE027
:104F100094E00E94BD406AEA8AE094E00E94BD40AD
:104F20006AEA8AE094E00E94BD406AEA8AE094E07E
:104F30000E94BD406BEB8AE094E00E94BD406BEBA9
:104F40008AE094E00E94BD406AEA8AE094E00E9410
:104F5000BD4063E38AE094E00E94BD4063E38AE0E1
:104F600094E00E94BD4061E18AE094E00E94BD406F
:104F700061E08AE094E00E94BD4061E08AE094E054
:104F80000E94BD4061E08AE094E00E94BD4060E084
:104F90008AE094E00E94BD4060E08AE094E00E94D4
:104FA000BD4060EC8AE094E00E94BD4060E08AE091
:104FB00094E00E94BD4060E08AE094E00E94BD4021
:104FC00060E08AE094E00E94BD4060E08AE094E006
:104FD0000E94BD406DEF8AE094E00E94F94068E8CD
:104FE0008AE094E00E94BD4060E08AE094E00E9484
:104FF000BD4060E18AE094E00E94BD4061E08AE04B
:1050000094E00E94BD4061E08AE094E00E94BD40CF
:1050100060E18AE094E00E94BD4062E48AE094E0AE
:105020000E94BD4062E48AE094E00E94BD4062E2DA
:105030008AE094E00E94BD4061E18AE094E00E9431
:10504000BD4061E18AE094E00E94BD4062E28AE0F6
:1050500094E00E94BD4069E98AE094E00E94BD406E
:105060006AEA8AE094E00E94BD406AEA8AE094E03D
:105070000E94BD406AEA8AE094E00E94BD406BEB6A
:105080008AE094E00E94BD406BEB8AE094E00E94CD
:10509000BD406AEA8AE094E00E94BD4063E38AE092
:1050A00094E00E94BD4063E38AE094E00E94BD402A
:1050B00061E18AE094E00E94BD4061E08AE094E012
:1050C0000E94BD4061E08AE094E00E94BD4061E042
:1050D0008AE094E00E94BD4060E08AE094E00E9493
:1050E000BD4060E08AE094E00E94BD4060E08AE05C
:1050F00094E00E94BD4060E08AE094E00E94BD40E0
:1051000060E08AE094E00E94BD4060E08AE094E0C4
:105110000E94BD4063E08AE094E00E94BD406EEBD7
:105120008AE094E00E94F94060E08AE094E00E9406
:10513000BD4065E18AE094E00E94BD4066E18AE0FE
:1051400094E00E94BD4068E08AE094E00E94BD4087
:1051500069E08AE094E00E94BD4065E18AE094E065
:105160000E94BD4060E18AE094E00E94BD4060E0A2
:105170008AE094E00E94BD4060E08AE094E00E94F2
:10518000BD4060E08AE094E00E94BD4060EC8AE0AF
:1051900094E00E94F9406EE08AE094E00E94BD40F5
:1051A00061E08AE094E00E94BD4060E08AE094E023
:1051B0000E94BD4060E08AE094E00E94BD4060E053
:1051C0008AE094E00E94BD4061EC8AE094E00E9495
:1051D000F9406FE28AE094E00E94BD4063E28AE019
:1051E00094E00E94BD4064EB8AE094E00E94BD40E0
:1051F0006FEF8AE094E00E94BD4064E28AE094E0B0
:105200000E94BD4063E08AE094E00E94BD4060E2FD
:105210008AE094E00E94BD4062E08AE094E00E944F
:10522000BD4062E08AE094E00E94BD4062E08AE016
:1052300094E00E94BD4060E28AE094E00E94BD409C
:1052400060E28AE094E00E94BD4060E08AE094E081
:105250000E94BD4062EC8AE094E00E94F94063E065
:105260008AE094E00E94BD4066E28AE094E00E94F9
:10527000F94068E08AE094E00E94BD4065E38AE07E
:1052800094E00E94F94066E38AE094E00E94F940CD
:1052900064E68AE094E00E94BD406AE38AE094E01C
:1052A0000E94F94065E08AE094E00E94BD406AE215
:1052B0008AE094E00E94F9404FE361E08AE094E0E4
:1052C0000E94D5406BE28AE094E00E94F9406FEEC4
:1052D0008AE094E00E94BD406CE28AE094E00E9483
:1052E000F9406DE28AE094E00E94F94010E0612FFD
:1052F0008AE094E00E94BD401E5F1034C1F710E0C8
:10530000612F8AE094E00E94BD401F5F1034C1F716
:1053100010E0612F8AE094E00E94BD401E5F1034CF
:10532000C1F70C94D63663E88AE094E00E94F94015
:1053300062E08AE094E00E94BD4065E88AE094E083
:105340000E94F94063E08AE094E00E94BD406BE86F
:105350008AE094E00E94F94061E08AE094E00E94D3
:10536000BD406CE88AE094E00E94F94063E98AE07D
:1053700094E00E94BD4061E98AE094E00E94F94017
:1053800061E08AE094E00E94BD4063E88AE094E036
:105390000E94F94060E08AE094E00E94BD406EE324
:1053A0008AE094E00E94F94060EB8AE094E00E9479
:1053B000BD406FE38AE094E00E94F94063E08AE038
:1053C00094E00E94BD4060E48AE094E00E94F940CD
:1053D00060E18AE094E00E94BD4061E48AE094E0EC
:1053E0000E94F94066E58AE094E00E94BD4062E4D4
:1053F0008AE094E00E94F94063E18AE094E00E9430
:10540000BD4063E48AE094E00E94F94066E48AE0EB
:1054100094E00E94BD4064E48AE094E00E94F94078
:1054200063E28AE094E00E94BD4065E48AE094E093
:105430000E94F94066E78AE094E00E94BD4066E47D
:105440008AE094E00E94F94060E08AE094E00E94E3
:10545000BD4067E48AE094E00E94F9406EE58AE08E
:1054600094E00E94BD4068E48AE094E00E94F94024
:105470006FE48AE094E00E94BD4069E48AE094E031
:105480000E94F94060E48AE094E00E94BD4067E138
:105490008AE094E00E94F94061E98AE094E00E9489
:1054A000BD406BE28AE094E00E94F94069EF8AE037
:1054B00094E00E94BD406AE070E080E090E00E94CD
:1054C000074F6BE18AE094E00E94F94064E18AE0D2
:1054D00094E00E94BD406AE18AE094E00E94F940B5
:1054E00061E18AE094E00E94BD406CE18AE094E0D2
:1054F0000E94F94066E08AE094E00E94BD406FE1BE
:105500008AE094E00E94F94062E48AE094E00E941C
:10551000BD4064E170E080E090E00E94074F69E1E7
:105520008AE094E00E94F9406AE08AE094E00E94F8
:10553000BD4069E18AE094E00E94F9406AE18AE0B6
:1055400094E00E94BD4068E270E080E090E00E943C
:10555000074F69E18AE094E00E94F94062E18AE045
:1055600094E00E94BD4068E270E080E090E00E941C
:10557000074F6EE18AE094E00E94F94067E28AE01A
:1055800094E00E94BD4064E670E080E090E00E94FC
:10559000074F64E28AE094E00E94F94060E68AE006
:1055A00094E00E94BD406DE38AE094E00E94F940DF
:1055B00060E48AE094E00E94BD4064E38AE094E005
:1055C0000E94F94068E38AE094E00E94BD4065E3F0
:1055D0008AE094E00E94F94068E38AE094E00E9447
:1055E000BD4064E28AE094E00E94F94068E38AE00A
:1055F00094E00E94BD4068E270E080E090E00E948C
:10560000074F64E28AE094E00E94F9406CE38AE08C
:1056100094E00E94BD4066E18AE094E00E94F94077
:105620006CE18AE094E00E94BD4061E08AE094E091
:105630000E94F94066E08AE094E00E94BD4065E582
:105640008AE094E00E94F94060E08AE094E00E94E1
:10565000BD4062E08AE094E00E94F94060E08AE0A8
:1056600094E00E94BD4063E08AE094E00E94F9402B
:1056700060E08AE094E00E94BD4064E08AE094E04B
:105680000E94F94060E08AE094E00E94BD4065E03D
:105690008AE094E00E94F9406FEE8AE094E00E9474
:1056A000BD4066E08AE094E00E94F94060E08AE054
:1056B00094E00E94BD4067E08AE094E00E94F940D7
:1056C00060E08AE094E00E94BD4068E08AE094E0F7
:1056D0000E94F94061E08AE094E00E94BD4069E0E8
:1056E0008AE094E00E94F9406FE88AE094E00E942A
:1056F000BD40E7C762EE8AE094E00E94F94063E2B1
:105700008AE094E00E94BD4062E08AE094E00E945A
:10571000BD4064E58AE094E00E94BD4060EE8AE00E
:1057200094E00E94F94061E08AE094E00E94BD406C
:105730006AE070E080E090E00E94074F60EE8AE04F
:1057400094E00E94F94063E08AE094E00E94BD404A
:105750006AE070E080E090E00E94074F61E08AE03C
:1057600094E00E94F94064E670E080E090E00E94DE
:10577000074F66EE8AE094E00E94F94061E08AE01B
:1057800094E00E94BD406FE18AE094E00E94BD4039
:105790006FEF8AE094E00E94BD4060EB8AE094E005
:1057A0000E94F94060E28AE094E00E94BD4060E01F
:1057B0008AE094E00E94BD4061E08AE094E00E94AB
:1057C000BD406FED8AE094E00E94BD4061E08AE058
:1057D00094E00E94BD406FE08AE094E00E94BD40EA
:1057E00060E08AE094E00E94BD4064EB8AE094E0CF
:1057F0000E94F94062E08AE094E00E94BD4063E1CB
:105800008AE094E00E94BD4060E08AE094E00E945B
:10581000BD4068E08AE094E00E94BD406BE28AE00F
:1058200094E00E94BD4060E08AE094E00E94BD40A8
:1058300062E08AE094E00E94BD4060E08AE094E08B
:105840000E94BD4066EB8AE094E00E94F94061E06E
:105850008AE094E00E94BD4060E28AE094E00E9409
:10586000BD4060E08AE094E00E94BD4064E08AE0D0
:1058700094E00E94BD406CE08AE094E00E94BD404C
:1058800060E08AE094E00E94BD4062E08AE094E03B
:105890000E94BD406AEB8AE094E00E94F9406FE00C
:1058A0008AE094E00E94BD4068EB8AE094E00E94A8
:1058B000F94067E08AE094E00E94BD4061E08AE040
:1058C00094E00E94BD4066E38AE094E00E94F940C3
:1058D00062E28AE094E00E94BD4060EF8AE094E0DA
:1058E0000E94F94063E08AE094E00E94BD4061E0DC
:1058F00070E080E090E00E94074F0FE011E02FED94
:1059000031E009C262EE8AE094E00E94F9406EE163
:105910008AE094E00E94BD4062E08AE094E00E9448
:10592000BD4064E58AE094E00E94BD4060EE8AE0FC
:1059300094E00E94F94061E08AE094E00E94BD405A
:105940006AE070E080E090E00E94074F60EE8AE03D
:1059500094E00E94F94063E08AE094E00E94BD4038
:105960006AE070E080E090E00E94074F61E08AE02A
:1059700094E00E94F94064E670E080E090E00E94CC
:10598000074F66EE8AE094E00E94F94063E08AE007
:1059900094E00E94BD406FEF8AE094E00E94BD4019
:1059A0006FEF8AE094E00E94BD4060EB8AE094E0F3
:1059B0000E94F94064E28AE094E00E94BD4060E009
:1059C0008AE094E00E94BD4063E08AE094E00E9497
:1059D000BD406FE18AE094E00E94BD4061E08AE052
:1059E00094E00E94BD406FED8AE094E00E94BD40CB
:1059F00060E08AE094E00E94BD4064EB8AE094E0BD
:105A00000E94F94063E08AE094E00E94BD4060EAB1
:105A10008AE094E00E94BD4060E08AE094E00E9449
:105A2000BD406EE28AE094E00E94BD4060E38AE0FF
:105A300094E00E94BD4060E08AE094E00E94BD4096
:105A40006FE08AE094E00E94BD4060E08AE094E06C
:105A50000E94BD4066EB8AE094E00E94F94062E05B
:105A60008AE094E00E94BD406DE08AE094E00E94EC
:105A7000BD4060E08AE094E00E94BD4060E18AE0C1
:105A800094E00E94BD4060E18AE094E00E94BD4045
:105A900060E08AE094E00E94BD4068E08AE094E023
:105AA0000E94BD406AEB8AE094E00E94F9406FE0FA
:105AB0008AE094E00E94BD4068EB8AE094E00E9496
:105AC000F94067E08AE094E00E94BD4061E08AE02E
:105AD00094E00E94BD4066E38AE094E00E94F940B1
